{"contracts/InvestmentClub.sol":{"InvestmentClub":{"abi":[{"inputs":[],"stateMutability":"nonpayable","type":"constructor"},{"anonymous":false,"inputs":[{"indexed":false,"internalType":"uint256","name":"clubId","type":"uint256"},{"indexed":false,"internalType":"address","name":"creator","type":"address"},{"indexed":false,"internalType":"uint256","name":"priceFeed","type":"uint256"},{"indexed":false,"internalType":"uint256","name":"predictedPrice","type":"uint256"}],"name":"Gamemember","type":"event"},{"inputs":[],"name":"EntryTime","outputs":[{"internalType":"uint256","name":"","type":"uint256"}],"stateMutability":"view","type":"function"},{"inputs":[{"internalType":"uint256","name":"clubId","type":"uint256"},{"internalType":"uint256","name":"Price","type":"uint256"},{"internalType":"address","name":"destination","type":"address"},{"internalType":"uint256","name":"PredictedPrice","type":"uint256"}],"name":"FillGameMember","outputs":[{"internalType":"uint256","name":"","type":"uint256"}],"stateMutability":"nonpayable","type":"function"},{"inputs":[],"name":"LPrice","outputs":[{"internalType":"uint256","name":"","type":"uint256"}],"stateMutability":"view","type":"function"},{"inputs":[{"internalType":"int256","name":"","type":"int256"}],"name":"LatestPrice","outputs":[{"internalType":"int256","name":"","type":"int256"}],"stateMutability":"view","type":"function"},{"inputs":[{"internalType":"uint256","name":"_price","type":"uint256"}],"name":"StoredDatafeed","outputs":[],"stateMutability":"nonpayable","type":"function"},{"inputs":[{"internalType":"uint256","name":"clubId","type":"uint256"},{"internalType":"uint256","name":"proposalId","type":"uint256"},{"internalType":"uint256","name":"newfeed","type":"uint256"},{"internalType":"uint256","name":"random","type":"uint256"}],"name":"UpdateRandom","outputs":[],"stateMutability":"nonpayable","type":"function"},{"inputs":[{"internalType":"uint256","name":"clubId","type":"uint256"},{"internalType":"address","name":"_address","type":"address"}],"name":"checkContri","outputs":[{"internalType":"bool","name":"","type":"bool"}],"stateMutability":"view","type":"function"},{"inputs":[{"internalType":"address","name":"_address","type":"address"}],"name":"checkContri","outputs":[{"internalType":"bool","name":"","type":"bool"}],"stateMutability":"view","type":"function"},{"inputs":[{"internalType":"uint256","name":"clubId","type":"uint256"},{"internalType":"uint256","name":"proposalId","type":"uint256"}],"name":"claimprize","outputs":[],"stateMutability":"payable","type":"function"},{"inputs":[{"internalType":"uint256","name":"clubId","type":"uint256"},{"internalType":"uint256","name":"proposalId","type":"uint256"}],"name":"closeProposal","outputs":[],"stateMutability":"nonpayable","type":"function"},{"inputs":[{"internalType":"address","name":"","type":"address"}],"name":"contri","outputs":[{"internalType":"bool","name":"","type":"bool"}],"stateMutability":"view","type":"function"},{"inputs":[{"internalType":"uint256","name":"clubId","type":"uint256"}],"name":"contributeToClub","outputs":[],"stateMutability":"payable","type":"function"},{"inputs":[{"internalType":"string","name":"name","type":"string"},{"internalType":"string","name":"Cid","type":"string"}],"name":"createClub","outputs":[{"internalType":"uint256","name":"","type":"uint256"}],"stateMutability":"nonpayable","type":"function"},{"inputs":[{"internalType":"uint256","name":"clubId","type":"uint256"},{"internalType":"uint256","name":"amount","type":"uint256"},{"internalType":"address","name":"destination","type":"address"},{"internalType":"string","name":"description","type":"string"},{"internalType":"string","name":"Cid","type":"string"}],"name":"createProposal","outputs":[],"stateMutability":"nonpayable","type":"function"},{"inputs":[{"internalType":"uint256","name":"clubId","type":"uint256"},{"internalType":"uint256","name":"proposalId","type":"uint256"}],"name":"executeProposal","outputs":[],"stateMutability":"payable","type":"function"},{"inputs":[{"internalType":"address","name":"userAddress","type":"address"},{"internalType":"uint256","name":"clubId","type":"uint256"}],"name":"getBalanceByClub","outputs":[{"internalType":"uint256","name":"","type":"uint256"}],"stateMutability":"view","type":"function"},{"inputs":[{"internalType":"uint256","name":"clubId","type":"uint256"},{"internalType":"uint256","name":"proposalId","type":"uint256"},{"internalType":"string","name":"_Piece","type":"string"},{"internalType":"string","name":"_carsize","type":"string"}],"name":"getCarpiece","outputs":[],"stateMutability":"nonpayable","type":"function"},{"inputs":[],"name":"getChainlinkDataFeedLatestAnswer","outputs":[{"internalType":"int256","name":"","type":"int256"}],"stateMutability":"view","type":"function"},{"inputs":[{"internalType":"uint256","name":"clubId","type":"uint256"}],"name":"getClubById","outputs":[{"components":[{"internalType":"uint256","name":"clubId","type":"uint256"},{"internalType":"string","name":"name","type":"string"},{"internalType":"uint256","name":"memberCount","type":"uint256"},{"internalType":"uint256","name":"proposalCount","type":"uint256"},{"internalType":"uint256","name":"pool","type":"uint256"},{"internalType":"uint256","name":"clubcreatedAt","type":"uint256"},{"internalType":"uint256","name":"clubexpireAt","type":"uint256"},{"internalType":"string","name":"CID","type":"string"},{"internalType":"string","name":"posdiverification","type":"string"},{"internalType":"uint256","name":"DealId","type":"uint256"}],"internalType":"struct InvestmentClub.ClubInfo","name":"","type":"tuple"}],"stateMutability":"view","type":"function"},{"inputs":[{"internalType":"uint256","name":"clubId","type":"uint256"}],"name":"getGameMemberByClub","outputs":[{"components":[{"internalType":"uint256","name":"clubId","type":"uint256"},{"internalType":"address","name":"creator","type":"address"},{"internalType":"address","name":"destination","type":"address"},{"internalType":"uint256","name":"proposedAt","type":"uint256"},{"internalType":"uint256","name":"proposalExpireAt","type":"uint256"},{"internalType":"string","name":"status","type":"string"},{"internalType":"uint256","name":"priceFeed","type":"uint256"},{"internalType":"uint256","name":"predictedPrice","type":"uint256"},{"internalType":"uint256","name":"FinalPrice","type":"uint256"},{"internalType":"uint256","name":"RandomNumber","type":"uint256"}],"internalType":"struct InvestmentClub.GameMemberInfo[]","name":"","type":"tuple[]"}],"stateMutability":"view","type":"function"},{"inputs":[{"internalType":"uint256","name":"clubId","type":"uint256"},{"internalType":"uint256","name":"proposalId","type":"uint256"}],"name":"getGamememberById","outputs":[{"components":[{"internalType":"uint256","name":"clubId","type":"uint256"},{"internalType":"address","name":"creator","type":"address"},{"internalType":"address","name":"destination","type":"address"},{"internalType":"uint256","name":"proposedAt","type":"uint256"},{"internalType":"uint256","name":"proposalExpireAt","type":"uint256"},{"internalType":"string","name":"status","type":"string"},{"internalType":"uint256","name":"priceFeed","type":"uint256"},{"internalType":"uint256","name":"predictedPrice","type":"uint256"},{"internalType":"uint256","name":"FinalPrice","type":"uint256"},{"internalType":"uint256","name":"RandomNumber","type":"uint256"}],"internalType":"struct InvestmentClub.GameMemberInfo","name":"","type":"tuple"}],"stateMutability":"view","type":"function"},{"inputs":[],"name":"getMyClubs","outputs":[{"components":[{"internalType":"uint256","name":"clubId","type":"uint256"},{"internalType":"string","name":"name","type":"string"},{"internalType":"uint256","name":"memberCount","type":"uint256"},{"internalType":"uint256","name":"proposalCount","type":"uint256"},{"internalType":"uint256","name":"pool","type":"uint256"},{"internalType":"uint256","name":"clubcreatedAt","type":"uint256"},{"internalType":"uint256","name":"clubexpireAt","type":"uint256"},{"internalType":"string","name":"CID","type":"string"},{"internalType":"string","name":"posdiverification","type":"string"},{"internalType":"uint256","name":"DealId","type":"uint256"}],"internalType":"struct InvestmentClub.ClubInfo[]","name":"","type":"tuple[]"}],"stateMutability":"view","type":"function"},{"inputs":[{"internalType":"uint256","name":"clubId","type":"uint256"}],"name":"getProposalsByClub","outputs":[{"components":[{"internalType":"uint256","name":"id","type":"uint256"},{"internalType":"address","name":"creator","type":"address"},{"internalType":"uint256","name":"amount","type":"uint256"},{"internalType":"address","name":"destination","type":"address"},{"internalType":"string","name":"status","type":"string"},{"internalType":"string","name":"description","type":"string"},{"internalType":"uint256","name":"votesFor","type":"uint256"},{"internalType":"uint256","name":"votesAgainst","type":"uint256"},{"internalType":"uint256","name":"proposedAt","type":"uint256"},{"internalType":"uint256","name":"proposalExpireAt","type":"uint256"},{"internalType":"string","name":"Cid","type":"string"},{"internalType":"string","name":"PieceCid","type":"string"},{"internalType":"string","name":"carsize","type":"string"},{"internalType":"string","name":"posdiverification","type":"string"},{"internalType":"string","name":"storageProvider","type":"string"},{"internalType":"uint256","name":"DealId","type":"uint256"}],"internalType":"struct InvestmentClub.ProposalInfo[]","name":"","type":"tuple[]"}],"stateMutability":"view","type":"function"},{"inputs":[{"internalType":"uint256","name":"clubId","type":"uint256"},{"internalType":"uint256","name":"proposalId","type":"uint256"},{"internalType":"uint256","name":"_dealId","type":"uint256"},{"internalType":"string","name":"_storage","type":"string"}],"name":"getdelandstorgae","outputs":[],"stateMutability":"nonpayable","type":"function"},{"inputs":[{"internalType":"address","name":"sender","type":"address"},{"internalType":"uint256","name":"proposalId","type":"uint256"},{"internalType":"uint256","name":"clubId","type":"uint256"}],"name":"hasVoted","outputs":[{"internalType":"bool","name":"","type":"bool"}],"stateMutability":"view","type":"function"},{"inputs":[{"internalType":"uint256","name":"clubId","type":"uint256"}],"name":"isClubFull","outputs":[{"internalType":"bool","name":"","type":"bool"}],"stateMutability":"view","type":"function"},{"inputs":[{"internalType":"uint256","name":"clubId","type":"uint256"}],"name":"isClubIdExist","outputs":[{"internalType":"bool","name":"","type":"bool"}],"stateMutability":"view","type":"function"},{"inputs":[{"internalType":"uint256","name":"proposalId","type":"uint256"},{"internalType":"uint256","name":"clubId","type":"uint256"}],"name":"isGamememberIdExist","outputs":[{"internalType":"bool","name":"","type":"bool"}],"stateMutability":"view","type":"function"},{"inputs":[{"internalType":"address","name":"memberAddress","type":"address"},{"internalType":"uint256","name":"clubId","type":"uint256"}],"name":"isMemberOfClub","outputs":[{"internalType":"bool","name":"","type":"bool"}],"stateMutability":"view","type":"function"},{"inputs":[{"internalType":"uint256","name":"proposalId","type":"uint256"},{"internalType":"uint256","name":"clubId","type":"uint256"}],"name":"isProposalIdExist","outputs":[{"internalType":"bool","name":"","type":"bool"}],"stateMutability":"view","type":"function"},{"inputs":[{"internalType":"uint256","name":"clubId","type":"uint256"},{"internalType":"uint256","name":"proposalId","type":"uint256"}],"name":"isVotingOn","outputs":[{"internalType":"bool","name":"","type":"bool"}],"stateMutability":"view","type":"function"},{"inputs":[{"internalType":"uint256","name":"clubId","type":"uint256"},{"internalType":"uint256","name":"proposalId","type":"uint256"}],"name":"isVotingOn1","outputs":[{"internalType":"bool","name":"","type":"bool"}],"stateMutability":"view","type":"function"},{"inputs":[{"internalType":"uint256","name":"clubId","type":"uint256"}],"name":"isclubopen","outputs":[{"internalType":"bool","name":"","type":"bool"}],"stateMutability":"view","type":"function"},{"inputs":[{"internalType":"uint256","name":"clubId","type":"uint256"}],"name":"joinClub","outputs":[],"stateMutability":"nonpayable","type":"function"},{"inputs":[{"internalType":"uint256","name":"clubId","type":"uint256"}],"name":"leaveClub","outputs":[],"stateMutability":"nonpayable","type":"function"},{"inputs":[],"name":"listClubs","outputs":[{"components":[{"internalType":"uint256","name":"clubId","type":"uint256"},{"internalType":"string","name":"name","type":"string"},{"internalType":"uint256","name":"memberCount","type":"uint256"},{"internalType":"uint256","name":"proposalCount","type":"uint256"},{"internalType":"uint256","name":"pool","type":"uint256"},{"internalType":"uint256","name":"clubcreatedAt","type":"uint256"},{"internalType":"uint256","name":"clubexpireAt","type":"uint256"},{"internalType":"string","name":"CID","type":"string"},{"internalType":"string","name":"posdiverification","type":"string"},{"internalType":"uint256","name":"DealId","type":"uint256"}],"internalType":"struct InvestmentClub.ClubInfo[]","name":"","type":"tuple[]"}],"stateMutability":"view","type":"function"},{"inputs":[{"internalType":"uint256","name":"clubId","type":"uint256"},{"internalType":"uint256","name":"proposalId","type":"uint256"}],"name":"proverifiydocs","outputs":[],"stateMutability":"nonpayable","type":"function"},{"inputs":[],"name":"show","outputs":[{"internalType":"uint256","name":"","type":"uint256"}],"stateMutability":"view","type":"function"},{"inputs":[{"internalType":"uint256","name":"clubId","type":"uint256"}],"name":"verifiydocs","outputs":[],"stateMutability":"nonpayable","type":"function"},{"inputs":[{"internalType":"uint256","name":"clubId","type":"uint256"},{"internalType":"uint256","name":"proposalId","type":"uint256"},{"internalType":"bool","name":"vote","type":"bool"}],"name":"voteOnProposal","outputs":[],"stateMutability":"nonpayable","type":"function"}],"evm":{"bytecode":{"linkReferences":{},"object":"608060405234801561001057600080fd5b5073ac3e04999aefe44d508cb3f9b972b0ecd07c1efb6000806101000a81548173ffffffffffffffffffffffffffffffffffffffff021916908373ffffffffffffffffffffffffffffffffffffffff16021790555060006004819055506000600581905550615c1080620000856000396000f3fe60806040526004361061023b5760003560e01c8063647e598b1161012e578063c2ba2756116100ab578063e7613ea81161006f578063e7613ea814610912578063e7ddd0de1461093b578063eec8e0db14610978578063f9f2bb3c146109b5578063fb0e2776146109f25761023b565b8063c2ba275614610807578063c3741fed14610844578063c467087814610881578063cc80f6f3146108be578063e1542742146108e95761023b565b80639d9087b9116100f25780639d9087b91461070e578063a4c2294314610737578063ab7ca34814610762578063b4723d441461079f578063bea4dfb5146107dc5761023b565b8063647e598b146106195780636764fd481461064257806382b7661b1461067f578063890e2456146106a857806389972a32146106e55761023b565b806334fa3d83116101bc5780634d7f75c3116101805780634d7f75c314610534578063549710be1461055d57806354a2e233146105885780635b2ade7c146105b15780635ff847fb146105ee5761023b565b806334fa3d831461042457806335a1930f146104615780633f7a6a821461049e57806347f83c8f146104db578063487598ca146104f75761023b565b80631155bdfd116102035780631155bdfd146103495780631ab76712146103865780632443c344146103a257806327449315146103df578063288509b4146104085761023b565b8063058694a91461024057806305f0ef7c1461027d5780630e46d214146102a65780630ee29404146102e35780631063fd1914610320575b600080fd5b34801561024c57600080fd5b5061026760048036038101906102629190613e46565b610a1d565b60405161027491906141a0565b60405180910390f35b34801561028957600080fd5b506102a4600480360381019061029f91906141c2565b611020565b005b3480156102b257600080fd5b506102cd60048036038101906102c89190614255565b611064565b6040516102da91906142cb565b60405180910390f35b3480156102ef57600080fd5b5061030a600480360381019061030591906142e6565b6112f6565b6040516103179190614354565b60405180910390f35b34801561032c57600080fd5b50610347600480360381019061034291906144a4565b611376565b005b34801561035557600080fd5b50610370600480360381019061036b9190614527565b6113ca565b60405161037d9190614354565b60405180910390f35b6103a0600480360381019061039b9190614527565b611406565b005b3480156103ae57600080fd5b506103c960048036038101906103c49190614567565b61171a565b6040516103d69190614354565b60405180910390f35b3480156103eb57600080fd5b5061040660048036038101906104019190613e46565b611785565b005b610422600480360381019061041d9190613e46565b61178f565b005b34801561043057600080fd5b5061044b600480360381019061044691906145a7565b611a7f565b6040516104589190614354565b60405180910390f35b34801561046d57600080fd5b50610488600480360381019061048391906145e7565b611b2f565b60405161049591906142cb565b60405180910390f35b3480156104aa57600080fd5b506104c560048036038101906104c0919061465f565b611cff565b6040516104d29190614354565b60405180910390f35b6104f560048036038101906104f09190614527565b611d1f565b005b34801561050357600080fd5b5061051e60048036038101906105199190614527565b611e86565b60405161052b9190614766565b60405180910390f35b34801561054057600080fd5b5061055b60048036038101906105569190613e46565b6120bb565b005b34801561056957600080fd5b506105726121f6565b60405161057f9190614932565b60405180910390f35b34801561059457600080fd5b506105af60048036038101906105aa9190614980565b6124dd565b005b3480156105bd57600080fd5b506105d860048036038101906105d39190613e46565b61275c565b6040516105e59190614b6f565b60405180910390f35b3480156105fa57600080fd5b506106036129f3565b6040516106109190614932565b60405180910390f35b34801561062557600080fd5b50610640600480360381019061063b9190614b91565b612cbf565b005b34801561064e57600080fd5b5061066960048036038101906106649190613e46565b612d23565b6040516106769190614354565b60405180910390f35b34801561068b57600080fd5b506106a660048036038101906106a19190613e46565b612d46565b005b3480156106b457600080fd5b506106cf60048036038101906106ca91906145a7565b612df7565b6040516106dc91906142cb565b60405180910390f35b3480156106f157600080fd5b5061070c60048036038101906107079190614c30565b612e63565b005b34801561071a57600080fd5b5061073560048036038101906107309190614527565b61322e565b005b34801561074357600080fd5b5061074c6132ac565b60405161075991906142cb565b60405180910390f35b34801561076e57600080fd5b5061078960048036038101906107849190614527565b6132b2565b6040516107969190614354565b60405180910390f35b3480156107ab57600080fd5b506107c660048036038101906107c1919061465f565b6132ee565b6040516107d39190614354565b60405180910390f35b3480156107e857600080fd5b506107f1613344565b6040516107fe9190614cfc565b60405180910390f35b34801561081357600080fd5b5061082e60048036038101906108299190614527565b6133e3565b60405161083b9190614354565b60405180910390f35b34801561085057600080fd5b5061086b60048036038101906108669190613e46565b61341b565b6040516108789190614dff565b60405180910390f35b34801561088d57600080fd5b506108a860048036038101906108a39190613e46565b613696565b6040516108b59190614354565b60405180910390f35b3480156108ca57600080fd5b506108d36136b9565b6040516108e091906142cb565b60405180910390f35b3480156108f557600080fd5b50610910600480360381019061090b9190613e46565b6136c3565b005b34801561091e57600080fd5b5061093960048036038101906109349190614527565b61389b565b005b34801561094757600080fd5b50610962600480360381019061095d9190614e4d565b613ad3565b60405161096f9190614cfc565b60405180910390f35b34801561098457600080fd5b5061099f600480360381019061099a9190614527565b613aeb565b6040516109ac9190614354565b60405180910390f35b3480156109c157600080fd5b506109dc60048036038101906109d79190613e46565b613b23565b6040516109e99190614354565b60405180910390f35b3480156109fe57600080fd5b50610a07613b4a565b604051610a1491906142cb565b60405180910390f35b6060610a2882612d23565b610a67576040517f08c379a0000000000000000000000000000000000000000000000000000000008152600401610a5e90614ed7565b60405180910390fd5b60006002600084815260200190815260200160002090506000816009015467ffffffffffffffff811115610a9e57610a9d614379565b5b604051908082528060200260200182016040528015610ad757816020015b610ac4613bde565b815260200190600190039081610abc5790505b509050600080600190505b836009015481116110145760008460070160008381526020019081526020016000209050604051806102000160405280826000015481526020018260010160009054906101000a900473ffffffffffffffffffffffffffffffffffffffff1673ffffffffffffffffffffffffffffffffffffffff168152602001826002015481526020018260030160009054906101000a900473ffffffffffffffffffffffffffffffffffffffff1673ffffffffffffffffffffffffffffffffffffffff168152602001826004018054610bb590614f26565b80601f0160208091040260200160405190810160405280929190818152602001828054610be190614f26565b8015610c2e5780601f10610c0357610100808354040283529160200191610c2e565b820191906000526020600020905b815481529060010190602001808311610c1157829003601f168201915b50505050508152602001826005018054610c4790614f26565b80601f0160208091040260200160405190810160405280929190818152602001828054610c7390614f26565b8015610cc05780601f10610c9557610100808354040283529160200191610cc0565b820191906000526020600020905b815481529060010190602001808311610ca357829003601f168201915b505050505081526020018260060154815260200182600701548152602001826008015481526020018260090154815260200182600a018054610d0190614f26565b80601f0160208091040260200160405190810160405280929190818152602001828054610d2d90614f26565b8015610d7a5780601f10610d4f57610100808354040283529160200191610d7a565b820191906000526020600020905b815481529060010190602001808311610d5d57829003601f168201915b5050505050815260200182600b018054610d9390614f26565b80601f0160208091040260200160405190810160405280929190818152602001828054610dbf90614f26565b8015610e0c5780601f10610de157610100808354040283529160200191610e0c565b820191906000526020600020905b815481529060010190602001808311610def57829003601f168201915b5050505050815260200182600c018054610e2590614f26565b80601f0160208091040260200160405190810160405280929190818152602001828054610e5190614f26565b8015610e9e5780601f10610e7357610100808354040283529160200191610e9e565b820191906000526020600020905b815481529060010190602001808311610e8157829003601f168201915b5050505050815260200182600d018054610eb790614f26565b80601f0160208091040260200160405190810160405280929190818152602001828054610ee390614f26565b8015610f305780601f10610f0557610100808354040283529160200191610f30565b820191906000526020600020905b815481529060010190602001808311610f1357829003601f168201915b5050505050815260200182600e018054610f4990614f26565b80601f0160208091040260200160405190810160405280929190818152602001828054610f7590614f26565b8015610fc25780601f10610f9757610100808354040283529160200191610fc2565b820191906000526020600020905b815481529060010190602001808311610fa557829003601f168201915b5050505050815260200182600f0154815250848481518110610fe757610fe6614f58565b5b60200260200101819052508280610ffd90614fb6565b93505050808061100c90614fb6565b915050610ae2565b50819350505050919050565b600060026000868152602001908152602001600020600801600085815260200190815260200160002090508281600801819055508181600901819055505050505050565b600061106f85612d23565b6110ae576040517f08c379a00000000000000000000000000000000000000000000000000000000081526004016110a59061504b565b60405180910390fd5b60006002600087815260200190815260200160002090506110cf3387611a7f565b61110e576040517f08c379a0000000000000000000000000000000000000000000000000000000008152600401611105906150b7565b60405180910390fd5b60006001826009015461112191906150d7565b905060006002600089815260200190815260200160002060080160008381526020019081526020016000209050818160000181905550338160010160006101000a81548173ffffffffffffffffffffffffffffffffffffffff021916908373ffffffffffffffffffffffffffffffffffffffff160217905550858160020160006101000a81548173ffffffffffffffffffffffffffffffffffffffff021916908373ffffffffffffffffffffffffffffffffffffffff1602179055504281600301819055506101686008546111f691906150d7565b81600401819055506040518060400160405280600781526020017f50656e64696e670000000000000000000000000000000000000000000000000081525081600501908051906020019061124b929190613c87565b5086816006018190555084816007018190555060008160080181905550600081600901819055507f228e740011c0eca4806871633863164d54cfe348716c44ca34f3cbac63e7bf6681600001548260010160009054906101000a900473ffffffffffffffffffffffffffffffffffffffff16836006015484600701546040516112d7949392919061513c565b60405180910390a1818360090181905550879350505050949350505050565b600060026000838152602001908152602001600020600701600084815260200190815260200160002060100160008573ffffffffffffffffffffffffffffffffffffffff1673ffffffffffffffffffffffffffffffffffffffff16815260200190815260200160002060009054906101000a900460ff1690509392505050565b600060026000868152602001908152602001600020600701600085815260200190815260200160002090508281600f01819055508181600e0190805190602001906113c2929190613c87565b505050505050565b60008060026000858152602001908152602001600020600701600084815260200190815260200160002090504281600901541191505092915050565b60006002600084815260200190815260200160002090506000816007016000848152602001908152602001600020905061143f84612d23565b61147e576040517f08c379a00000000000000000000000000000000000000000000000000000000081526004016114759061504b565b60405180910390fd5b6114883385611a7f565b6114c7576040517f08c379a00000000000000000000000000000000000000000000000000000000081526004016114be906150b7565b60405180910390fd5b6114d18385613aeb565b611510576040517f08c379a0000000000000000000000000000000000000000000000000000000008152600401611507906151cd565b60405180910390fd5b61151a8484613b50565b611559576040517f08c379a00000000000000000000000000000000000000000000000000000000081526004016115509061525f565b60405180910390fd5b8060020154826004015410156115a4576040517f08c379a000000000000000000000000000000000000000000000000000000000815260040161159b906152f1565b60405180910390fd5b80600701548160060154116115ee576040517f08c379a00000000000000000000000000000000000000000000000000000000081526004016115e590615383565b60405180910390fd5b6115f884846132b2565b15611638576040517f08c379a000000000000000000000000000000000000000000000000000000000815260040161162f90615415565b60405180910390fd5b6040518060400160405280600881526020017f4578656375746564000000000000000000000000000000000000000000000000815250816004019080519060200190611685929190613c87565b50806002015482600401600082825461169e9190615435565b925050819055508060030160009054906101000a900473ffffffffffffffffffffffffffffffffffffffff1673ffffffffffffffffffffffffffffffffffffffff166108fc82600201549081150290604051600060405180830381858888f19350505050158015611713573d6000803e3d6000fd5b5050505050565b600060026000848152602001908152602001600020600d0160008373ffffffffffffffffffffffffffffffffffffffff1673ffffffffffffffffffffffffffffffffffffffff16815260200190815260200160002060009054906101000a900460ff16905092915050565b8060018190555050565b61179881612d23565b6117d7576040517f08c379a00000000000000000000000000000000000000000000000000000000081526004016117ce9061504b565b60405180910390fd5b60006002600083815260200190815260200160002090506117f83383611a7f565b611837576040517f08c379a000000000000000000000000000000000000000000000000000000000815260040161182e906150b7565b60405180910390fd5b6000341161187a576040517f08c379a0000000000000000000000000000000000000000000000000000000008152600401611871906154db565b60405180910390fd5b61188382613b23565b6118c2576040517f08c379a00000000000000000000000000000000000000000000000000000000081526004016118b990615547565b60405180910390fd5b60008160020160003373ffffffffffffffffffffffffffffffffffffffff1673ffffffffffffffffffffffffffffffffffffffff16815260200190815260200160002090503481600101600082825461191b91906150d7565b92505081905550600060405180604001604052803373ffffffffffffffffffffffffffffffffffffffff16815260200160008152509050600183600d0160003373ffffffffffffffffffffffffffffffffffffffff1673ffffffffffffffffffffffffffffffffffffffff16815260200190815260200160002060006101000a81548160ff021916908315150217905550808360020160003373ffffffffffffffffffffffffffffffffffffffff1673ffffffffffffffffffffffffffffffffffffffff16815260200190815260200160002060008201518160000160006101000a81548173ffffffffffffffffffffffffffffffffffffffff021916908373ffffffffffffffffffffffffffffffffffffffff160217905550602082015181600101559050506001836003016000828254611a5791906150d7565b9250508190555034836004016000828254611a7291906150d7565b9250508190555050505050565b60008073ffffffffffffffffffffffffffffffffffffffff166002600084815260200190815260200160002060020160008573ffffffffffffffffffffffffffffffffffffffff1673ffffffffffffffffffffffffffffffffffffffff16815260200190815260200160002060000160009054906101000a900473ffffffffffffffffffffffffffffffffffffffff1673ffffffffffffffffffffffffffffffffffffffff161415905092915050565b6000806001600454611b4191906150d7565b9050600060026000838152602001908152602001600020905081816000018190555084816001019080519060200190611b7b929190613c87565b506000816004018190555060008160090181905550600181600301819055504281600501819055504260088190555060b442611bb791906150d7565b81600601819055508381600a019080519060200190611bd7929190613c87565b506040518060400160405280600781526020017f50656e64696e670000000000000000000000000000000000000000000000000081525081600b019080519060200190611c25929190613c87565b50600060405180604001604052803373ffffffffffffffffffffffffffffffffffffffff16815260200160008152509050808260020160003373ffffffffffffffffffffffffffffffffffffffff1673ffffffffffffffffffffffffffffffffffffffff16815260200190815260200160002060008201518160000160006101000a81548173ffffffffffffffffffffffffffffffffffffffff021916908373ffffffffffffffffffffffffffffffffffffffff160217905550602082015181600101559050508260048190555082935050505092915050565b60036020528060005260406000206000915054906101000a900460ff1681565b600060026000848152602001908152602001600020905060006002600085815260200190815260200160002060080160008481526020019081526020016000209050611d6a84612d23565b611da9576040517f08c379a0000000000000000000000000000000000000000000000000000000008152600401611da09061504b565b60405180910390fd5b611db33385611a7f565b611df2576040517f08c379a0000000000000000000000000000000000000000000000000000000008152600401611de9906150b7565b60405180910390fd5b8160040154826004016000828254611e0a9190615435565b925050819055508060020160009054906101000a900473ffffffffffffffffffffffffffffffffffffffff1673ffffffffffffffffffffffffffffffffffffffff166108fc83600401549081150290604051600060405180830381858888f19350505050158015611e7f573d6000803e3d6000fd5b5050505050565b611e8e613d0d565b611e9783612d23565b611ed6576040517f08c379a0000000000000000000000000000000000000000000000000000000008152600401611ecd9061504b565b60405180910390fd5b611ee082846133e3565b611f1f576040517f08c379a0000000000000000000000000000000000000000000000000000000008152600401611f16906151cd565b60405180910390fd5b600060026000858152602001908152602001600020600801600084815260200190815260200160002090506000604051806101400160405280836000015481526020018360010160009054906101000a900473ffffffffffffffffffffffffffffffffffffffff1673ffffffffffffffffffffffffffffffffffffffff1681526020018360020160009054906101000a900473ffffffffffffffffffffffffffffffffffffffff1673ffffffffffffffffffffffffffffffffffffffff168152602001836003015481526020018360040154815260200183600501805461200590614f26565b80601f016020809104026020016040519081016040528092919081815260200182805461203190614f26565b801561207e5780601f106120535761010080835404028352916020019161207e565b820191906000526020600020905b81548152906001019060200180831161206157829003601f168201915b5050505050815260200183600601548152602001836007015481526020018360080154815260200183600901548152509050809250505092915050565b6120c481612d23565b612103576040517f08c379a00000000000000000000000000000000000000000000000000000000081526004016120fa9061504b565b60405180910390fd5b60006002600083815260200190815260200160002090506121243383611a7f565b612163576040517f08c379a000000000000000000000000000000000000000000000000000000000815260040161215a906150b7565b60405180910390fd5b60018160030160008282546121789190615435565b925050819055508060020160003373ffffffffffffffffffffffffffffffffffffffff1673ffffffffffffffffffffffffffffffffffffffff168152602001908152602001600020600080820160006101000a81549073ffffffffffffffffffffffffffffffffffffffff0219169055600182016000905550505050565b6060600060045467ffffffffffffffff81111561221657612215614379565b5b60405190808252806020026020018201604052801561224f57816020015b61223c613d8c565b8152602001906001900390816122345790505b509050600080600190505b60045481116124d4576000600260008381526020019081526020016000209050612288338260000154611a7f565b156124c057604051806101400160405280826000015481526020018260010180546122b290614f26565b80601f01602080910402602001604051908101604052809291908181526020018280546122de90614f26565b801561232b5780601f106123005761010080835404028352916020019161232b565b820191906000526020600020905b81548152906001019060200180831161230e57829003601f168201915b50505050508152602001826003015481526020018260090154815260200182600401548152602001826005015481526020018260060154815260200182600a01805461237690614f26565b80601f01602080910402602001604051908101604052809291908181526020018280546123a290614f26565b80156123ef5780601f106123c4576101008083540402835291602001916123ef565b820191906000526020600020905b8154815290600101906020018083116123d257829003601f168201915b5050505050815260200182600b01805461240890614f26565b80601f016020809104026020016040519081016040528092919081815260200182805461243490614f26565b80156124815780601f1061245657610100808354040283529160200191612481565b820191906000526020600020905b81548152906001019060200180831161246457829003601f168201915b5050505050815260200182600c01548152508484815181106124a6576124a5614f58565b5b602002602001018190525082806124bc90614fb6565b9350505b5080806124cc90614fb6565b91505061225a565b50819250505090565b6124e683612d23565b612525576040517f08c379a000000000000000000000000000000000000000000000000000000000815260040161251c9061504b565b60405180910390fd5b61252f83836132b2565b61256e576040517f08c379a0000000000000000000000000000000000000000000000000000000008152600401612565906155b3565b60405180910390fd5b600060026000858152602001908152602001600020905061258f3385611a7f565b6125ce576040517f08c379a00000000000000000000000000000000000000000000000000000000081526004016125c5906150b7565b60405180910390fd5b6125d88385613aeb565b612617576040517f08c379a000000000000000000000000000000000000000000000000000000000815260040161260e906151cd565b60405180910390fd5b6000816007016000858152602001908152602001600020905061263b3385876112f6565b1561267b576040517f08c379a000000000000000000000000000000000000000000000000000000000815260040161267290615645565b60405180910390fd5b6040518060400160405280600781526020017f50656e64696e670000000000000000000000000000000000000000000000000081525080519060200120816004016040516126c99190615704565b604051809103902014612711576040517f08c379a00000000000000000000000000000000000000000000000000000000081526004016127089061578d565b60405180910390fd5b821561273857600181600601600082825461272c91906150d7565b92505081905550612755565b600181600701600082825461274d91906150d7565b925050819055505b5050505050565b606061276782612d23565b6127a6576040517f08c379a000000000000000000000000000000000000000000000000000000000815260040161279d90614ed7565b60405180910390fd5b60006002600084815260200190815260200160002090506000816009015467ffffffffffffffff8111156127dd576127dc614379565b5b60405190808252806020026020018201604052801561281657816020015b612803613d0d565b8152602001906001900390816127fb5790505b509050600080600190505b836009015481116129e75760008460080160008381526020019081526020016000209050604051806101400160405280826000015481526020018260010160009054906101000a900473ffffffffffffffffffffffffffffffffffffffff1673ffffffffffffffffffffffffffffffffffffffff1681526020018260020160009054906101000a900473ffffffffffffffffffffffffffffffffffffffff1673ffffffffffffffffffffffffffffffffffffffff16815260200182600301548152602001826004015481526020018260050180546128fe90614f26565b80601f016020809104026020016040519081016040528092919081815260200182805461292a90614f26565b80156129775780601f1061294c57610100808354040283529160200191612977565b820191906000526020600020905b81548152906001019060200180831161295a57829003601f168201915b5050505050815260200182600601548152602001826007015481526020018260080154815260200182600901548152508484815181106129ba576129b9614f58565b5b602002602001018190525082806129d090614fb6565b9350505080806129df90614fb6565b915050612821565b50819350505050919050565b6060600060045467ffffffffffffffff811115612a1357612a12614379565b5b604051908082528060200260200182016040528015612a4c57816020015b612a39613d8c565b815260200190600190039081612a315790505b50905060005b600454811015612cb757600060026000600184612a6f91906150d7565b8152602001908152602001600020905060405180610140016040528082600001548152602001826001018054612aa490614f26565b80601f0160208091040260200160405190810160405280929190818152602001828054612ad090614f26565b8015612b1d5780601f10612af257610100808354040283529160200191612b1d565b820191906000526020600020905b815481529060010190602001808311612b0057829003601f168201915b50505050508152602001826003015481526020018260050154815260200182600601548152602001826009015481526020018260040154815260200182600a018054612b6890614f26565b80601f0160208091040260200160405190810160405280929190818152602001828054612b9490614f26565b8015612be15780601f10612bb657610100808354040283529160200191612be1565b820191906000526020600020905b815481529060010190602001808311612bc457829003601f168201915b5050505050815260200182600b018054612bfa90614f26565b80601f0160208091040260200160405190810160405280929190818152602001828054612c2690614f26565b8015612c735780601f10612c4857610100808354040283529160200191612c73565b820191906000526020600020905b815481529060010190602001808311612c5657829003601f168201915b5050505050815260200182600c0154815250838381518110612c9857612c97614f58565b5b6020026020010181905250508080612caf90614fb6565b915050612a52565b508091505090565b600060026000868152602001908152602001600020600701600085815260200190815260200160002090508281600b019080519060200190612d02929190613c87565b508181600c019080519060200190612d1b929190613c87565b505050505050565b600080600260008481526020019081526020016000206000015414159050919050565b612d4f81612d23565b612d8e576040517f08c379a0000000000000000000000000000000000000000000000000000000008152600401612d85906157f9565b60405180910390fd5b60006002600083815260200190815260200160002090506040518060400160405280600881526020017f566572696669656400000000000000000000000000000000000000000000000081525081600b019080519060200190612df2929190613c87565b505050565b60008060026000848152602001908152602001600020905060008160020160008673ffffffffffffffffffffffffffffffffffffffff1673ffffffffffffffffffffffffffffffffffffffff168152602001908152602001600020905080600101549250505092915050565b612e6c85612d23565b612eab576040517f08c379a0000000000000000000000000000000000000000000000000000000008152600401612ea29061504b565b60405180910390fd5b6000600260008781526020019081526020016000209050612ecc3387611a7f565b612f0b576040517f08c379a0000000000000000000000000000000000000000000000000000000008152600401612f02906150b7565b60405180910390fd5b60008511612f4e576040517f08c379a0000000000000000000000000000000000000000000000000000000008152600401612f459061588b565b60405180910390fd5b600060018260090154612f6191906150d7565b905060006002600089815260200190815260200160002060070160008381526020019081526020016000209050818160000181905550338160010160006101000a81548173ffffffffffffffffffffffffffffffffffffffff021916908373ffffffffffffffffffffffffffffffffffffffff160217905550868160020181905550858160030160006101000a81548173ffffffffffffffffffffffffffffffffffffffff021916908373ffffffffffffffffffffffffffffffffffffffff1602179055506040518060400160405280600781526020017f50656e64696e6700000000000000000000000000000000000000000000000000815250816004019080519060200190613073929190613c87565b508481600501908051906020019061308c929190613c87565b50600081600601819055506000816007018190555042816008018190555061012c426130b891906150d7565b81600901819055508381600a0190805190602001906130d8929190613c87565b506040518060400160405280600a81526020017f494e2050726f636573730000000000000000000000000000000000000000000081525081600b019080519060200190613126929190613c87565b506040518060400160405280600a81526020017f494e2d50726f636573730000000000000000000000000000000000000000000081525081600c019080519060200190613174929190613c87565b50600081600f01819055506040518060400160405280600a81526020017f494e2d50726f636573730000000000000000000000000000000000000000000081525081600e0190805190602001906131cc929190613c87565b506040518060400160405280600b81526020017f556e2d566572696669656400000000000000000000000000000000000000000081525081600d01908051906020019061321a929190613c87565b508183600901819055505050505050505050565b600060026000848152602001908152602001600020600701600083815260200190815260200160002090506040518060400160405280600881526020017f566572696669656400000000000000000000000000000000000000000000000081525081600d0190805190602001906132a6929190613c87565b50505050565b60085481565b60008060026000858152602001908152602001600020600801600084815260200190815260200160002090504281600401541191505092915050565b6000600360008373ffffffffffffffffffffffffffffffffffffffff1673ffffffffffffffffffffffffffffffffffffffff16815260200190815260200160002060009054906101000a900460ff169050919050565b60008060008054906101000a900473ffffffffffffffffffffffffffffffffffffffff1673ffffffffffffffffffffffffffffffffffffffff1663feaf968c6040518163ffffffff1660e01b815260040160a060405180830381865afa1580156133b2573d6000803e3d6000fd5b505050506040513d601f19601f820116820180604052508101906133d69190615917565b5050509150508091505090565b600080600260008481526020019081526020016000206008016000858152602001908152602001600020600001541415905092915050565b613423613d8c565b61342c82612d23565b61346b576040517f08c379a00000000000000000000000000000000000000000000000000000000081526004016134629061504b565b60405180910390fd5b60006002600084815260200190815260200160002090506000604051806101400160405280836000015481526020018360010180546134a990614f26565b80601f01602080910402602001604051908101604052809291908181526020018280546134d590614f26565b80156135225780601f106134f757610100808354040283529160200191613522565b820191906000526020600020905b81548152906001019060200180831161350557829003601f168201915b50505050508152602001836003015481526020018360090154815260200183600401548152602001836005015481526020018360060154815260200183600a01805461356d90614f26565b80601f016020809104026020016040519081016040528092919081815260200182805461359990614f26565b80156135e65780601f106135bb576101008083540402835291602001916135e6565b820191906000526020600020905b8154815290600101906020018083116135c957829003601f168201915b5050505050815260200183600b0180546135ff90614f26565b80601f016020809104026020016040519081016040528092919081815260200182805461362b90614f26565b80156136785780601f1061364d57610100808354040283529160200191613678565b820191906000526020600020905b81548152906001019060200180831161365b57829003601f168201915b5050505050815260200183600c015481525090508092505050919050565b600060636002600084815260200190815260200160002060030154109050919050565b6000600154905090565b6136cc81612d23565b61370b576040517f08c379a0000000000000000000000000000000000000000000000000000000008152600401613702906157f9565b60405180910390fd5b600060026000838152602001908152602001600020905061372b82613696565b61376a576040517f08c379a000000000000000000000000000000000000000000000000000000000815260040161376190615a04565b60405180910390fd5b6137743383611a7f565b156137b4576040517f08c379a00000000000000000000000000000000000000000000000000000000081526004016137ab90615a96565b60405180910390fd5b600060405180604001604052803373ffffffffffffffffffffffffffffffffffffffff16815260200160008152509050808260020160003373ffffffffffffffffffffffffffffffffffffffff1673ffffffffffffffffffffffffffffffffffffffff16815260200190815260200160002060008201518160000160006101000a81548173ffffffffffffffffffffffffffffffffffffffff021916908373ffffffffffffffffffffffffffffffffffffffff16021790555060208201518160010155905050600182600301600082825461388f91906150d7565b92505081905550505050565b6138a482612d23565b6138e3576040517f08c379a00000000000000000000000000000000000000000000000000000000081526004016138da9061504b565b60405180910390fd5b6138ed8183613aeb565b61392c576040517f08c379a0000000000000000000000000000000000000000000000000000000008152600401613923906151cd565b60405180910390fd5b61393682826132b2565b15613976576040517f08c379a000000000000000000000000000000000000000000000000000000000815260040161396d90615415565b60405180910390fd5b600060026000848152602001908152602001600020600701600083815260200190815260200160002090506040518060400160405280600781526020017f50656e64696e670000000000000000000000000000000000000000000000000081525080519060200120816004016040516139ef9190615704565b604051809103902014613a37576040517f08c379a0000000000000000000000000000000000000000000000000000000008152600401613a2e90615b28565b60405180910390fd5b613a418383613b50565b613a80576040517f08c379a0000000000000000000000000000000000000000000000000000000008152600401613a7790615bba565b60405180910390fd5b6040518060400160405280600681526020017f436c6f7365640000000000000000000000000000000000000000000000000000815250816004019080519060200190613acd929190613c87565b50505050565b60076020528060005260406000206000915090505481565b600080600260008481526020019081526020016000206007016000858152602001908152602001600020600001541415905092915050565b60008060026000848152602001908152602001600020905042816006015411915050919050565b60015481565b600080600260008581526020019081526020016000209050600081600701600085815260200190815260200160002090508060010160009054906101000a900473ffffffffffffffffffffffffffffffffffffffff1673ffffffffffffffffffffffffffffffffffffffff163373ffffffffffffffffffffffffffffffffffffffff16149250505092915050565b60405180610200016040528060008152602001600073ffffffffffffffffffffffffffffffffffffffff16815260200160008152602001600073ffffffffffffffffffffffffffffffffffffffff1681526020016060815260200160608152602001600081526020016000815260200160008152602001600081526020016060815260200160608152602001606081526020016060815260200160608152602001600081525090565b828054613c9390614f26565b90600052602060002090601f016020900481019282613cb55760008555613cfc565b82601f10613cce57805160ff1916838001178555613cfc565b82800160010185558215613cfc579182015b82811115613cfb578251825591602001919060010190613ce0565b5b509050613d099190613ddf565b5090565b60405180610140016040528060008152602001600073ffffffffffffffffffffffffffffffffffffffff168152602001600073ffffffffffffffffffffffffffffffffffffffff168152602001600081526020016000815260200160608152602001600081526020016000815260200160008152602001600081525090565b604051806101400160405280600081526020016060815260200160008152602001600081526020016000815260200160008152602001600081526020016060815260200160608152602001600081525090565b5b80821115613df8576000816000905550600101613de0565b5090565b6000604051905090565b600080fd5b600080fd5b6000819050919050565b613e2381613e10565b8114613e2e57600080fd5b50565b600081359050613e4081613e1a565b92915050565b600060208284031215613e5c57613e5b613e06565b5b6000613e6a84828501613e31565b91505092915050565b600081519050919050565b600082825260208201905092915050565b6000819050602082019050919050565b613ea881613e10565b82525050565b600073ffffffffffffffffffffffffffffffffffffffff82169050919050565b6000613ed982613eae565b9050919050565b613ee981613ece565b82525050565b600081519050919050565b600082825260208201905092915050565b60005b83811015613f29578082015181840152602081019050613f0e565b83811115613f38576000848401525b50505050565b6000601f19601f8301169050919050565b6000613f5a82613eef565b613f648185613efa565b9350613f74818560208601613f0b565b613f7d81613f3e565b840191505092915050565b600061020083016000830151613fa16000860182613e9f565b506020830151613fb46020860182613ee0565b506040830151613fc76040860182613e9f565b506060830151613fda6060860182613ee0565b5060808301518482036080860152613ff28282613f4f565b91505060a083015184820360a086015261400c8282613f4f565b91505060c083015161402160c0860182613e9f565b5060e083015161403460e0860182613e9f565b50610100830151614049610100860182613e9f565b5061012083015161405e610120860182613e9f565b506101408301518482036101408601526140788282613f4f565b9150506101608301518482036101608601526140948282613f4f565b9150506101808301518482036101808601526140b08282613f4f565b9150506101a08301518482036101a08601526140cc8282613f4f565b9150506101c08301518482036101c08601526140e88282613f4f565b9150506101e08301516140ff6101e0860182613e9f565b508091505092915050565b60006141168383613f88565b905092915050565b6000602082019050919050565b600061413682613e73565b6141408185613e7e565b93508360208202850161415285613e8f565b8060005b8581101561418e578484038952815161416f858261410a565b945061417a8361411e565b925060208a01995050600181019050614156565b50829750879550505050505092915050565b600060208201905081810360008301526141ba818461412b565b905092915050565b600080600080608085870312156141dc576141db613e06565b5b60006141ea87828801613e31565b94505060206141fb87828801613e31565b935050604061420c87828801613e31565b925050606061421d87828801613e31565b91505092959194509250565b61423281613ece565b811461423d57600080fd5b50565b60008135905061424f81614229565b92915050565b6000806000806080858703121561426f5761426e613e06565b5b600061427d87828801613e31565b945050602061428e87828801613e31565b935050604061429f87828801614240565b92505060606142b087828801613e31565b91505092959194509250565b6142c581613e10565b82525050565b60006020820190506142e060008301846142bc565b92915050565b6000806000606084860312156142ff576142fe613e06565b5b600061430d86828701614240565b935050602061431e86828701613e31565b925050604061432f86828701613e31565b9150509250925092565b60008115159050919050565b61434e81614339565b82525050565b60006020820190506143696000830184614345565b92915050565b600080fd5b600080fd5b7f4e487b7100000000000000000000000000000000000000000000000000000000600052604160045260246000fd5b6143b182613f3e565b810181811067ffffffffffffffff821117156143d0576143cf614379565b5b80604052505050565b60006143e3613dfc565b90506143ef82826143a8565b919050565b600067ffffffffffffffff82111561440f5761440e614379565b5b61441882613f3e565b9050602081019050919050565b82818337600083830152505050565b6000614447614442846143f4565b6143d9565b90508281526020810184848401111561446357614462614374565b5b61446e848285614425565b509392505050565b600082601f83011261448b5761448a61436f565b5b813561449b848260208601614434565b91505092915050565b600080600080608085870312156144be576144bd613e06565b5b60006144cc87828801613e31565b94505060206144dd87828801613e31565b93505060406144ee87828801613e31565b925050606085013567ffffffffffffffff81111561450f5761450e613e0b565b5b61451b87828801614476565b91505092959194509250565b6000806040838503121561453e5761453d613e06565b5b600061454c85828601613e31565b925050602061455d85828601613e31565b9150509250929050565b6000806040838503121561457e5761457d613e06565b5b600061458c85828601613e31565b925050602061459d85828601614240565b9150509250929050565b600080604083850312156145be576145bd613e06565b5b60006145cc85828601614240565b92505060206145dd85828601613e31565b9150509250929050565b600080604083850312156145fe576145fd613e06565b5b600083013567ffffffffffffffff81111561461c5761461b613e0b565b5b61462885828601614476565b925050602083013567ffffffffffffffff81111561464957614648613e0b565b5b61465585828601614476565b9150509250929050565b60006020828403121561467557614674613e06565b5b600061468384828501614240565b91505092915050565b6000610140830160008301516146a56000860182613e9f565b5060208301516146b86020860182613ee0565b5060408301516146cb6040860182613ee0565b5060608301516146de6060860182613e9f565b5060808301516146f16080860182613e9f565b5060a083015184820360a08601526147098282613f4f565b91505060c083015161471e60c0860182613e9f565b5060e083015161473160e0860182613e9f565b50610100830151614746610100860182613e9f565b5061012083015161475b610120860182613e9f565b508091505092915050565b60006020820190508181036000830152614780818461468c565b905092915050565b600081519050919050565b600082825260208201905092915050565b6000819050602082019050919050565b6000610140830160008301516147cd6000860182613e9f565b50602083015184820360208601526147e58282613f4f565b91505060408301516147fa6040860182613e9f565b50606083015161480d6060860182613e9f565b5060808301516148206080860182613e9f565b5060a083015161483360a0860182613e9f565b5060c083015161484660c0860182613e9f565b5060e083015184820360e086015261485e8282613f4f565b91505061010083015184820361010086015261487a8282613f4f565b915050610120830151614891610120860182613e9f565b508091505092915050565b60006148a883836147b4565b905092915050565b6000602082019050919050565b60006148c882614788565b6148d28185614793565b9350836020820285016148e4856147a4565b8060005b858110156149205784840389528151614901858261489c565b945061490c836148b0565b925060208a019950506001810190506148e8565b50829750879550505050505092915050565b6000602082019050818103600083015261494c81846148bd565b905092915050565b61495d81614339565b811461496857600080fd5b50565b60008135905061497a81614954565b92915050565b60008060006060848603121561499957614998613e06565b5b60006149a786828701613e31565b93505060206149b886828701613e31565b92505060406149c98682870161496b565b9150509250925092565b600081519050919050565b600082825260208201905092915050565b6000819050602082019050919050565b600061014083016000830151614a186000860182613e9f565b506020830151614a2b6020860182613ee0565b506040830151614a3e6040860182613ee0565b506060830151614a516060860182613e9f565b506080830151614a646080860182613e9f565b5060a083015184820360a0860152614a7c8282613f4f565b91505060c0830151614a9160c0860182613e9f565b5060e0830151614aa460e0860182613e9f565b50610100830151614ab9610100860182613e9f565b50610120830151614ace610120860182613e9f565b508091505092915050565b6000614ae583836149ff565b905092915050565b6000602082019050919050565b6000614b05826149d3565b614b0f81856149de565b935083602082028501614b21856149ef565b8060005b85811015614b5d5784840389528151614b3e8582614ad9565b9450614b4983614aed565b925060208a01995050600181019050614b25565b50829750879550505050505092915050565b60006020820190508181036000830152614b898184614afa565b905092915050565b60008060008060808587031215614bab57614baa613e06565b5b6000614bb987828801613e31565b9450506020614bca87828801613e31565b935050604085013567ffffffffffffffff811115614beb57614bea613e0b565b5b614bf787828801614476565b925050606085013567ffffffffffffffff811115614c1857614c17613e0b565b5b614c2487828801614476565b91505092959194509250565b600080600080600060a08688031215614c4c57614c4b613e06565b5b6000614c5a88828901613e31565b9550506020614c6b88828901613e31565b9450506040614c7c88828901614240565b935050606086013567ffffffffffffffff811115614c9d57614c9c613e0b565b5b614ca988828901614476565b925050608086013567ffffffffffffffff811115614cca57614cc9613e0b565b5b614cd688828901614476565b9150509295509295909350565b6000819050919050565b614cf681614ce3565b82525050565b6000602082019050614d116000830184614ced565b92915050565b600061014083016000830151614d306000860182613e9f565b5060208301518482036020860152614d488282613f4f565b9150506040830151614d5d6040860182613e9f565b506060830151614d706060860182613e9f565b506080830151614d836080860182613e9f565b5060a0830151614d9660a0860182613e9f565b5060c0830151614da960c0860182613e9f565b5060e083015184820360e0860152614dc18282613f4f565b915050610100830151848203610100860152614ddd8282613f4f565b915050610120830151614df4610120860182613e9f565b508091505092915050565b60006020820190508181036000830152614e198184614d17565b905092915050565b614e2a81614ce3565b8114614e3557600080fd5b50565b600081359050614e4781614e21565b92915050565b600060208284031215614e6357614e62613e06565b5b6000614e7184828501614e38565b91505092915050565b600082825260208201905092915050565b7f436c756220646f6573206e6f7420657869737400000000000000000000000000600082015250565b6000614ec1601383614e7a565b9150614ecc82614e8b565b602082019050919050565b60006020820190508181036000830152614ef081614eb4565b9050919050565b7f4e487b7100000000000000000000000000000000000000000000000000000000600052602260045260246000fd5b60006002820490506001821680614f3e57607f821691505b60208210811415614f5257614f51614ef7565b5b50919050565b7f4e487b7100000000000000000000000000000000000000000000000000000000600052603260045260246000fd5b7f4e487b7100000000000000000000000000000000000000000000000000000000600052601160045260246000fd5b6000614fc182613e10565b91507fffffffffffffffffffffffffffffffffffffffffffffffffffffffffffffffff821415614ff457614ff3614f87565b5b600182019050919050565b7f74686520636c756220646f6573206e6f74206578697374000000000000000000600082015250565b6000615035601783614e7a565b915061504082614fff565b602082019050919050565b6000602082019050818103600083015261506481615028565b9050919050565b7f596f7520617265206e6f742061206d656d626572206f662074686520636c7562600082015250565b60006150a1602083614e7a565b91506150ac8261506b565b602082019050919050565b600060208201905081810360008301526150d081615094565b9050919050565b60006150e282613e10565b91506150ed83613e10565b9250827fffffffffffffffffffffffffffffffffffffffffffffffffffffffffffffffff0382111561512257615121614f87565b5b828201905092915050565b61513681613ece565b82525050565b600060808201905061515160008301876142bc565b61515e602083018661512d565b61516b60408301856142bc565b61517860608301846142bc565b95945050505050565b7f5468652070726f706f73616c20646f6573206e6f742065786973740000000000600082015250565b60006151b7601b83614e7a565b91506151c282615181565b602082019050919050565b600060208201905081810360008301526151e6816151aa565b9050919050565b7f4f6e6c79207468652063726561746f72206f66207468652070726f706f73616c60008201527f2063616e20657865637574652069740000000000000000000000000000000000602082015250565b6000615249602f83614e7a565b9150615254826151ed565b604082019050919050565b600060208201905081810360008301526152788161523c565b9050919050565b7f54686520616d6f756e7420657863656564732074686520706f6f6c206f66207460008201527f686520636c756200000000000000000000000000000000000000000000000000602082015250565b60006152db602783614e7a565b91506152e68261527f565b604082019050919050565b6000602082019050818103600083015261530a816152ce565b9050919050565b7f5468652070726f706f73616c20686173206e6f74206265656e20617070726f7660008201527f6564000000000000000000000000000000000000000000000000000000000000602082015250565b600061536d602283614e7a565b915061537882615311565b604082019050919050565b6000602082019050818103600083015261539c81615360565b9050919050565b7f596f752063616e2774206265666f72652074686520566f74696e67206465616460008201527f6c696e6500000000000000000000000000000000000000000000000000000000602082015250565b60006153ff602483614e7a565b915061540a826153a3565b604082019050919050565b6000602082019050818103600083015261542e816153f2565b9050919050565b600061544082613e10565b915061544b83613e10565b92508282101561545e5761545d614f87565b5b828203905092915050565b7f596f75206d7573742073656e642045564d4f5320746f20636f6e74726962757460008201527f6500000000000000000000000000000000000000000000000000000000000000602082015250565b60006154c5602183614e7a565b91506154d082615469565b604082019050919050565b600060208201905081810360008301526154f4816154b8565b9050919050565b7f436c756220697320636c6f736564000000000000000000000000000000000000600082015250565b6000615531600e83614e7a565b915061553c826154fb565b602082019050919050565b6000602082019050818103600083015261556081615524565b9050919050565b7f566f74696e6720506572696f642046696e697368656400000000000000000000600082015250565b600061559d601683614e7a565b91506155a882615567565b602082019050919050565b600060208201905081810360008301526155cc81615590565b9050919050565b7f596f75206861766520616c726561647920766f746564206f6e2074686973207060008201527f726f706f73616c00000000000000000000000000000000000000000000000000602082015250565b600061562f602783614e7a565b915061563a826155d3565b604082019050919050565b6000602082019050818103600083015261565e81615622565b9050919050565b600081905092915050565b60008190508160005260206000209050919050565b6000815461569281614f26565b61569c8186615665565b945060018216600081146156b757600181146156c8576156fb565b60ff198316865281860193506156fb565b6156d185615670565b60005b838110156156f3578154818901526001820191506020810190506156d4565b838801955050505b50505092915050565b60006157108284615685565b915081905092915050565b7f5468652070726f706f73616c206973206e6f206c6f6e6765722070656e64696e60008201527f6700000000000000000000000000000000000000000000000000000000000000602082015250565b6000615777602183614e7a565b91506157828261571b565b604082019050919050565b600060208201905081810360008301526157a68161576a565b9050919050565b7f54686520636c756220646f6573206e6f74206578697374000000000000000000600082015250565b60006157e3601783614e7a565b91506157ee826157ad565b602082019050919050565b60006020820190508181036000830152615812816157d6565b9050919050565b7f54686520616d6f756e74206f66207468652070726f706f73616c206d7573742060008201527f62652067726561746572207468616e2030000000000000000000000000000000602082015250565b6000615875603183614e7a565b915061588082615819565b604082019050919050565b600060208201905081810360008301526158a481615868565b9050919050565b600069ffffffffffffffffffff82169050919050565b6158ca816158ab565b81146158d557600080fd5b50565b6000815190506158e7816158c1565b92915050565b6000815190506158fc81614e21565b92915050565b60008151905061591181613e1a565b92915050565b600080600080600060a0868803121561593357615932613e06565b5b6000615941888289016158d8565b9550506020615952888289016158ed565b945050604061596388828901615902565b935050606061597488828901615902565b9250506080615985888289016158d8565b9150509295509295909350565b7f54686520636c75622069732066756c6c2c206e6f206d6f7265206d656d62657260008201527f732063616e206265206164646564000000000000000000000000000000000000602082015250565b60006159ee602e83614e7a565b91506159f982615992565b604082019050919050565b60006020820190508181036000830152615a1d816159e1565b9050919050565b7f596f752061726520616c72656164792061206d656d626572206f66207468652060008201527f636c756200000000000000000000000000000000000000000000000000000000602082015250565b6000615a80602483614e7a565b9150615a8b82615a24565b604082019050919050565b60006020820190508181036000830152615aaf81615a73565b9050919050565b7f5468652070726f706f73616c206973206e6f7420696e2070656e64696e67207360008201527f7461747573000000000000000000000000000000000000000000000000000000602082015250565b6000615b12602583614e7a565b9150615b1d82615ab6565b604082019050919050565b60006020820190508181036000830152615b4181615b05565b9050919050565b7f4f6e6c79207468652070726f706f73616c2063726561746f722063616e20636c60008201527f6f7365207468652070726f706f73616c00000000000000000000000000000000602082015250565b6000615ba4603083614e7a565b9150615baf82615b48565b604082019050919050565b60006020820190508181036000830152615bd381615b97565b905091905056fea26469706673582212202f4b7464d24ad70227fb04915b4b76defa01b8c62980308a34b0bb2f133e057c64736f6c634300080a0033","opcodes":"PUSH1 0x80 PUSH1 0x40 MSTORE CALLVALUE DUP1 ISZERO PUSH2 0x10 JUMPI PUSH1 0x0 DUP1 REVERT JUMPDEST POP PUSH20 0xAC3E04999AEFE44D508CB3F9B972B0ECD07C1EFB PUSH1 0x0 DUP1 PUSH2 0x100 EXP DUP2 SLOAD DUP2 PUSH20 0xFFFFFFFFFFFFFFFFFFFFFFFFFFFFFFFFFFFFFFFF MUL NOT AND SWAP1 DUP4 PUSH20 0xFFFFFFFFFFFFFFFFFFFFFFFFFFFFFFFFFFFFFFFF AND MUL OR SWAP1 SSTORE POP PUSH1 0x0 PUSH1 0x4 DUP2 SWAP1 SSTORE POP PUSH1 0x0 PUSH1 0x5 DUP2 SWAP1 SSTORE POP PUSH2 0x5C10 DUP1 PUSH3 0x85 PUSH1 0x0 CODECOPY PUSH1 0x0 RETURN INVALID PUSH1 0x80 PUSH1 0x40 MSTORE PUSH1 0x4 CALLDATASIZE LT PUSH2 0x23B JUMPI PUSH1 0x0 CALLDATALOAD PUSH1 0xE0 SHR DUP1 PUSH4 0x647E598B GT PUSH2 0x12E JUMPI DUP1 PUSH4 0xC2BA2756 GT PUSH2 0xAB JUMPI DUP1 PUSH4 0xE7613EA8 GT PUSH2 0x6F JUMPI DUP1 PUSH4 0xE7613EA8 EQ PUSH2 0x912 JUMPI DUP1 PUSH4 0xE7DDD0DE EQ PUSH2 0x93B JUMPI DUP1 PUSH4 0xEEC8E0DB EQ PUSH2 0x978 JUMPI DUP1 PUSH4 0xF9F2BB3C EQ PUSH2 0x9B5 JUMPI DUP1 PUSH4 0xFB0E2776 EQ PUSH2 0x9F2 JUMPI PUSH2 0x23B JUMP JUMPDEST DUP1 PUSH4 0xC2BA2756 EQ PUSH2 0x807 JUMPI DUP1 PUSH4 0xC3741FED EQ PUSH2 0x844 JUMPI DUP1 PUSH4 0xC4670878 EQ PUSH2 0x881 JUMPI DUP1 PUSH4 0xCC80F6F3 EQ PUSH2 0x8BE JUMPI DUP1 PUSH4 0xE1542742 EQ PUSH2 0x8E9 JUMPI PUSH2 0x23B JUMP JUMPDEST DUP1 PUSH4 0x9D9087B9 GT PUSH2 0xF2 JUMPI DUP1 PUSH4 0x9D9087B9 EQ PUSH2 0x70E JUMPI DUP1 PUSH4 0xA4C22943 EQ PUSH2 0x737 JUMPI DUP1 PUSH4 0xAB7CA348 EQ PUSH2 0x762 JUMPI DUP1 PUSH4 0xB4723D44 EQ PUSH2 0x79F JUMPI DUP1 PUSH4 0xBEA4DFB5 EQ PUSH2 0x7DC JUMPI PUSH2 0x23B JUMP JUMPDEST DUP1 PUSH4 0x647E598B EQ PUSH2 0x619 JUMPI DUP1 PUSH4 0x6764FD48 EQ PUSH2 0x642 JUMPI DUP1 PUSH4 0x82B7661B EQ PUSH2 0x67F JUMPI DUP1 PUSH4 0x890E2456 EQ PUSH2 0x6A8 JUMPI DUP1 PUSH4 0x89972A32 EQ PUSH2 0x6E5 JUMPI PUSH2 0x23B JUMP JUMPDEST DUP1 PUSH4 0x34FA3D83 GT PUSH2 0x1BC JUMPI DUP1 PUSH4 0x4D7F75C3 GT PUSH2 0x180 JUMPI DUP1 PUSH4 0x4D7F75C3 EQ PUSH2 0x534 JUMPI DUP1 PUSH4 0x549710BE EQ PUSH2 0x55D JUMPI DUP1 PUSH4 0x54A2E233 EQ PUSH2 0x588 JUMPI DUP1 PUSH4 0x5B2ADE7C EQ PUSH2 0x5B1 JUMPI DUP1 PUSH4 0x5FF847FB EQ PUSH2 0x5EE JUMPI PUSH2 0x23B JUMP JUMPDEST DUP1 PUSH4 0x34FA3D83 EQ PUSH2 0x424 JUMPI DUP1 PUSH4 0x35A1930F EQ PUSH2 0x461 JUMPI DUP1 PUSH4 0x3F7A6A82 EQ PUSH2 0x49E JUMPI DUP1 PUSH4 0x47F83C8F EQ PUSH2 0x4DB JUMPI DUP1 PUSH4 0x487598CA EQ PUSH2 0x4F7 JUMPI PUSH2 0x23B JUMP JUMPDEST DUP1 PUSH4 0x1155BDFD GT PUSH2 0x203 JUMPI DUP1 PUSH4 0x1155BDFD EQ PUSH2 0x349 JUMPI DUP1 PUSH4 0x1AB76712 EQ PUSH2 0x386 JUMPI DUP1 PUSH4 0x2443C344 EQ PUSH2 0x3A2 JUMPI DUP1 PUSH4 0x27449315 EQ PUSH2 0x3DF JUMPI DUP1 PUSH4 0x288509B4 EQ PUSH2 0x408 JUMPI PUSH2 0x23B JUMP JUMPDEST DUP1 PUSH4 0x58694A9 EQ PUSH2 0x240 JUMPI DUP1 PUSH4 0x5F0EF7C EQ PUSH2 0x27D JUMPI DUP1 PUSH4 0xE46D214 EQ PUSH2 0x2A6 JUMPI DUP1 PUSH4 0xEE29404 EQ PUSH2 0x2E3 JUMPI DUP1 PUSH4 0x1063FD19 EQ PUSH2 0x320 JUMPI JUMPDEST PUSH1 0x0 DUP1 REVERT JUMPDEST CALLVALUE DUP1 ISZERO PUSH2 0x24C JUMPI PUSH1 0x0 DUP1 REVERT JUMPDEST POP PUSH2 0x267 PUSH1 0x4 DUP1 CALLDATASIZE SUB DUP2 ADD SWAP1 PUSH2 0x262 SWAP2 SWAP1 PUSH2 0x3E46 JUMP JUMPDEST PUSH2 0xA1D JUMP JUMPDEST PUSH1 0x40 MLOAD PUSH2 0x274 SWAP2 SWAP1 PUSH2 0x41A0 JUMP JUMPDEST PUSH1 0x40 MLOAD DUP1 SWAP2 SUB SWAP1 RETURN JUMPDEST CALLVALUE DUP1 ISZERO PUSH2 0x289 JUMPI PUSH1 0x0 DUP1 REVERT JUMPDEST POP PUSH2 0x2A4 PUSH1 0x4 DUP1 CALLDATASIZE SUB DUP2 ADD SWAP1 PUSH2 0x29F SWAP2 SWAP1 PUSH2 0x41C2 JUMP JUMPDEST PUSH2 0x1020 JUMP JUMPDEST STOP JUMPDEST CALLVALUE DUP1 ISZERO PUSH2 0x2B2 JUMPI PUSH1 0x0 DUP1 REVERT JUMPDEST POP PUSH2 0x2CD PUSH1 0x4 DUP1 CALLDATASIZE SUB DUP2 ADD SWAP1 PUSH2 0x2C8 SWAP2 SWAP1 PUSH2 0x4255 JUMP JUMPDEST PUSH2 0x1064 JUMP JUMPDEST PUSH1 0x40 MLOAD PUSH2 0x2DA SWAP2 SWAP1 PUSH2 0x42CB JUMP JUMPDEST PUSH1 0x40 MLOAD DUP1 SWAP2 SUB SWAP1 RETURN JUMPDEST CALLVALUE DUP1 ISZERO PUSH2 0x2EF JUMPI PUSH1 0x0 DUP1 REVERT JUMPDEST POP PUSH2 0x30A PUSH1 0x4 DUP1 CALLDATASIZE SUB DUP2 ADD SWAP1 PUSH2 0x305 SWAP2 SWAP1 PUSH2 0x42E6 JUMP JUMPDEST PUSH2 0x12F6 JUMP JUMPDEST PUSH1 0x40 MLOAD PUSH2 0x317 SWAP2 SWAP1 PUSH2 0x4354 JUMP JUMPDEST PUSH1 0x40 MLOAD DUP1 SWAP2 SUB SWAP1 RETURN JUMPDEST CALLVALUE DUP1 ISZERO PUSH2 0x32C JUMPI PUSH1 0x0 DUP1 REVERT JUMPDEST POP PUSH2 0x347 PUSH1 0x4 DUP1 CALLDATASIZE SUB DUP2 ADD SWAP1 PUSH2 0x342 SWAP2 SWAP1 PUSH2 0x44A4 JUMP JUMPDEST PUSH2 0x1376 JUMP JUMPDEST STOP JUMPDEST CALLVALUE DUP1 ISZERO PUSH2 0x355 JUMPI PUSH1 0x0 DUP1 REVERT JUMPDEST POP PUSH2 0x370 PUSH1 0x4 DUP1 CALLDATASIZE SUB DUP2 ADD SWAP1 PUSH2 0x36B SWAP2 SWAP1 PUSH2 0x4527 JUMP JUMPDEST PUSH2 0x13CA JUMP JUMPDEST PUSH1 0x40 MLOAD PUSH2 0x37D SWAP2 SWAP1 PUSH2 0x4354 JUMP JUMPDEST PUSH1 0x40 MLOAD DUP1 SWAP2 SUB SWAP1 RETURN JUMPDEST PUSH2 0x3A0 PUSH1 0x4 DUP1 CALLDATASIZE SUB DUP2 ADD SWAP1 PUSH2 0x39B SWAP2 SWAP1 PUSH2 0x4527 JUMP JUMPDEST PUSH2 0x1406 JUMP JUMPDEST STOP JUMPDEST CALLVALUE DUP1 ISZERO PUSH2 0x3AE JUMPI PUSH1 0x0 DUP1 REVERT JUMPDEST POP PUSH2 0x3C9 PUSH1 0x4 DUP1 CALLDATASIZE SUB DUP2 ADD SWAP1 PUSH2 0x3C4 SWAP2 SWAP1 PUSH2 0x4567 JUMP JUMPDEST PUSH2 0x171A JUMP JUMPDEST PUSH1 0x40 MLOAD PUSH2 0x3D6 SWAP2 SWAP1 PUSH2 0x4354 JUMP JUMPDEST PUSH1 0x40 MLOAD DUP1 SWAP2 SUB SWAP1 RETURN JUMPDEST CALLVALUE DUP1 ISZERO PUSH2 0x3EB JUMPI PUSH1 0x0 DUP1 REVERT JUMPDEST POP PUSH2 0x406 PUSH1 0x4 DUP1 CALLDATASIZE SUB DUP2 ADD SWAP1 PUSH2 0x401 SWAP2 SWAP1 PUSH2 0x3E46 JUMP JUMPDEST PUSH2 0x1785 JUMP JUMPDEST STOP JUMPDEST PUSH2 0x422 PUSH1 0x4 DUP1 CALLDATASIZE SUB DUP2 ADD SWAP1 PUSH2 0x41D SWAP2 SWAP1 PUSH2 0x3E46 JUMP JUMPDEST PUSH2 0x178F JUMP JUMPDEST STOP JUMPDEST CALLVALUE DUP1 ISZERO PUSH2 0x430 JUMPI PUSH1 0x0 DUP1 REVERT JUMPDEST POP PUSH2 0x44B PUSH1 0x4 DUP1 CALLDATASIZE SUB DUP2 ADD SWAP1 PUSH2 0x446 SWAP2 SWAP1 PUSH2 0x45A7 JUMP JUMPDEST PUSH2 0x1A7F JUMP JUMPDEST PUSH1 0x40 MLOAD PUSH2 0x458 SWAP2 SWAP1 PUSH2 0x4354 JUMP JUMPDEST PUSH1 0x40 MLOAD DUP1 SWAP2 SUB SWAP1 RETURN JUMPDEST CALLVALUE DUP1 ISZERO PUSH2 0x46D JUMPI PUSH1 0x0 DUP1 REVERT JUMPDEST POP PUSH2 0x488 PUSH1 0x4 DUP1 CALLDATASIZE SUB DUP2 ADD SWAP1 PUSH2 0x483 SWAP2 SWAP1 PUSH2 0x45E7 JUMP JUMPDEST PUSH2 0x1B2F JUMP JUMPDEST PUSH1 0x40 MLOAD PUSH2 0x495 SWAP2 SWAP1 PUSH2 0x42CB JUMP JUMPDEST PUSH1 0x40 MLOAD DUP1 SWAP2 SUB SWAP1 RETURN JUMPDEST CALLVALUE DUP1 ISZERO PUSH2 0x4AA JUMPI PUSH1 0x0 DUP1 REVERT JUMPDEST POP PUSH2 0x4C5 PUSH1 0x4 DUP1 CALLDATASIZE SUB DUP2 ADD SWAP1 PUSH2 0x4C0 SWAP2 SWAP1 PUSH2 0x465F JUMP JUMPDEST PUSH2 0x1CFF JUMP JUMPDEST PUSH1 0x40 MLOAD PUSH2 0x4D2 SWAP2 SWAP1 PUSH2 0x4354 JUMP JUMPDEST PUSH1 0x40 MLOAD DUP1 SWAP2 SUB SWAP1 RETURN JUMPDEST PUSH2 0x4F5 PUSH1 0x4 DUP1 CALLDATASIZE SUB DUP2 ADD SWAP1 PUSH2 0x4F0 SWAP2 SWAP1 PUSH2 0x4527 JUMP JUMPDEST PUSH2 0x1D1F JUMP JUMPDEST STOP JUMPDEST CALLVALUE DUP1 ISZERO PUSH2 0x503 JUMPI PUSH1 0x0 DUP1 REVERT JUMPDEST POP PUSH2 0x51E PUSH1 0x4 DUP1 CALLDATASIZE SUB DUP2 ADD SWAP1 PUSH2 0x519 SWAP2 SWAP1 PUSH2 0x4527 JUMP JUMPDEST PUSH2 0x1E86 JUMP JUMPDEST PUSH1 0x40 MLOAD PUSH2 0x52B SWAP2 SWAP1 PUSH2 0x4766 JUMP JUMPDEST PUSH1 0x40 MLOAD DUP1 SWAP2 SUB SWAP1 RETURN JUMPDEST CALLVALUE DUP1 ISZERO PUSH2 0x540 JUMPI PUSH1 0x0 DUP1 REVERT JUMPDEST POP PUSH2 0x55B PUSH1 0x4 DUP1 CALLDATASIZE SUB DUP2 ADD SWAP1 PUSH2 0x556 SWAP2 SWAP1 PUSH2 0x3E46 JUMP JUMPDEST PUSH2 0x20BB JUMP JUMPDEST STOP JUMPDEST CALLVALUE DUP1 ISZERO PUSH2 0x569 JUMPI PUSH1 0x0 DUP1 REVERT JUMPDEST POP PUSH2 0x572 PUSH2 0x21F6 JUMP JUMPDEST PUSH1 0x40 MLOAD PUSH2 0x57F SWAP2 SWAP1 PUSH2 0x4932 JUMP JUMPDEST PUSH1 0x40 MLOAD DUP1 SWAP2 SUB SWAP1 RETURN JUMPDEST CALLVALUE DUP1 ISZERO PUSH2 0x594 JUMPI PUSH1 0x0 DUP1 REVERT JUMPDEST POP PUSH2 0x5AF PUSH1 0x4 DUP1 CALLDATASIZE SUB DUP2 ADD SWAP1 PUSH2 0x5AA SWAP2 SWAP1 PUSH2 0x4980 JUMP JUMPDEST PUSH2 0x24DD JUMP JUMPDEST STOP JUMPDEST CALLVALUE DUP1 ISZERO PUSH2 0x5BD JUMPI PUSH1 0x0 DUP1 REVERT JUMPDEST POP PUSH2 0x5D8 PUSH1 0x4 DUP1 CALLDATASIZE SUB DUP2 ADD SWAP1 PUSH2 0x5D3 SWAP2 SWAP1 PUSH2 0x3E46 JUMP JUMPDEST PUSH2 0x275C JUMP JUMPDEST PUSH1 0x40 MLOAD PUSH2 0x5E5 SWAP2 SWAP1 PUSH2 0x4B6F JUMP JUMPDEST PUSH1 0x40 MLOAD DUP1 SWAP2 SUB SWAP1 RETURN JUMPDEST CALLVALUE DUP1 ISZERO PUSH2 0x5FA JUMPI PUSH1 0x0 DUP1 REVERT JUMPDEST POP PUSH2 0x603 PUSH2 0x29F3 JUMP JUMPDEST PUSH1 0x40 MLOAD PUSH2 0x610 SWAP2 SWAP1 PUSH2 0x4932 JUMP JUMPDEST PUSH1 0x40 MLOAD DUP1 SWAP2 SUB SWAP1 RETURN JUMPDEST CALLVALUE DUP1 ISZERO PUSH2 0x625 JUMPI PUSH1 0x0 DUP1 REVERT JUMPDEST POP PUSH2 0x640 PUSH1 0x4 DUP1 CALLDATASIZE SUB DUP2 ADD SWAP1 PUSH2 0x63B SWAP2 SWAP1 PUSH2 0x4B91 JUMP JUMPDEST PUSH2 0x2CBF JUMP JUMPDEST STOP JUMPDEST CALLVALUE DUP1 ISZERO PUSH2 0x64E JUMPI PUSH1 0x0 DUP1 REVERT JUMPDEST POP PUSH2 0x669 PUSH1 0x4 DUP1 CALLDATASIZE SUB DUP2 ADD SWAP1 PUSH2 0x664 SWAP2 SWAP1 PUSH2 0x3E46 JUMP JUMPDEST PUSH2 0x2D23 JUMP JUMPDEST PUSH1 0x40 MLOAD PUSH2 0x676 SWAP2 SWAP1 PUSH2 0x4354 JUMP JUMPDEST PUSH1 0x40 MLOAD DUP1 SWAP2 SUB SWAP1 RETURN JUMPDEST CALLVALUE DUP1 ISZERO PUSH2 0x68B JUMPI PUSH1 0x0 DUP1 REVERT JUMPDEST POP PUSH2 0x6A6 PUSH1 0x4 DUP1 CALLDATASIZE SUB DUP2 ADD SWAP1 PUSH2 0x6A1 SWAP2 SWAP1 PUSH2 0x3E46 JUMP JUMPDEST PUSH2 0x2D46 JUMP JUMPDEST STOP JUMPDEST CALLVALUE DUP1 ISZERO PUSH2 0x6B4 JUMPI PUSH1 0x0 DUP1 REVERT JUMPDEST POP PUSH2 0x6CF PUSH1 0x4 DUP1 CALLDATASIZE SUB DUP2 ADD SWAP1 PUSH2 0x6CA SWAP2 SWAP1 PUSH2 0x45A7 JUMP JUMPDEST PUSH2 0x2DF7 JUMP JUMPDEST PUSH1 0x40 MLOAD PUSH2 0x6DC SWAP2 SWAP1 PUSH2 0x42CB JUMP JUMPDEST PUSH1 0x40 MLOAD DUP1 SWAP2 SUB SWAP1 RETURN JUMPDEST CALLVALUE DUP1 ISZERO PUSH2 0x6F1 JUMPI PUSH1 0x0 DUP1 REVERT JUMPDEST POP PUSH2 0x70C PUSH1 0x4 DUP1 CALLDATASIZE SUB DUP2 ADD SWAP1 PUSH2 0x707 SWAP2 SWAP1 PUSH2 0x4C30 JUMP JUMPDEST PUSH2 0x2E63 JUMP JUMPDEST STOP JUMPDEST CALLVALUE DUP1 ISZERO PUSH2 0x71A JUMPI PUSH1 0x0 DUP1 REVERT JUMPDEST POP PUSH2 0x735 PUSH1 0x4 DUP1 CALLDATASIZE SUB DUP2 ADD SWAP1 PUSH2 0x730 SWAP2 SWAP1 PUSH2 0x4527 JUMP JUMPDEST PUSH2 0x322E JUMP JUMPDEST STOP JUMPDEST CALLVALUE DUP1 ISZERO PUSH2 0x743 JUMPI PUSH1 0x0 DUP1 REVERT JUMPDEST POP PUSH2 0x74C PUSH2 0x32AC JUMP JUMPDEST PUSH1 0x40 MLOAD PUSH2 0x759 SWAP2 SWAP1 PUSH2 0x42CB JUMP JUMPDEST PUSH1 0x40 MLOAD DUP1 SWAP2 SUB SWAP1 RETURN JUMPDEST CALLVALUE DUP1 ISZERO PUSH2 0x76E JUMPI PUSH1 0x0 DUP1 REVERT JUMPDEST POP PUSH2 0x789 PUSH1 0x4 DUP1 CALLDATASIZE SUB DUP2 ADD SWAP1 PUSH2 0x784 SWAP2 SWAP1 PUSH2 0x4527 JUMP JUMPDEST PUSH2 0x32B2 JUMP JUMPDEST PUSH1 0x40 MLOAD PUSH2 0x796 SWAP2 SWAP1 PUSH2 0x4354 JUMP JUMPDEST PUSH1 0x40 MLOAD DUP1 SWAP2 SUB SWAP1 RETURN JUMPDEST CALLVALUE DUP1 ISZERO PUSH2 0x7AB JUMPI PUSH1 0x0 DUP1 REVERT JUMPDEST POP PUSH2 0x7C6 PUSH1 0x4 DUP1 CALLDATASIZE SUB DUP2 ADD SWAP1 PUSH2 0x7C1 SWAP2 SWAP1 PUSH2 0x465F JUMP JUMPDEST PUSH2 0x32EE JUMP JUMPDEST PUSH1 0x40 MLOAD PUSH2 0x7D3 SWAP2 SWAP1 PUSH2 0x4354 JUMP JUMPDEST PUSH1 0x40 MLOAD DUP1 SWAP2 SUB SWAP1 RETURN JUMPDEST CALLVALUE DUP1 ISZERO PUSH2 0x7E8 JUMPI PUSH1 0x0 DUP1 REVERT JUMPDEST POP PUSH2 0x7F1 PUSH2 0x3344 JUMP JUMPDEST PUSH1 0x40 MLOAD PUSH2 0x7FE SWAP2 SWAP1 PUSH2 0x4CFC JUMP JUMPDEST PUSH1 0x40 MLOAD DUP1 SWAP2 SUB SWAP1 RETURN JUMPDEST CALLVALUE DUP1 ISZERO PUSH2 0x813 JUMPI PUSH1 0x0 DUP1 REVERT JUMPDEST POP PUSH2 0x82E PUSH1 0x4 DUP1 CALLDATASIZE SUB DUP2 ADD SWAP1 PUSH2 0x829 SWAP2 SWAP1 PUSH2 0x4527 JUMP JUMPDEST PUSH2 0x33E3 JUMP JUMPDEST PUSH1 0x40 MLOAD PUSH2 0x83B SWAP2 SWAP1 PUSH2 0x4354 JUMP JUMPDEST PUSH1 0x40 MLOAD DUP1 SWAP2 SUB SWAP1 RETURN JUMPDEST CALLVALUE DUP1 ISZERO PUSH2 0x850 JUMPI PUSH1 0x0 DUP1 REVERT JUMPDEST POP PUSH2 0x86B PUSH1 0x4 DUP1 CALLDATASIZE SUB DUP2 ADD SWAP1 PUSH2 0x866 SWAP2 SWAP1 PUSH2 0x3E46 JUMP JUMPDEST PUSH2 0x341B JUMP JUMPDEST PUSH1 0x40 MLOAD PUSH2 0x878 SWAP2 SWAP1 PUSH2 0x4DFF JUMP JUMPDEST PUSH1 0x40 MLOAD DUP1 SWAP2 SUB SWAP1 RETURN JUMPDEST CALLVALUE DUP1 ISZERO PUSH2 0x88D JUMPI PUSH1 0x0 DUP1 REVERT JUMPDEST POP PUSH2 0x8A8 PUSH1 0x4 DUP1 CALLDATASIZE SUB DUP2 ADD SWAP1 PUSH2 0x8A3 SWAP2 SWAP1 PUSH2 0x3E46 JUMP JUMPDEST PUSH2 0x3696 JUMP JUMPDEST PUSH1 0x40 MLOAD PUSH2 0x8B5 SWAP2 SWAP1 PUSH2 0x4354 JUMP JUMPDEST PUSH1 0x40 MLOAD DUP1 SWAP2 SUB SWAP1 RETURN JUMPDEST CALLVALUE DUP1 ISZERO PUSH2 0x8CA JUMPI PUSH1 0x0 DUP1 REVERT JUMPDEST POP PUSH2 0x8D3 PUSH2 0x36B9 JUMP JUMPDEST PUSH1 0x40 MLOAD PUSH2 0x8E0 SWAP2 SWAP1 PUSH2 0x42CB JUMP JUMPDEST PUSH1 0x40 MLOAD DUP1 SWAP2 SUB SWAP1 RETURN JUMPDEST CALLVALUE DUP1 ISZERO PUSH2 0x8F5 JUMPI PUSH1 0x0 DUP1 REVERT JUMPDEST POP PUSH2 0x910 PUSH1 0x4 DUP1 CALLDATASIZE SUB DUP2 ADD SWAP1 PUSH2 0x90B SWAP2 SWAP1 PUSH2 0x3E46 JUMP JUMPDEST PUSH2 0x36C3 JUMP JUMPDEST STOP JUMPDEST CALLVALUE DUP1 ISZERO PUSH2 0x91E JUMPI PUSH1 0x0 DUP1 REVERT JUMPDEST POP PUSH2 0x939 PUSH1 0x4 DUP1 CALLDATASIZE SUB DUP2 ADD SWAP1 PUSH2 0x934 SWAP2 SWAP1 PUSH2 0x4527 JUMP JUMPDEST PUSH2 0x389B JUMP JUMPDEST STOP JUMPDEST CALLVALUE DUP1 ISZERO PUSH2 0x947 JUMPI PUSH1 0x0 DUP1 REVERT JUMPDEST POP PUSH2 0x962 PUSH1 0x4 DUP1 CALLDATASIZE SUB DUP2 ADD SWAP1 PUSH2 0x95D SWAP2 SWAP1 PUSH2 0x4E4D JUMP JUMPDEST PUSH2 0x3AD3 JUMP JUMPDEST PUSH1 0x40 MLOAD PUSH2 0x96F SWAP2 SWAP1 PUSH2 0x4CFC JUMP JUMPDEST PUSH1 0x40 MLOAD DUP1 SWAP2 SUB SWAP1 RETURN JUMPDEST CALLVALUE DUP1 ISZERO PUSH2 0x984 JUMPI PUSH1 0x0 DUP1 REVERT JUMPDEST POP PUSH2 0x99F PUSH1 0x4 DUP1 CALLDATASIZE SUB DUP2 ADD SWAP1 PUSH2 0x99A SWAP2 SWAP1 PUSH2 0x4527 JUMP JUMPDEST PUSH2 0x3AEB JUMP JUMPDEST PUSH1 0x40 MLOAD PUSH2 0x9AC SWAP2 SWAP1 PUSH2 0x4354 JUMP JUMPDEST PUSH1 0x40 MLOAD DUP1 SWAP2 SUB SWAP1 RETURN JUMPDEST CALLVALUE DUP1 ISZERO PUSH2 0x9C1 JUMPI PUSH1 0x0 DUP1 REVERT JUMPDEST POP PUSH2 0x9DC PUSH1 0x4 DUP1 CALLDATASIZE SUB DUP2 ADD SWAP1 PUSH2 0x9D7 SWAP2 SWAP1 PUSH2 0x3E46 JUMP JUMPDEST PUSH2 0x3B23 JUMP JUMPDEST PUSH1 0x40 MLOAD PUSH2 0x9E9 SWAP2 SWAP1 PUSH2 0x4354 JUMP JUMPDEST PUSH1 0x40 MLOAD DUP1 SWAP2 SUB SWAP1 RETURN JUMPDEST CALLVALUE DUP1 ISZERO PUSH2 0x9FE JUMPI PUSH1 0x0 DUP1 REVERT JUMPDEST POP PUSH2 0xA07 PUSH2 0x3B4A JUMP JUMPDEST PUSH1 0x40 MLOAD PUSH2 0xA14 SWAP2 SWAP1 PUSH2 0x42CB JUMP JUMPDEST PUSH1 0x40 MLOAD DUP1 SWAP2 SUB SWAP1 RETURN JUMPDEST PUSH1 0x60 PUSH2 0xA28 DUP3 PUSH2 0x2D23 JUMP JUMPDEST PUSH2 0xA67 JUMPI PUSH1 0x40 MLOAD PUSH32 0x8C379A000000000000000000000000000000000000000000000000000000000 DUP2 MSTORE PUSH1 0x4 ADD PUSH2 0xA5E SWAP1 PUSH2 0x4ED7 JUMP JUMPDEST PUSH1 0x40 MLOAD DUP1 SWAP2 SUB SWAP1 REVERT JUMPDEST PUSH1 0x0 PUSH1 0x2 PUSH1 0x0 DUP5 DUP2 MSTORE PUSH1 0x20 ADD SWAP1 DUP2 MSTORE PUSH1 0x20 ADD PUSH1 0x0 KECCAK256 SWAP1 POP PUSH1 0x0 DUP2 PUSH1 0x9 ADD SLOAD PUSH8 0xFFFFFFFFFFFFFFFF DUP2 GT ISZERO PUSH2 0xA9E JUMPI PUSH2 0xA9D PUSH2 0x4379 JUMP JUMPDEST JUMPDEST PUSH1 0x40 MLOAD SWAP1 DUP1 DUP3 MSTORE DUP1 PUSH1 0x20 MUL PUSH1 0x20 ADD DUP3 ADD PUSH1 0x40 MSTORE DUP1 ISZERO PUSH2 0xAD7 JUMPI DUP2 PUSH1 0x20 ADD JUMPDEST PUSH2 0xAC4 PUSH2 0x3BDE JUMP JUMPDEST DUP2 MSTORE PUSH1 0x20 ADD SWAP1 PUSH1 0x1 SWAP1 SUB SWAP1 DUP2 PUSH2 0xABC JUMPI SWAP1 POP JUMPDEST POP SWAP1 POP PUSH1 0x0 DUP1 PUSH1 0x1 SWAP1 POP JUMPDEST DUP4 PUSH1 0x9 ADD SLOAD DUP2 GT PUSH2 0x1014 JUMPI PUSH1 0x0 DUP5 PUSH1 0x7 ADD PUSH1 0x0 DUP4 DUP2 MSTORE PUSH1 0x20 ADD SWAP1 DUP2 MSTORE PUSH1 0x20 ADD PUSH1 0x0 KECCAK256 SWAP1 POP PUSH1 0x40 MLOAD DUP1 PUSH2 0x200 ADD PUSH1 0x40 MSTORE DUP1 DUP3 PUSH1 0x0 ADD SLOAD DUP2 MSTORE PUSH1 0x20 ADD DUP3 PUSH1 0x1 ADD PUSH1 0x0 SWAP1 SLOAD SWAP1 PUSH2 0x100 EXP SWAP1 DIV PUSH20 0xFFFFFFFFFFFFFFFFFFFFFFFFFFFFFFFFFFFFFFFF AND PUSH20 0xFFFFFFFFFFFFFFFFFFFFFFFFFFFFFFFFFFFFFFFF AND DUP2 MSTORE PUSH1 0x20 ADD DUP3 PUSH1 0x2 ADD SLOAD DUP2 MSTORE PUSH1 0x20 ADD DUP3 PUSH1 0x3 ADD PUSH1 0x0 SWAP1 SLOAD SWAP1 PUSH2 0x100 EXP SWAP1 DIV PUSH20 0xFFFFFFFFFFFFFFFFFFFFFFFFFFFFFFFFFFFFFFFF AND PUSH20 0xFFFFFFFFFFFFFFFFFFFFFFFFFFFFFFFFFFFFFFFF AND DUP2 MSTORE PUSH1 0x20 ADD DUP3 PUSH1 0x4 ADD DUP1 SLOAD PUSH2 0xBB5 SWAP1 PUSH2 0x4F26 JUMP JUMPDEST DUP1 PUSH1 0x1F ADD PUSH1 0x20 DUP1 SWAP2 DIV MUL PUSH1 0x20 ADD PUSH1 0x40 MLOAD SWAP1 DUP2 ADD PUSH1 0x40 MSTORE DUP1 SWAP3 SWAP2 SWAP1 DUP2 DUP2 MSTORE PUSH1 0x20 ADD DUP3 DUP1 SLOAD PUSH2 0xBE1 SWAP1 PUSH2 0x4F26 JUMP JUMPDEST DUP1 ISZERO PUSH2 0xC2E JUMPI DUP1 PUSH1 0x1F LT PUSH2 0xC03 JUMPI PUSH2 0x100 DUP1 DUP4 SLOAD DIV MUL DUP4 MSTORE SWAP2 PUSH1 0x20 ADD SWAP2 PUSH2 0xC2E JUMP JUMPDEST DUP3 ADD SWAP2 SWAP1 PUSH1 0x0 MSTORE PUSH1 0x20 PUSH1 0x0 KECCAK256 SWAP1 JUMPDEST DUP2 SLOAD DUP2 MSTORE SWAP1 PUSH1 0x1 ADD SWAP1 PUSH1 0x20 ADD DUP1 DUP4 GT PUSH2 0xC11 JUMPI DUP3 SWAP1 SUB PUSH1 0x1F AND DUP3 ADD SWAP2 JUMPDEST POP POP POP POP POP DUP2 MSTORE PUSH1 0x20 ADD DUP3 PUSH1 0x5 ADD DUP1 SLOAD PUSH2 0xC47 SWAP1 PUSH2 0x4F26 JUMP JUMPDEST DUP1 PUSH1 0x1F ADD PUSH1 0x20 DUP1 SWAP2 DIV MUL PUSH1 0x20 ADD PUSH1 0x40 MLOAD SWAP1 DUP2 ADD PUSH1 0x40 MSTORE DUP1 SWAP3 SWAP2 SWAP1 DUP2 DUP2 MSTORE PUSH1 0x20 ADD DUP3 DUP1 SLOAD PUSH2 0xC73 SWAP1 PUSH2 0x4F26 JUMP JUMPDEST DUP1 ISZERO PUSH2 0xCC0 JUMPI DUP1 PUSH1 0x1F LT PUSH2 0xC95 JUMPI PUSH2 0x100 DUP1 DUP4 SLOAD DIV MUL DUP4 MSTORE SWAP2 PUSH1 0x20 ADD SWAP2 PUSH2 0xCC0 JUMP JUMPDEST DUP3 ADD SWAP2 SWAP1 PUSH1 0x0 MSTORE PUSH1 0x20 PUSH1 0x0 KECCAK256 SWAP1 JUMPDEST DUP2 SLOAD DUP2 MSTORE SWAP1 PUSH1 0x1 ADD SWAP1 PUSH1 0x20 ADD DUP1 DUP4 GT PUSH2 0xCA3 JUMPI DUP3 SWAP1 SUB PUSH1 0x1F AND DUP3 ADD SWAP2 JUMPDEST POP POP POP POP POP DUP2 MSTORE PUSH1 0x20 ADD DUP3 PUSH1 0x6 ADD SLOAD DUP2 MSTORE PUSH1 0x20 ADD DUP3 PUSH1 0x7 ADD SLOAD DUP2 MSTORE PUSH1 0x20 ADD DUP3 PUSH1 0x8 ADD SLOAD DUP2 MSTORE PUSH1 0x20 ADD DUP3 PUSH1 0x9 ADD SLOAD DUP2 MSTORE PUSH1 0x20 ADD DUP3 PUSH1 0xA ADD DUP1 SLOAD PUSH2 0xD01 SWAP1 PUSH2 0x4F26 JUMP JUMPDEST DUP1 PUSH1 0x1F ADD PUSH1 0x20 DUP1 SWAP2 DIV MUL PUSH1 0x20 ADD PUSH1 0x40 MLOAD SWAP1 DUP2 ADD PUSH1 0x40 MSTORE DUP1 SWAP3 SWAP2 SWAP1 DUP2 DUP2 MSTORE PUSH1 0x20 ADD DUP3 DUP1 SLOAD PUSH2 0xD2D SWAP1 PUSH2 0x4F26 JUMP JUMPDEST DUP1 ISZERO PUSH2 0xD7A JUMPI DUP1 PUSH1 0x1F LT PUSH2 0xD4F JUMPI PUSH2 0x100 DUP1 DUP4 SLOAD DIV MUL DUP4 MSTORE SWAP2 PUSH1 0x20 ADD SWAP2 PUSH2 0xD7A JUMP JUMPDEST DUP3 ADD SWAP2 SWAP1 PUSH1 0x0 MSTORE PUSH1 0x20 PUSH1 0x0 KECCAK256 SWAP1 JUMPDEST DUP2 SLOAD DUP2 MSTORE SWAP1 PUSH1 0x1 ADD SWAP1 PUSH1 0x20 ADD DUP1 DUP4 GT PUSH2 0xD5D JUMPI DUP3 SWAP1 SUB PUSH1 0x1F AND DUP3 ADD SWAP2 JUMPDEST POP POP POP POP POP DUP2 MSTORE PUSH1 0x20 ADD DUP3 PUSH1 0xB ADD DUP1 SLOAD PUSH2 0xD93 SWAP1 PUSH2 0x4F26 JUMP JUMPDEST DUP1 PUSH1 0x1F ADD PUSH1 0x20 DUP1 SWAP2 DIV MUL PUSH1 0x20 ADD PUSH1 0x40 MLOAD SWAP1 DUP2 ADD PUSH1 0x40 MSTORE DUP1 SWAP3 SWAP2 SWAP1 DUP2 DUP2 MSTORE PUSH1 0x20 ADD DUP3 DUP1 SLOAD PUSH2 0xDBF SWAP1 PUSH2 0x4F26 JUMP JUMPDEST DUP1 ISZERO PUSH2 0xE0C JUMPI DUP1 PUSH1 0x1F LT PUSH2 0xDE1 JUMPI PUSH2 0x100 DUP1 DUP4 SLOAD DIV MUL DUP4 MSTORE SWAP2 PUSH1 0x20 ADD SWAP2 PUSH2 0xE0C JUMP JUMPDEST DUP3 ADD SWAP2 SWAP1 PUSH1 0x0 MSTORE PUSH1 0x20 PUSH1 0x0 KECCAK256 SWAP1 JUMPDEST DUP2 SLOAD DUP2 MSTORE SWAP1 PUSH1 0x1 ADD SWAP1 PUSH1 0x20 ADD DUP1 DUP4 GT PUSH2 0xDEF JUMPI DUP3 SWAP1 SUB PUSH1 0x1F AND DUP3 ADD SWAP2 JUMPDEST POP POP POP POP POP DUP2 MSTORE PUSH1 0x20 ADD DUP3 PUSH1 0xC ADD DUP1 SLOAD PUSH2 0xE25 SWAP1 PUSH2 0x4F26 JUMP JUMPDEST DUP1 PUSH1 0x1F ADD PUSH1 0x20 DUP1 SWAP2 DIV MUL PUSH1 0x20 ADD PUSH1 0x40 MLOAD SWAP1 DUP2 ADD PUSH1 0x40 MSTORE DUP1 SWAP3 SWAP2 SWAP1 DUP2 DUP2 MSTORE PUSH1 0x20 ADD DUP3 DUP1 SLOAD PUSH2 0xE51 SWAP1 PUSH2 0x4F26 JUMP JUMPDEST DUP1 ISZERO PUSH2 0xE9E JUMPI DUP1 PUSH1 0x1F LT PUSH2 0xE73 JUMPI PUSH2 0x100 DUP1 DUP4 SLOAD DIV MUL DUP4 MSTORE SWAP2 PUSH1 0x20 ADD SWAP2 PUSH2 0xE9E JUMP JUMPDEST DUP3 ADD SWAP2 SWAP1 PUSH1 0x0 MSTORE PUSH1 0x20 PUSH1 0x0 KECCAK256 SWAP1 JUMPDEST DUP2 SLOAD DUP2 MSTORE SWAP1 PUSH1 0x1 ADD SWAP1 PUSH1 0x20 ADD DUP1 DUP4 GT PUSH2 0xE81 JUMPI DUP3 SWAP1 SUB PUSH1 0x1F AND DUP3 ADD SWAP2 JUMPDEST POP POP POP POP POP DUP2 MSTORE PUSH1 0x20 ADD DUP3 PUSH1 0xD ADD DUP1 SLOAD PUSH2 0xEB7 SWAP1 PUSH2 0x4F26 JUMP JUMPDEST DUP1 PUSH1 0x1F ADD PUSH1 0x20 DUP1 SWAP2 DIV MUL PUSH1 0x20 ADD PUSH1 0x40 MLOAD SWAP1 DUP2 ADD PUSH1 0x40 MSTORE DUP1 SWAP3 SWAP2 SWAP1 DUP2 DUP2 MSTORE PUSH1 0x20 ADD DUP3 DUP1 SLOAD PUSH2 0xEE3 SWAP1 PUSH2 0x4F26 JUMP JUMPDEST DUP1 ISZERO PUSH2 0xF30 JUMPI DUP1 PUSH1 0x1F LT PUSH2 0xF05 JUMPI PUSH2 0x100 DUP1 DUP4 SLOAD DIV MUL DUP4 MSTORE SWAP2 PUSH1 0x20 ADD SWAP2 PUSH2 0xF30 JUMP JUMPDEST DUP3 ADD SWAP2 SWAP1 PUSH1 0x0 MSTORE PUSH1 0x20 PUSH1 0x0 KECCAK256 SWAP1 JUMPDEST DUP2 SLOAD DUP2 MSTORE SWAP1 PUSH1 0x1 ADD SWAP1 PUSH1 0x20 ADD DUP1 DUP4 GT PUSH2 0xF13 JUMPI DUP3 SWAP1 SUB PUSH1 0x1F AND DUP3 ADD SWAP2 JUMPDEST POP POP POP POP POP DUP2 MSTORE PUSH1 0x20 ADD DUP3 PUSH1 0xE ADD DUP1 SLOAD PUSH2 0xF49 SWAP1 PUSH2 0x4F26 JUMP JUMPDEST DUP1 PUSH1 0x1F ADD PUSH1 0x20 DUP1 SWAP2 DIV MUL PUSH1 0x20 ADD PUSH1 0x40 MLOAD SWAP1 DUP2 ADD PUSH1 0x40 MSTORE DUP1 SWAP3 SWAP2 SWAP1 DUP2 DUP2 MSTORE PUSH1 0x20 ADD DUP3 DUP1 SLOAD PUSH2 0xF75 SWAP1 PUSH2 0x4F26 JUMP JUMPDEST DUP1 ISZERO PUSH2 0xFC2 JUMPI DUP1 PUSH1 0x1F LT PUSH2 0xF97 JUMPI PUSH2 0x100 DUP1 DUP4 SLOAD DIV MUL DUP4 MSTORE SWAP2 PUSH1 0x20 ADD SWAP2 PUSH2 0xFC2 JUMP JUMPDEST DUP3 ADD SWAP2 SWAP1 PUSH1 0x0 MSTORE PUSH1 0x20 PUSH1 0x0 KECCAK256 SWAP1 JUMPDEST DUP2 SLOAD DUP2 MSTORE SWAP1 PUSH1 0x1 ADD SWAP1 PUSH1 0x20 ADD DUP1 DUP4 GT PUSH2 0xFA5 JUMPI DUP3 SWAP1 SUB PUSH1 0x1F AND DUP3 ADD SWAP2 JUMPDEST POP POP POP POP POP DUP2 MSTORE PUSH1 0x20 ADD DUP3 PUSH1 0xF ADD SLOAD DUP2 MSTORE POP DUP5 DUP5 DUP2 MLOAD DUP2 LT PUSH2 0xFE7 JUMPI PUSH2 0xFE6 PUSH2 0x4F58 JUMP JUMPDEST JUMPDEST PUSH1 0x20 MUL PUSH1 0x20 ADD ADD DUP2 SWAP1 MSTORE POP DUP3 DUP1 PUSH2 0xFFD SWAP1 PUSH2 0x4FB6 JUMP JUMPDEST SWAP4 POP POP POP DUP1 DUP1 PUSH2 0x100C SWAP1 PUSH2 0x4FB6 JUMP JUMPDEST SWAP2 POP POP PUSH2 0xAE2 JUMP JUMPDEST POP DUP2 SWAP4 POP POP POP POP SWAP2 SWAP1 POP JUMP JUMPDEST PUSH1 0x0 PUSH1 0x2 PUSH1 0x0 DUP7 DUP2 MSTORE PUSH1 0x20 ADD SWAP1 DUP2 MSTORE PUSH1 0x20 ADD PUSH1 0x0 KECCAK256 PUSH1 0x8 ADD PUSH1 0x0 DUP6 DUP2 MSTORE PUSH1 0x20 ADD SWAP1 DUP2 MSTORE PUSH1 0x20 ADD PUSH1 0x0 KECCAK256 SWAP1 POP DUP3 DUP2 PUSH1 0x8 ADD DUP2 SWAP1 SSTORE POP DUP2 DUP2 PUSH1 0x9 ADD DUP2 SWAP1 SSTORE POP POP POP POP POP POP JUMP JUMPDEST PUSH1 0x0 PUSH2 0x106F DUP6 PUSH2 0x2D23 JUMP JUMPDEST PUSH2 0x10AE JUMPI PUSH1 0x40 MLOAD PUSH32 0x8C379A000000000000000000000000000000000000000000000000000000000 DUP2 MSTORE PUSH1 0x4 ADD PUSH2 0x10A5 SWAP1 PUSH2 0x504B JUMP JUMPDEST PUSH1 0x40 MLOAD DUP1 SWAP2 SUB SWAP1 REVERT JUMPDEST PUSH1 0x0 PUSH1 0x2 PUSH1 0x0 DUP8 DUP2 MSTORE PUSH1 0x20 ADD SWAP1 DUP2 MSTORE PUSH1 0x20 ADD PUSH1 0x0 KECCAK256 SWAP1 POP PUSH2 0x10CF CALLER DUP8 PUSH2 0x1A7F JUMP JUMPDEST PUSH2 0x110E JUMPI PUSH1 0x40 MLOAD PUSH32 0x8C379A000000000000000000000000000000000000000000000000000000000 DUP2 MSTORE PUSH1 0x4 ADD PUSH2 0x1105 SWAP1 PUSH2 0x50B7 JUMP JUMPDEST PUSH1 0x40 MLOAD DUP1 SWAP2 SUB SWAP1 REVERT JUMPDEST PUSH1 0x0 PUSH1 0x1 DUP3 PUSH1 0x9 ADD SLOAD PUSH2 0x1121 SWAP2 SWAP1 PUSH2 0x50D7 JUMP JUMPDEST SWAP1 POP PUSH1 0x0 PUSH1 0x2 PUSH1 0x0 DUP10 DUP2 MSTORE PUSH1 0x20 ADD SWAP1 DUP2 MSTORE PUSH1 0x20 ADD PUSH1 0x0 KECCAK256 PUSH1 0x8 ADD PUSH1 0x0 DUP4 DUP2 MSTORE PUSH1 0x20 ADD SWAP1 DUP2 MSTORE PUSH1 0x20 ADD PUSH1 0x0 KECCAK256 SWAP1 POP DUP2 DUP2 PUSH1 0x0 ADD DUP2 SWAP1 SSTORE POP CALLER DUP2 PUSH1 0x1 ADD PUSH1 0x0 PUSH2 0x100 EXP DUP2 SLOAD DUP2 PUSH20 0xFFFFFFFFFFFFFFFFFFFFFFFFFFFFFFFFFFFFFFFF MUL NOT AND SWAP1 DUP4 PUSH20 0xFFFFFFFFFFFFFFFFFFFFFFFFFFFFFFFFFFFFFFFF AND MUL OR SWAP1 SSTORE POP DUP6 DUP2 PUSH1 0x2 ADD PUSH1 0x0 PUSH2 0x100 EXP DUP2 SLOAD DUP2 PUSH20 0xFFFFFFFFFFFFFFFFFFFFFFFFFFFFFFFFFFFFFFFF MUL NOT AND SWAP1 DUP4 PUSH20 0xFFFFFFFFFFFFFFFFFFFFFFFFFFFFFFFFFFFFFFFF AND MUL OR SWAP1 SSTORE POP TIMESTAMP DUP2 PUSH1 0x3 ADD DUP2 SWAP1 SSTORE POP PUSH2 0x168 PUSH1 0x8 SLOAD PUSH2 0x11F6 SWAP2 SWAP1 PUSH2 0x50D7 JUMP JUMPDEST DUP2 PUSH1 0x4 ADD DUP2 SWAP1 SSTORE POP PUSH1 0x40 MLOAD DUP1 PUSH1 0x40 ADD PUSH1 0x40 MSTORE DUP1 PUSH1 0x7 DUP2 MSTORE PUSH1 0x20 ADD PUSH32 0x50656E64696E6700000000000000000000000000000000000000000000000000 DUP2 MSTORE POP DUP2 PUSH1 0x5 ADD SWAP1 DUP1 MLOAD SWAP1 PUSH1 0x20 ADD SWAP1 PUSH2 0x124B SWAP3 SWAP2 SWAP1 PUSH2 0x3C87 JUMP JUMPDEST POP DUP7 DUP2 PUSH1 0x6 ADD DUP2 SWAP1 SSTORE POP DUP5 DUP2 PUSH1 0x7 ADD DUP2 SWAP1 SSTORE POP PUSH1 0x0 DUP2 PUSH1 0x8 ADD DUP2 SWAP1 SSTORE POP PUSH1 0x0 DUP2 PUSH1 0x9 ADD DUP2 SWAP1 SSTORE POP PUSH32 0x228E740011C0ECA4806871633863164D54CFE348716C44CA34F3CBAC63E7BF66 DUP2 PUSH1 0x0 ADD SLOAD DUP3 PUSH1 0x1 ADD PUSH1 0x0 SWAP1 SLOAD SWAP1 PUSH2 0x100 EXP SWAP1 DIV PUSH20 0xFFFFFFFFFFFFFFFFFFFFFFFFFFFFFFFFFFFFFFFF AND DUP4 PUSH1 0x6 ADD SLOAD DUP5 PUSH1 0x7 ADD SLOAD PUSH1 0x40 MLOAD PUSH2 0x12D7 SWAP5 SWAP4 SWAP3 SWAP2 SWAP1 PUSH2 0x513C JUMP JUMPDEST PUSH1 0x40 MLOAD DUP1 SWAP2 SUB SWAP1 LOG1 DUP2 DUP4 PUSH1 0x9 ADD DUP2 SWAP1 SSTORE POP DUP8 SWAP4 POP POP POP POP SWAP5 SWAP4 POP POP POP POP JUMP JUMPDEST PUSH1 0x0 PUSH1 0x2 PUSH1 0x0 DUP4 DUP2 MSTORE PUSH1 0x20 ADD SWAP1 DUP2 MSTORE PUSH1 0x20 ADD PUSH1 0x0 KECCAK256 PUSH1 0x7 ADD PUSH1 0x0 DUP5 DUP2 MSTORE PUSH1 0x20 ADD SWAP1 DUP2 MSTORE PUSH1 0x20 ADD PUSH1 0x0 KECCAK256 PUSH1 0x10 ADD PUSH1 0x0 DUP6 PUSH20 0xFFFFFFFFFFFFFFFFFFFFFFFFFFFFFFFFFFFFFFFF AND PUSH20 0xFFFFFFFFFFFFFFFFFFFFFFFFFFFFFFFFFFFFFFFF AND DUP2 MSTORE PUSH1 0x20 ADD SWAP1 DUP2 MSTORE PUSH1 0x20 ADD PUSH1 0x0 KECCAK256 PUSH1 0x0 SWAP1 SLOAD SWAP1 PUSH2 0x100 EXP SWAP1 DIV PUSH1 0xFF AND SWAP1 POP SWAP4 SWAP3 POP POP POP JUMP JUMPDEST PUSH1 0x0 PUSH1 0x2 PUSH1 0x0 DUP7 DUP2 MSTORE PUSH1 0x20 ADD SWAP1 DUP2 MSTORE PUSH1 0x20 ADD PUSH1 0x0 KECCAK256 PUSH1 0x7 ADD PUSH1 0x0 DUP6 DUP2 MSTORE PUSH1 0x20 ADD SWAP1 DUP2 MSTORE PUSH1 0x20 ADD PUSH1 0x0 KECCAK256 SWAP1 POP DUP3 DUP2 PUSH1 0xF ADD DUP2 SWAP1 SSTORE POP DUP2 DUP2 PUSH1 0xE ADD SWAP1 DUP1 MLOAD SWAP1 PUSH1 0x20 ADD SWAP1 PUSH2 0x13C2 SWAP3 SWAP2 SWAP1 PUSH2 0x3C87 JUMP JUMPDEST POP POP POP POP POP POP JUMP JUMPDEST PUSH1 0x0 DUP1 PUSH1 0x2 PUSH1 0x0 DUP6 DUP2 MSTORE PUSH1 0x20 ADD SWAP1 DUP2 MSTORE PUSH1 0x20 ADD PUSH1 0x0 KECCAK256 PUSH1 0x7 ADD PUSH1 0x0 DUP5 DUP2 MSTORE PUSH1 0x20 ADD SWAP1 DUP2 MSTORE PUSH1 0x20 ADD PUSH1 0x0 KECCAK256 SWAP1 POP TIMESTAMP DUP2 PUSH1 0x9 ADD SLOAD GT SWAP2 POP POP SWAP3 SWAP2 POP POP JUMP JUMPDEST PUSH1 0x0 PUSH1 0x2 PUSH1 0x0 DUP5 DUP2 MSTORE PUSH1 0x20 ADD SWAP1 DUP2 MSTORE PUSH1 0x20 ADD PUSH1 0x0 KECCAK256 SWAP1 POP PUSH1 0x0 DUP2 PUSH1 0x7 ADD PUSH1 0x0 DUP5 DUP2 MSTORE PUSH1 0x20 ADD SWAP1 DUP2 MSTORE PUSH1 0x20 ADD PUSH1 0x0 KECCAK256 SWAP1 POP PUSH2 0x143F DUP5 PUSH2 0x2D23 JUMP JUMPDEST PUSH2 0x147E JUMPI PUSH1 0x40 MLOAD PUSH32 0x8C379A000000000000000000000000000000000000000000000000000000000 DUP2 MSTORE PUSH1 0x4 ADD PUSH2 0x1475 SWAP1 PUSH2 0x504B JUMP JUMPDEST PUSH1 0x40 MLOAD DUP1 SWAP2 SUB SWAP1 REVERT JUMPDEST PUSH2 0x1488 CALLER DUP6 PUSH2 0x1A7F JUMP JUMPDEST PUSH2 0x14C7 JUMPI PUSH1 0x40 MLOAD PUSH32 0x8C379A000000000000000000000000000000000000000000000000000000000 DUP2 MSTORE PUSH1 0x4 ADD PUSH2 0x14BE SWAP1 PUSH2 0x50B7 JUMP JUMPDEST PUSH1 0x40 MLOAD DUP1 SWAP2 SUB SWAP1 REVERT JUMPDEST PUSH2 0x14D1 DUP4 DUP6 PUSH2 0x3AEB JUMP JUMPDEST PUSH2 0x1510 JUMPI PUSH1 0x40 MLOAD PUSH32 0x8C379A000000000000000000000000000000000000000000000000000000000 DUP2 MSTORE PUSH1 0x4 ADD PUSH2 0x1507 SWAP1 PUSH2 0x51CD JUMP JUMPDEST PUSH1 0x40 MLOAD DUP1 SWAP2 SUB SWAP1 REVERT JUMPDEST PUSH2 0x151A DUP5 DUP5 PUSH2 0x3B50 JUMP JUMPDEST PUSH2 0x1559 JUMPI PUSH1 0x40 MLOAD PUSH32 0x8C379A000000000000000000000000000000000000000000000000000000000 DUP2 MSTORE PUSH1 0x4 ADD PUSH2 0x1550 SWAP1 PUSH2 0x525F JUMP JUMPDEST PUSH1 0x40 MLOAD DUP1 SWAP2 SUB SWAP1 REVERT JUMPDEST DUP1 PUSH1 0x2 ADD SLOAD DUP3 PUSH1 0x4 ADD SLOAD LT ISZERO PUSH2 0x15A4 JUMPI PUSH1 0x40 MLOAD PUSH32 0x8C379A000000000000000000000000000000000000000000000000000000000 DUP2 MSTORE PUSH1 0x4 ADD PUSH2 0x159B SWAP1 PUSH2 0x52F1 JUMP JUMPDEST PUSH1 0x40 MLOAD DUP1 SWAP2 SUB SWAP1 REVERT JUMPDEST DUP1 PUSH1 0x7 ADD SLOAD DUP2 PUSH1 0x6 ADD SLOAD GT PUSH2 0x15EE JUMPI PUSH1 0x40 MLOAD PUSH32 0x8C379A000000000000000000000000000000000000000000000000000000000 DUP2 MSTORE PUSH1 0x4 ADD PUSH2 0x15E5 SWAP1 PUSH2 0x5383 JUMP JUMPDEST PUSH1 0x40 MLOAD DUP1 SWAP2 SUB SWAP1 REVERT JUMPDEST PUSH2 0x15F8 DUP5 DUP5 PUSH2 0x32B2 JUMP JUMPDEST ISZERO PUSH2 0x1638 JUMPI PUSH1 0x40 MLOAD PUSH32 0x8C379A000000000000000000000000000000000000000000000000000000000 DUP2 MSTORE PUSH1 0x4 ADD PUSH2 0x162F SWAP1 PUSH2 0x5415 JUMP JUMPDEST PUSH1 0x40 MLOAD DUP1 SWAP2 SUB SWAP1 REVERT JUMPDEST PUSH1 0x40 MLOAD DUP1 PUSH1 0x40 ADD PUSH1 0x40 MSTORE DUP1 PUSH1 0x8 DUP2 MSTORE PUSH1 0x20 ADD PUSH32 0x4578656375746564000000000000000000000000000000000000000000000000 DUP2 MSTORE POP DUP2 PUSH1 0x4 ADD SWAP1 DUP1 MLOAD SWAP1 PUSH1 0x20 ADD SWAP1 PUSH2 0x1685 SWAP3 SWAP2 SWAP1 PUSH2 0x3C87 JUMP JUMPDEST POP DUP1 PUSH1 0x2 ADD SLOAD DUP3 PUSH1 0x4 ADD PUSH1 0x0 DUP3 DUP3 SLOAD PUSH2 0x169E SWAP2 SWAP1 PUSH2 0x5435 JUMP JUMPDEST SWAP3 POP POP DUP2 SWAP1 SSTORE POP DUP1 PUSH1 0x3 ADD PUSH1 0x0 SWAP1 SLOAD SWAP1 PUSH2 0x100 EXP SWAP1 DIV PUSH20 0xFFFFFFFFFFFFFFFFFFFFFFFFFFFFFFFFFFFFFFFF AND PUSH20 0xFFFFFFFFFFFFFFFFFFFFFFFFFFFFFFFFFFFFFFFF AND PUSH2 0x8FC DUP3 PUSH1 0x2 ADD SLOAD SWAP1 DUP2 ISZERO MUL SWAP1 PUSH1 0x40 MLOAD PUSH1 0x0 PUSH1 0x40 MLOAD DUP1 DUP4 SUB DUP2 DUP6 DUP9 DUP9 CALL SWAP4 POP POP POP POP ISZERO DUP1 ISZERO PUSH2 0x1713 JUMPI RETURNDATASIZE PUSH1 0x0 DUP1 RETURNDATACOPY RETURNDATASIZE PUSH1 0x0 REVERT JUMPDEST POP POP POP POP POP JUMP JUMPDEST PUSH1 0x0 PUSH1 0x2 PUSH1 0x0 DUP5 DUP2 MSTORE PUSH1 0x20 ADD SWAP1 DUP2 MSTORE PUSH1 0x20 ADD PUSH1 0x0 KECCAK256 PUSH1 0xD ADD PUSH1 0x0 DUP4 PUSH20 0xFFFFFFFFFFFFFFFFFFFFFFFFFFFFFFFFFFFFFFFF AND PUSH20 0xFFFFFFFFFFFFFFFFFFFFFFFFFFFFFFFFFFFFFFFF AND DUP2 MSTORE PUSH1 0x20 ADD SWAP1 DUP2 MSTORE PUSH1 0x20 ADD PUSH1 0x0 KECCAK256 PUSH1 0x0 SWAP1 SLOAD SWAP1 PUSH2 0x100 EXP SWAP1 DIV PUSH1 0xFF AND SWAP1 POP SWAP3 SWAP2 POP POP JUMP JUMPDEST DUP1 PUSH1 0x1 DUP2 SWAP1 SSTORE POP POP JUMP JUMPDEST PUSH2 0x1798 DUP2 PUSH2 0x2D23 JUMP JUMPDEST PUSH2 0x17D7 JUMPI PUSH1 0x40 MLOAD PUSH32 0x8C379A000000000000000000000000000000000000000000000000000000000 DUP2 MSTORE PUSH1 0x4 ADD PUSH2 0x17CE SWAP1 PUSH2 0x504B JUMP JUMPDEST PUSH1 0x40 MLOAD DUP1 SWAP2 SUB SWAP1 REVERT JUMPDEST PUSH1 0x0 PUSH1 0x2 PUSH1 0x0 DUP4 DUP2 MSTORE PUSH1 0x20 ADD SWAP1 DUP2 MSTORE PUSH1 0x20 ADD PUSH1 0x0 KECCAK256 SWAP1 POP PUSH2 0x17F8 CALLER DUP4 PUSH2 0x1A7F JUMP JUMPDEST PUSH2 0x1837 JUMPI PUSH1 0x40 MLOAD PUSH32 0x8C379A000000000000000000000000000000000000000000000000000000000 DUP2 MSTORE PUSH1 0x4 ADD PUSH2 0x182E SWAP1 PUSH2 0x50B7 JUMP JUMPDEST PUSH1 0x40 MLOAD DUP1 SWAP2 SUB SWAP1 REVERT JUMPDEST PUSH1 0x0 CALLVALUE GT PUSH2 0x187A JUMPI PUSH1 0x40 MLOAD PUSH32 0x8C379A000000000000000000000000000000000000000000000000000000000 DUP2 MSTORE PUSH1 0x4 ADD PUSH2 0x1871 SWAP1 PUSH2 0x54DB JUMP JUMPDEST PUSH1 0x40 MLOAD DUP1 SWAP2 SUB SWAP1 REVERT JUMPDEST PUSH2 0x1883 DUP3 PUSH2 0x3B23 JUMP JUMPDEST PUSH2 0x18C2 JUMPI PUSH1 0x40 MLOAD PUSH32 0x8C379A000000000000000000000000000000000000000000000000000000000 DUP2 MSTORE PUSH1 0x4 ADD PUSH2 0x18B9 SWAP1 PUSH2 0x5547 JUMP JUMPDEST PUSH1 0x40 MLOAD DUP1 SWAP2 SUB SWAP1 REVERT JUMPDEST PUSH1 0x0 DUP2 PUSH1 0x2 ADD PUSH1 0x0 CALLER PUSH20 0xFFFFFFFFFFFFFFFFFFFFFFFFFFFFFFFFFFFFFFFF AND PUSH20 0xFFFFFFFFFFFFFFFFFFFFFFFFFFFFFFFFFFFFFFFF AND DUP2 MSTORE PUSH1 0x20 ADD SWAP1 DUP2 MSTORE PUSH1 0x20 ADD PUSH1 0x0 KECCAK256 SWAP1 POP CALLVALUE DUP2 PUSH1 0x1 ADD PUSH1 0x0 DUP3 DUP3 SLOAD PUSH2 0x191B SWAP2 SWAP1 PUSH2 0x50D7 JUMP JUMPDEST SWAP3 POP POP DUP2 SWAP1 SSTORE POP PUSH1 0x0 PUSH1 0x40 MLOAD DUP1 PUSH1 0x40 ADD PUSH1 0x40 MSTORE DUP1 CALLER PUSH20 0xFFFFFFFFFFFFFFFFFFFFFFFFFFFFFFFFFFFFFFFF AND DUP2 MSTORE PUSH1 0x20 ADD PUSH1 0x0 DUP2 MSTORE POP SWAP1 POP PUSH1 0x1 DUP4 PUSH1 0xD ADD PUSH1 0x0 CALLER PUSH20 0xFFFFFFFFFFFFFFFFFFFFFFFFFFFFFFFFFFFFFFFF AND PUSH20 0xFFFFFFFFFFFFFFFFFFFFFFFFFFFFFFFFFFFFFFFF AND DUP2 MSTORE PUSH1 0x20 ADD SWAP1 DUP2 MSTORE PUSH1 0x20 ADD PUSH1 0x0 KECCAK256 PUSH1 0x0 PUSH2 0x100 EXP DUP2 SLOAD DUP2 PUSH1 0xFF MUL NOT AND SWAP1 DUP4 ISZERO ISZERO MUL OR SWAP1 SSTORE POP DUP1 DUP4 PUSH1 0x2 ADD PUSH1 0x0 CALLER PUSH20 0xFFFFFFFFFFFFFFFFFFFFFFFFFFFFFFFFFFFFFFFF AND PUSH20 0xFFFFFFFFFFFFFFFFFFFFFFFFFFFFFFFFFFFFFFFF AND DUP2 MSTORE PUSH1 0x20 ADD SWAP1 DUP2 MSTORE PUSH1 0x20 ADD PUSH1 0x0 KECCAK256 PUSH1 0x0 DUP3 ADD MLOAD DUP2 PUSH1 0x0 ADD PUSH1 0x0 PUSH2 0x100 EXP DUP2 SLOAD DUP2 PUSH20 0xFFFFFFFFFFFFFFFFFFFFFFFFFFFFFFFFFFFFFFFF MUL NOT AND SWAP1 DUP4 PUSH20 0xFFFFFFFFFFFFFFFFFFFFFFFFFFFFFFFFFFFFFFFF AND MUL OR SWAP1 SSTORE POP PUSH1 0x20 DUP3 ADD MLOAD DUP2 PUSH1 0x1 ADD SSTORE SWAP1 POP POP PUSH1 0x1 DUP4 PUSH1 0x3 ADD PUSH1 0x0 DUP3 DUP3 SLOAD PUSH2 0x1A57 SWAP2 SWAP1 PUSH2 0x50D7 JUMP JUMPDEST SWAP3 POP POP DUP2 SWAP1 SSTORE POP CALLVALUE DUP4 PUSH1 0x4 ADD PUSH1 0x0 DUP3 DUP3 SLOAD PUSH2 0x1A72 SWAP2 SWAP1 PUSH2 0x50D7 JUMP JUMPDEST SWAP3 POP POP DUP2 SWAP1 SSTORE POP POP POP POP POP JUMP JUMPDEST PUSH1 0x0 DUP1 PUSH20 0xFFFFFFFFFFFFFFFFFFFFFFFFFFFFFFFFFFFFFFFF AND PUSH1 0x2 PUSH1 0x0 DUP5 DUP2 MSTORE PUSH1 0x20 ADD SWAP1 DUP2 MSTORE PUSH1 0x20 ADD PUSH1 0x0 KECCAK256 PUSH1 0x2 ADD PUSH1 0x0 DUP6 PUSH20 0xFFFFFFFFFFFFFFFFFFFFFFFFFFFFFFFFFFFFFFFF AND PUSH20 0xFFFFFFFFFFFFFFFFFFFFFFFFFFFFFFFFFFFFFFFF AND DUP2 MSTORE PUSH1 0x20 ADD SWAP1 DUP2 MSTORE PUSH1 0x20 ADD PUSH1 0x0 KECCAK256 PUSH1 0x0 ADD PUSH1 0x0 SWAP1 SLOAD SWAP1 PUSH2 0x100 EXP SWAP1 DIV PUSH20 0xFFFFFFFFFFFFFFFFFFFFFFFFFFFFFFFFFFFFFFFF AND PUSH20 0xFFFFFFFFFFFFFFFFFFFFFFFFFFFFFFFFFFFFFFFF AND EQ ISZERO SWAP1 POP SWAP3 SWAP2 POP POP JUMP JUMPDEST PUSH1 0x0 DUP1 PUSH1 0x1 PUSH1 0x4 SLOAD PUSH2 0x1B41 SWAP2 SWAP1 PUSH2 0x50D7 JUMP JUMPDEST SWAP1 POP PUSH1 0x0 PUSH1 0x2 PUSH1 0x0 DUP4 DUP2 MSTORE PUSH1 0x20 ADD SWAP1 DUP2 MSTORE PUSH1 0x20 ADD PUSH1 0x0 KECCAK256 SWAP1 POP DUP2 DUP2 PUSH1 0x0 ADD DUP2 SWAP1 SSTORE POP DUP5 DUP2 PUSH1 0x1 ADD SWAP1 DUP1 MLOAD SWAP1 PUSH1 0x20 ADD SWAP1 PUSH2 0x1B7B SWAP3 SWAP2 SWAP1 PUSH2 0x3C87 JUMP JUMPDEST POP PUSH1 0x0 DUP2 PUSH1 0x4 ADD DUP2 SWAP1 SSTORE POP PUSH1 0x0 DUP2 PUSH1 0x9 ADD DUP2 SWAP1 SSTORE POP PUSH1 0x1 DUP2 PUSH1 0x3 ADD DUP2 SWAP1 SSTORE POP TIMESTAMP DUP2 PUSH1 0x5 ADD DUP2 SWAP1 SSTORE POP TIMESTAMP PUSH1 0x8 DUP2 SWAP1 SSTORE POP PUSH1 0xB4 TIMESTAMP PUSH2 0x1BB7 SWAP2 SWAP1 PUSH2 0x50D7 JUMP JUMPDEST DUP2 PUSH1 0x6 ADD DUP2 SWAP1 SSTORE POP DUP4 DUP2 PUSH1 0xA ADD SWAP1 DUP1 MLOAD SWAP1 PUSH1 0x20 ADD SWAP1 PUSH2 0x1BD7 SWAP3 SWAP2 SWAP1 PUSH2 0x3C87 JUMP JUMPDEST POP PUSH1 0x40 MLOAD DUP1 PUSH1 0x40 ADD PUSH1 0x40 MSTORE DUP1 PUSH1 0x7 DUP2 MSTORE PUSH1 0x20 ADD PUSH32 0x50656E64696E6700000000000000000000000000000000000000000000000000 DUP2 MSTORE POP DUP2 PUSH1 0xB ADD SWAP1 DUP1 MLOAD SWAP1 PUSH1 0x20 ADD SWAP1 PUSH2 0x1C25 SWAP3 SWAP2 SWAP1 PUSH2 0x3C87 JUMP JUMPDEST POP PUSH1 0x0 PUSH1 0x40 MLOAD DUP1 PUSH1 0x40 ADD PUSH1 0x40 MSTORE DUP1 CALLER PUSH20 0xFFFFFFFFFFFFFFFFFFFFFFFFFFFFFFFFFFFFFFFF AND DUP2 MSTORE PUSH1 0x20 ADD PUSH1 0x0 DUP2 MSTORE POP SWAP1 POP DUP1 DUP3 PUSH1 0x2 ADD PUSH1 0x0 CALLER PUSH20 0xFFFFFFFFFFFFFFFFFFFFFFFFFFFFFFFFFFFFFFFF AND PUSH20 0xFFFFFFFFFFFFFFFFFFFFFFFFFFFFFFFFFFFFFFFF AND DUP2 MSTORE PUSH1 0x20 ADD SWAP1 DUP2 MSTORE PUSH1 0x20 ADD PUSH1 0x0 KECCAK256 PUSH1 0x0 DUP3 ADD MLOAD DUP2 PUSH1 0x0 ADD PUSH1 0x0 PUSH2 0x100 EXP DUP2 SLOAD DUP2 PUSH20 0xFFFFFFFFFFFFFFFFFFFFFFFFFFFFFFFFFFFFFFFF MUL NOT AND SWAP1 DUP4 PUSH20 0xFFFFFFFFFFFFFFFFFFFFFFFFFFFFFFFFFFFFFFFF AND MUL OR SWAP1 SSTORE POP PUSH1 0x20 DUP3 ADD MLOAD DUP2 PUSH1 0x1 ADD SSTORE SWAP1 POP POP DUP3 PUSH1 0x4 DUP2 SWAP1 SSTORE POP DUP3 SWAP4 POP POP POP POP SWAP3 SWAP2 POP POP JUMP JUMPDEST PUSH1 0x3 PUSH1 0x20 MSTORE DUP1 PUSH1 0x0 MSTORE PUSH1 0x40 PUSH1 0x0 KECCAK256 PUSH1 0x0 SWAP2 POP SLOAD SWAP1 PUSH2 0x100 EXP SWAP1 DIV PUSH1 0xFF AND DUP2 JUMP JUMPDEST PUSH1 0x0 PUSH1 0x2 PUSH1 0x0 DUP5 DUP2 MSTORE PUSH1 0x20 ADD SWAP1 DUP2 MSTORE PUSH1 0x20 ADD PUSH1 0x0 KECCAK256 SWAP1 POP PUSH1 0x0 PUSH1 0x2 PUSH1 0x0 DUP6 DUP2 MSTORE PUSH1 0x20 ADD SWAP1 DUP2 MSTORE PUSH1 0x20 ADD PUSH1 0x0 KECCAK256 PUSH1 0x8 ADD PUSH1 0x0 DUP5 DUP2 MSTORE PUSH1 0x20 ADD SWAP1 DUP2 MSTORE PUSH1 0x20 ADD PUSH1 0x0 KECCAK256 SWAP1 POP PUSH2 0x1D6A DUP5 PUSH2 0x2D23 JUMP JUMPDEST PUSH2 0x1DA9 JUMPI PUSH1 0x40 MLOAD PUSH32 0x8C379A000000000000000000000000000000000000000000000000000000000 DUP2 MSTORE PUSH1 0x4 ADD PUSH2 0x1DA0 SWAP1 PUSH2 0x504B JUMP JUMPDEST PUSH1 0x40 MLOAD DUP1 SWAP2 SUB SWAP1 REVERT JUMPDEST PUSH2 0x1DB3 CALLER DUP6 PUSH2 0x1A7F JUMP JUMPDEST PUSH2 0x1DF2 JUMPI PUSH1 0x40 MLOAD PUSH32 0x8C379A000000000000000000000000000000000000000000000000000000000 DUP2 MSTORE PUSH1 0x4 ADD PUSH2 0x1DE9 SWAP1 PUSH2 0x50B7 JUMP JUMPDEST PUSH1 0x40 MLOAD DUP1 SWAP2 SUB SWAP1 REVERT JUMPDEST DUP2 PUSH1 0x4 ADD SLOAD DUP3 PUSH1 0x4 ADD PUSH1 0x0 DUP3 DUP3 SLOAD PUSH2 0x1E0A SWAP2 SWAP1 PUSH2 0x5435 JUMP JUMPDEST SWAP3 POP POP DUP2 SWAP1 SSTORE POP DUP1 PUSH1 0x2 ADD PUSH1 0x0 SWAP1 SLOAD SWAP1 PUSH2 0x100 EXP SWAP1 DIV PUSH20 0xFFFFFFFFFFFFFFFFFFFFFFFFFFFFFFFFFFFFFFFF AND PUSH20 0xFFFFFFFFFFFFFFFFFFFFFFFFFFFFFFFFFFFFFFFF AND PUSH2 0x8FC DUP4 PUSH1 0x4 ADD SLOAD SWAP1 DUP2 ISZERO MUL SWAP1 PUSH1 0x40 MLOAD PUSH1 0x0 PUSH1 0x40 MLOAD DUP1 DUP4 SUB DUP2 DUP6 DUP9 DUP9 CALL SWAP4 POP POP POP POP ISZERO DUP1 ISZERO PUSH2 0x1E7F JUMPI RETURNDATASIZE PUSH1 0x0 DUP1 RETURNDATACOPY RETURNDATASIZE PUSH1 0x0 REVERT JUMPDEST POP POP POP POP POP JUMP JUMPDEST PUSH2 0x1E8E PUSH2 0x3D0D JUMP JUMPDEST PUSH2 0x1E97 DUP4 PUSH2 0x2D23 JUMP JUMPDEST PUSH2 0x1ED6 JUMPI PUSH1 0x40 MLOAD PUSH32 0x8C379A000000000000000000000000000000000000000000000000000000000 DUP2 MSTORE PUSH1 0x4 ADD PUSH2 0x1ECD SWAP1 PUSH2 0x504B JUMP JUMPDEST PUSH1 0x40 MLOAD DUP1 SWAP2 SUB SWAP1 REVERT JUMPDEST PUSH2 0x1EE0 DUP3 DUP5 PUSH2 0x33E3 JUMP JUMPDEST PUSH2 0x1F1F JUMPI PUSH1 0x40 MLOAD PUSH32 0x8C379A000000000000000000000000000000000000000000000000000000000 DUP2 MSTORE PUSH1 0x4 ADD PUSH2 0x1F16 SWAP1 PUSH2 0x51CD JUMP JUMPDEST PUSH1 0x40 MLOAD DUP1 SWAP2 SUB SWAP1 REVERT JUMPDEST PUSH1 0x0 PUSH1 0x2 PUSH1 0x0 DUP6 DUP2 MSTORE PUSH1 0x20 ADD SWAP1 DUP2 MSTORE PUSH1 0x20 ADD PUSH1 0x0 KECCAK256 PUSH1 0x8 ADD PUSH1 0x0 DUP5 DUP2 MSTORE PUSH1 0x20 ADD SWAP1 DUP2 MSTORE PUSH1 0x20 ADD PUSH1 0x0 KECCAK256 SWAP1 POP PUSH1 0x0 PUSH1 0x40 MLOAD DUP1 PUSH2 0x140 ADD PUSH1 0x40 MSTORE DUP1 DUP4 PUSH1 0x0 ADD SLOAD DUP2 MSTORE PUSH1 0x20 ADD DUP4 PUSH1 0x1 ADD PUSH1 0x0 SWAP1 SLOAD SWAP1 PUSH2 0x100 EXP SWAP1 DIV PUSH20 0xFFFFFFFFFFFFFFFFFFFFFFFFFFFFFFFFFFFFFFFF AND PUSH20 0xFFFFFFFFFFFFFFFFFFFFFFFFFFFFFFFFFFFFFFFF AND DUP2 MSTORE PUSH1 0x20 ADD DUP4 PUSH1 0x2 ADD PUSH1 0x0 SWAP1 SLOAD SWAP1 PUSH2 0x100 EXP SWAP1 DIV PUSH20 0xFFFFFFFFFFFFFFFFFFFFFFFFFFFFFFFFFFFFFFFF AND PUSH20 0xFFFFFFFFFFFFFFFFFFFFFFFFFFFFFFFFFFFFFFFF AND DUP2 MSTORE PUSH1 0x20 ADD DUP4 PUSH1 0x3 ADD SLOAD DUP2 MSTORE PUSH1 0x20 ADD DUP4 PUSH1 0x4 ADD SLOAD DUP2 MSTORE PUSH1 0x20 ADD DUP4 PUSH1 0x5 ADD DUP1 SLOAD PUSH2 0x2005 SWAP1 PUSH2 0x4F26 JUMP JUMPDEST DUP1 PUSH1 0x1F ADD PUSH1 0x20 DUP1 SWAP2 DIV MUL PUSH1 0x20 ADD PUSH1 0x40 MLOAD SWAP1 DUP2 ADD PUSH1 0x40 MSTORE DUP1 SWAP3 SWAP2 SWAP1 DUP2 DUP2 MSTORE PUSH1 0x20 ADD DUP3 DUP1 SLOAD PUSH2 0x2031 SWAP1 PUSH2 0x4F26 JUMP JUMPDEST DUP1 ISZERO PUSH2 0x207E JUMPI DUP1 PUSH1 0x1F LT PUSH2 0x2053 JUMPI PUSH2 0x100 DUP1 DUP4 SLOAD DIV MUL DUP4 MSTORE SWAP2 PUSH1 0x20 ADD SWAP2 PUSH2 0x207E JUMP JUMPDEST DUP3 ADD SWAP2 SWAP1 PUSH1 0x0 MSTORE PUSH1 0x20 PUSH1 0x0 KECCAK256 SWAP1 JUMPDEST DUP2 SLOAD DUP2 MSTORE SWAP1 PUSH1 0x1 ADD SWAP1 PUSH1 0x20 ADD DUP1 DUP4 GT PUSH2 0x2061 JUMPI DUP3 SWAP1 SUB PUSH1 0x1F AND DUP3 ADD SWAP2 JUMPDEST POP POP POP POP POP DUP2 MSTORE PUSH1 0x20 ADD DUP4 PUSH1 0x6 ADD SLOAD DUP2 MSTORE PUSH1 0x20 ADD DUP4 PUSH1 0x7 ADD SLOAD DUP2 MSTORE PUSH1 0x20 ADD DUP4 PUSH1 0x8 ADD SLOAD DUP2 MSTORE PUSH1 0x20 ADD DUP4 PUSH1 0x9 ADD SLOAD DUP2 MSTORE POP SWAP1 POP DUP1 SWAP3 POP POP POP SWAP3 SWAP2 POP POP JUMP JUMPDEST PUSH2 0x20C4 DUP2 PUSH2 0x2D23 JUMP JUMPDEST PUSH2 0x2103 JUMPI PUSH1 0x40 MLOAD PUSH32 0x8C379A000000000000000000000000000000000000000000000000000000000 DUP2 MSTORE PUSH1 0x4 ADD PUSH2 0x20FA SWAP1 PUSH2 0x504B JUMP JUMPDEST PUSH1 0x40 MLOAD DUP1 SWAP2 SUB SWAP1 REVERT JUMPDEST PUSH1 0x0 PUSH1 0x2 PUSH1 0x0 DUP4 DUP2 MSTORE PUSH1 0x20 ADD SWAP1 DUP2 MSTORE PUSH1 0x20 ADD PUSH1 0x0 KECCAK256 SWAP1 POP PUSH2 0x2124 CALLER DUP4 PUSH2 0x1A7F JUMP JUMPDEST PUSH2 0x2163 JUMPI PUSH1 0x40 MLOAD PUSH32 0x8C379A000000000000000000000000000000000000000000000000000000000 DUP2 MSTORE PUSH1 0x4 ADD PUSH2 0x215A SWAP1 PUSH2 0x50B7 JUMP JUMPDEST PUSH1 0x40 MLOAD DUP1 SWAP2 SUB SWAP1 REVERT JUMPDEST PUSH1 0x1 DUP2 PUSH1 0x3 ADD PUSH1 0x0 DUP3 DUP3 SLOAD PUSH2 0x2178 SWAP2 SWAP1 PUSH2 0x5435 JUMP JUMPDEST SWAP3 POP POP DUP2 SWAP1 SSTORE POP DUP1 PUSH1 0x2 ADD PUSH1 0x0 CALLER PUSH20 0xFFFFFFFFFFFFFFFFFFFFFFFFFFFFFFFFFFFFFFFF AND PUSH20 0xFFFFFFFFFFFFFFFFFFFFFFFFFFFFFFFFFFFFFFFF AND DUP2 MSTORE PUSH1 0x20 ADD SWAP1 DUP2 MSTORE PUSH1 0x20 ADD PUSH1 0x0 KECCAK256 PUSH1 0x0 DUP1 DUP3 ADD PUSH1 0x0 PUSH2 0x100 EXP DUP2 SLOAD SWAP1 PUSH20 0xFFFFFFFFFFFFFFFFFFFFFFFFFFFFFFFFFFFFFFFF MUL NOT AND SWAP1 SSTORE PUSH1 0x1 DUP3 ADD PUSH1 0x0 SWAP1 SSTORE POP POP POP POP JUMP JUMPDEST PUSH1 0x60 PUSH1 0x0 PUSH1 0x4 SLOAD PUSH8 0xFFFFFFFFFFFFFFFF DUP2 GT ISZERO PUSH2 0x2216 JUMPI PUSH2 0x2215 PUSH2 0x4379 JUMP JUMPDEST JUMPDEST PUSH1 0x40 MLOAD SWAP1 DUP1 DUP3 MSTORE DUP1 PUSH1 0x20 MUL PUSH1 0x20 ADD DUP3 ADD PUSH1 0x40 MSTORE DUP1 ISZERO PUSH2 0x224F JUMPI DUP2 PUSH1 0x20 ADD JUMPDEST PUSH2 0x223C PUSH2 0x3D8C JUMP JUMPDEST DUP2 MSTORE PUSH1 0x20 ADD SWAP1 PUSH1 0x1 SWAP1 SUB SWAP1 DUP2 PUSH2 0x2234 JUMPI SWAP1 POP JUMPDEST POP SWAP1 POP PUSH1 0x0 DUP1 PUSH1 0x1 SWAP1 POP JUMPDEST PUSH1 0x4 SLOAD DUP2 GT PUSH2 0x24D4 JUMPI PUSH1 0x0 PUSH1 0x2 PUSH1 0x0 DUP4 DUP2 MSTORE PUSH1 0x20 ADD SWAP1 DUP2 MSTORE PUSH1 0x20 ADD PUSH1 0x0 KECCAK256 SWAP1 POP PUSH2 0x2288 CALLER DUP3 PUSH1 0x0 ADD SLOAD PUSH2 0x1A7F JUMP JUMPDEST ISZERO PUSH2 0x24C0 JUMPI PUSH1 0x40 MLOAD DUP1 PUSH2 0x140 ADD PUSH1 0x40 MSTORE DUP1 DUP3 PUSH1 0x0 ADD SLOAD DUP2 MSTORE PUSH1 0x20 ADD DUP3 PUSH1 0x1 ADD DUP1 SLOAD PUSH2 0x22B2 SWAP1 PUSH2 0x4F26 JUMP JUMPDEST DUP1 PUSH1 0x1F ADD PUSH1 0x20 DUP1 SWAP2 DIV MUL PUSH1 0x20 ADD PUSH1 0x40 MLOAD SWAP1 DUP2 ADD PUSH1 0x40 MSTORE DUP1 SWAP3 SWAP2 SWAP1 DUP2 DUP2 MSTORE PUSH1 0x20 ADD DUP3 DUP1 SLOAD PUSH2 0x22DE SWAP1 PUSH2 0x4F26 JUMP JUMPDEST DUP1 ISZERO PUSH2 0x232B JUMPI DUP1 PUSH1 0x1F LT PUSH2 0x2300 JUMPI PUSH2 0x100 DUP1 DUP4 SLOAD DIV MUL DUP4 MSTORE SWAP2 PUSH1 0x20 ADD SWAP2 PUSH2 0x232B JUMP JUMPDEST DUP3 ADD SWAP2 SWAP1 PUSH1 0x0 MSTORE PUSH1 0x20 PUSH1 0x0 KECCAK256 SWAP1 JUMPDEST DUP2 SLOAD DUP2 MSTORE SWAP1 PUSH1 0x1 ADD SWAP1 PUSH1 0x20 ADD DUP1 DUP4 GT PUSH2 0x230E JUMPI DUP3 SWAP1 SUB PUSH1 0x1F AND DUP3 ADD SWAP2 JUMPDEST POP POP POP POP POP DUP2 MSTORE PUSH1 0x20 ADD DUP3 PUSH1 0x3 ADD SLOAD DUP2 MSTORE PUSH1 0x20 ADD DUP3 PUSH1 0x9 ADD SLOAD DUP2 MSTORE PUSH1 0x20 ADD DUP3 PUSH1 0x4 ADD SLOAD DUP2 MSTORE PUSH1 0x20 ADD DUP3 PUSH1 0x5 ADD SLOAD DUP2 MSTORE PUSH1 0x20 ADD DUP3 PUSH1 0x6 ADD SLOAD DUP2 MSTORE PUSH1 0x20 ADD DUP3 PUSH1 0xA ADD DUP1 SLOAD PUSH2 0x2376 SWAP1 PUSH2 0x4F26 JUMP JUMPDEST DUP1 PUSH1 0x1F ADD PUSH1 0x20 DUP1 SWAP2 DIV MUL PUSH1 0x20 ADD PUSH1 0x40 MLOAD SWAP1 DUP2 ADD PUSH1 0x40 MSTORE DUP1 SWAP3 SWAP2 SWAP1 DUP2 DUP2 MSTORE PUSH1 0x20 ADD DUP3 DUP1 SLOAD PUSH2 0x23A2 SWAP1 PUSH2 0x4F26 JUMP JUMPDEST DUP1 ISZERO PUSH2 0x23EF JUMPI DUP1 PUSH1 0x1F LT PUSH2 0x23C4 JUMPI PUSH2 0x100 DUP1 DUP4 SLOAD DIV MUL DUP4 MSTORE SWAP2 PUSH1 0x20 ADD SWAP2 PUSH2 0x23EF JUMP JUMPDEST DUP3 ADD SWAP2 SWAP1 PUSH1 0x0 MSTORE PUSH1 0x20 PUSH1 0x0 KECCAK256 SWAP1 JUMPDEST DUP2 SLOAD DUP2 MSTORE SWAP1 PUSH1 0x1 ADD SWAP1 PUSH1 0x20 ADD DUP1 DUP4 GT PUSH2 0x23D2 JUMPI DUP3 SWAP1 SUB PUSH1 0x1F AND DUP3 ADD SWAP2 JUMPDEST POP POP POP POP POP DUP2 MSTORE PUSH1 0x20 ADD DUP3 PUSH1 0xB ADD DUP1 SLOAD PUSH2 0x2408 SWAP1 PUSH2 0x4F26 JUMP JUMPDEST DUP1 PUSH1 0x1F ADD PUSH1 0x20 DUP1 SWAP2 DIV MUL PUSH1 0x20 ADD PUSH1 0x40 MLOAD SWAP1 DUP2 ADD PUSH1 0x40 MSTORE DUP1 SWAP3 SWAP2 SWAP1 DUP2 DUP2 MSTORE PUSH1 0x20 ADD DUP3 DUP1 SLOAD PUSH2 0x2434 SWAP1 PUSH2 0x4F26 JUMP JUMPDEST DUP1 ISZERO PUSH2 0x2481 JUMPI DUP1 PUSH1 0x1F LT PUSH2 0x2456 JUMPI PUSH2 0x100 DUP1 DUP4 SLOAD DIV MUL DUP4 MSTORE SWAP2 PUSH1 0x20 ADD SWAP2 PUSH2 0x2481 JUMP JUMPDEST DUP3 ADD SWAP2 SWAP1 PUSH1 0x0 MSTORE PUSH1 0x20 PUSH1 0x0 KECCAK256 SWAP1 JUMPDEST DUP2 SLOAD DUP2 MSTORE SWAP1 PUSH1 0x1 ADD SWAP1 PUSH1 0x20 ADD DUP1 DUP4 GT PUSH2 0x2464 JUMPI DUP3 SWAP1 SUB PUSH1 0x1F AND DUP3 ADD SWAP2 JUMPDEST POP POP POP POP POP DUP2 MSTORE PUSH1 0x20 ADD DUP3 PUSH1 0xC ADD SLOAD DUP2 MSTORE POP DUP5 DUP5 DUP2 MLOAD DUP2 LT PUSH2 0x24A6 JUMPI PUSH2 0x24A5 PUSH2 0x4F58 JUMP JUMPDEST JUMPDEST PUSH1 0x20 MUL PUSH1 0x20 ADD ADD DUP2 SWAP1 MSTORE POP DUP3 DUP1 PUSH2 0x24BC SWAP1 PUSH2 0x4FB6 JUMP JUMPDEST SWAP4 POP POP JUMPDEST POP DUP1 DUP1 PUSH2 0x24CC SWAP1 PUSH2 0x4FB6 JUMP JUMPDEST SWAP2 POP POP PUSH2 0x225A JUMP JUMPDEST POP DUP2 SWAP3 POP POP POP SWAP1 JUMP JUMPDEST PUSH2 0x24E6 DUP4 PUSH2 0x2D23 JUMP JUMPDEST PUSH2 0x2525 JUMPI PUSH1 0x40 MLOAD PUSH32 0x8C379A000000000000000000000000000000000000000000000000000000000 DUP2 MSTORE PUSH1 0x4 ADD PUSH2 0x251C SWAP1 PUSH2 0x504B JUMP JUMPDEST PUSH1 0x40 MLOAD DUP1 SWAP2 SUB SWAP1 REVERT JUMPDEST PUSH2 0x252F DUP4 DUP4 PUSH2 0x32B2 JUMP JUMPDEST PUSH2 0x256E JUMPI PUSH1 0x40 MLOAD PUSH32 0x8C379A000000000000000000000000000000000000000000000000000000000 DUP2 MSTORE PUSH1 0x4 ADD PUSH2 0x2565 SWAP1 PUSH2 0x55B3 JUMP JUMPDEST PUSH1 0x40 MLOAD DUP1 SWAP2 SUB SWAP1 REVERT JUMPDEST PUSH1 0x0 PUSH1 0x2 PUSH1 0x0 DUP6 DUP2 MSTORE PUSH1 0x20 ADD SWAP1 DUP2 MSTORE PUSH1 0x20 ADD PUSH1 0x0 KECCAK256 SWAP1 POP PUSH2 0x258F CALLER DUP6 PUSH2 0x1A7F JUMP JUMPDEST PUSH2 0x25CE JUMPI PUSH1 0x40 MLOAD PUSH32 0x8C379A000000000000000000000000000000000000000000000000000000000 DUP2 MSTORE PUSH1 0x4 ADD PUSH2 0x25C5 SWAP1 PUSH2 0x50B7 JUMP JUMPDEST PUSH1 0x40 MLOAD DUP1 SWAP2 SUB SWAP1 REVERT JUMPDEST PUSH2 0x25D8 DUP4 DUP6 PUSH2 0x3AEB JUMP JUMPDEST PUSH2 0x2617 JUMPI PUSH1 0x40 MLOAD PUSH32 0x8C379A000000000000000000000000000000000000000000000000000000000 DUP2 MSTORE PUSH1 0x4 ADD PUSH2 0x260E SWAP1 PUSH2 0x51CD JUMP JUMPDEST PUSH1 0x40 MLOAD DUP1 SWAP2 SUB SWAP1 REVERT JUMPDEST PUSH1 0x0 DUP2 PUSH1 0x7 ADD PUSH1 0x0 DUP6 DUP2 MSTORE PUSH1 0x20 ADD SWAP1 DUP2 MSTORE PUSH1 0x20 ADD PUSH1 0x0 KECCAK256 SWAP1 POP PUSH2 0x263B CALLER DUP6 DUP8 PUSH2 0x12F6 JUMP JUMPDEST ISZERO PUSH2 0x267B JUMPI PUSH1 0x40 MLOAD PUSH32 0x8C379A000000000000000000000000000000000000000000000000000000000 DUP2 MSTORE PUSH1 0x4 ADD PUSH2 0x2672 SWAP1 PUSH2 0x5645 JUMP JUMPDEST PUSH1 0x40 MLOAD DUP1 SWAP2 SUB SWAP1 REVERT JUMPDEST PUSH1 0x40 MLOAD DUP1 PUSH1 0x40 ADD PUSH1 0x40 MSTORE DUP1 PUSH1 0x7 DUP2 MSTORE PUSH1 0x20 ADD PUSH32 0x50656E64696E6700000000000000000000000000000000000000000000000000 DUP2 MSTORE POP DUP1 MLOAD SWAP1 PUSH1 0x20 ADD KECCAK256 DUP2 PUSH1 0x4 ADD PUSH1 0x40 MLOAD PUSH2 0x26C9 SWAP2 SWAP1 PUSH2 0x5704 JUMP JUMPDEST PUSH1 0x40 MLOAD DUP1 SWAP2 SUB SWAP1 KECCAK256 EQ PUSH2 0x2711 JUMPI PUSH1 0x40 MLOAD PUSH32 0x8C379A000000000000000000000000000000000000000000000000000000000 DUP2 MSTORE PUSH1 0x4 ADD PUSH2 0x2708 SWAP1 PUSH2 0x578D JUMP JUMPDEST PUSH1 0x40 MLOAD DUP1 SWAP2 SUB SWAP1 REVERT JUMPDEST DUP3 ISZERO PUSH2 0x2738 JUMPI PUSH1 0x1 DUP2 PUSH1 0x6 ADD PUSH1 0x0 DUP3 DUP3 SLOAD PUSH2 0x272C SWAP2 SWAP1 PUSH2 0x50D7 JUMP JUMPDEST SWAP3 POP POP DUP2 SWAP1 SSTORE POP PUSH2 0x2755 JUMP JUMPDEST PUSH1 0x1 DUP2 PUSH1 0x7 ADD PUSH1 0x0 DUP3 DUP3 SLOAD PUSH2 0x274D SWAP2 SWAP1 PUSH2 0x50D7 JUMP JUMPDEST SWAP3 POP POP DUP2 SWAP1 SSTORE POP JUMPDEST POP POP POP POP POP JUMP JUMPDEST PUSH1 0x60 PUSH2 0x2767 DUP3 PUSH2 0x2D23 JUMP JUMPDEST PUSH2 0x27A6 JUMPI PUSH1 0x40 MLOAD PUSH32 0x8C379A000000000000000000000000000000000000000000000000000000000 DUP2 MSTORE PUSH1 0x4 ADD PUSH2 0x279D SWAP1 PUSH2 0x4ED7 JUMP JUMPDEST PUSH1 0x40 MLOAD DUP1 SWAP2 SUB SWAP1 REVERT JUMPDEST PUSH1 0x0 PUSH1 0x2 PUSH1 0x0 DUP5 DUP2 MSTORE PUSH1 0x20 ADD SWAP1 DUP2 MSTORE PUSH1 0x20 ADD PUSH1 0x0 KECCAK256 SWAP1 POP PUSH1 0x0 DUP2 PUSH1 0x9 ADD SLOAD PUSH8 0xFFFFFFFFFFFFFFFF DUP2 GT ISZERO PUSH2 0x27DD JUMPI PUSH2 0x27DC PUSH2 0x4379 JUMP JUMPDEST JUMPDEST PUSH1 0x40 MLOAD SWAP1 DUP1 DUP3 MSTORE DUP1 PUSH1 0x20 MUL PUSH1 0x20 ADD DUP3 ADD PUSH1 0x40 MSTORE DUP1 ISZERO PUSH2 0x2816 JUMPI DUP2 PUSH1 0x20 ADD JUMPDEST PUSH2 0x2803 PUSH2 0x3D0D JUMP JUMPDEST DUP2 MSTORE PUSH1 0x20 ADD SWAP1 PUSH1 0x1 SWAP1 SUB SWAP1 DUP2 PUSH2 0x27FB JUMPI SWAP1 POP JUMPDEST POP SWAP1 POP PUSH1 0x0 DUP1 PUSH1 0x1 SWAP1 POP JUMPDEST DUP4 PUSH1 0x9 ADD SLOAD DUP2 GT PUSH2 0x29E7 JUMPI PUSH1 0x0 DUP5 PUSH1 0x8 ADD PUSH1 0x0 DUP4 DUP2 MSTORE PUSH1 0x20 ADD SWAP1 DUP2 MSTORE PUSH1 0x20 ADD PUSH1 0x0 KECCAK256 SWAP1 POP PUSH1 0x40 MLOAD DUP1 PUSH2 0x140 ADD PUSH1 0x40 MSTORE DUP1 DUP3 PUSH1 0x0 ADD SLOAD DUP2 MSTORE PUSH1 0x20 ADD DUP3 PUSH1 0x1 ADD PUSH1 0x0 SWAP1 SLOAD SWAP1 PUSH2 0x100 EXP SWAP1 DIV PUSH20 0xFFFFFFFFFFFFFFFFFFFFFFFFFFFFFFFFFFFFFFFF AND PUSH20 0xFFFFFFFFFFFFFFFFFFFFFFFFFFFFFFFFFFFFFFFF AND DUP2 MSTORE PUSH1 0x20 ADD DUP3 PUSH1 0x2 ADD PUSH1 0x0 SWAP1 SLOAD SWAP1 PUSH2 0x100 EXP SWAP1 DIV PUSH20 0xFFFFFFFFFFFFFFFFFFFFFFFFFFFFFFFFFFFFFFFF AND PUSH20 0xFFFFFFFFFFFFFFFFFFFFFFFFFFFFFFFFFFFFFFFF AND DUP2 MSTORE PUSH1 0x20 ADD DUP3 PUSH1 0x3 ADD SLOAD DUP2 MSTORE PUSH1 0x20 ADD DUP3 PUSH1 0x4 ADD SLOAD DUP2 MSTORE PUSH1 0x20 ADD DUP3 PUSH1 0x5 ADD DUP1 SLOAD PUSH2 0x28FE SWAP1 PUSH2 0x4F26 JUMP JUMPDEST DUP1 PUSH1 0x1F ADD PUSH1 0x20 DUP1 SWAP2 DIV MUL PUSH1 0x20 ADD PUSH1 0x40 MLOAD SWAP1 DUP2 ADD PUSH1 0x40 MSTORE DUP1 SWAP3 SWAP2 SWAP1 DUP2 DUP2 MSTORE PUSH1 0x20 ADD DUP3 DUP1 SLOAD PUSH2 0x292A SWAP1 PUSH2 0x4F26 JUMP JUMPDEST DUP1 ISZERO PUSH2 0x2977 JUMPI DUP1 PUSH1 0x1F LT PUSH2 0x294C JUMPI PUSH2 0x100 DUP1 DUP4 SLOAD DIV MUL DUP4 MSTORE SWAP2 PUSH1 0x20 ADD SWAP2 PUSH2 0x2977 JUMP JUMPDEST DUP3 ADD SWAP2 SWAP1 PUSH1 0x0 MSTORE PUSH1 0x20 PUSH1 0x0 KECCAK256 SWAP1 JUMPDEST DUP2 SLOAD DUP2 MSTORE SWAP1 PUSH1 0x1 ADD SWAP1 PUSH1 0x20 ADD DUP1 DUP4 GT PUSH2 0x295A JUMPI DUP3 SWAP1 SUB PUSH1 0x1F AND DUP3 ADD SWAP2 JUMPDEST POP POP POP POP POP DUP2 MSTORE PUSH1 0x20 ADD DUP3 PUSH1 0x6 ADD SLOAD DUP2 MSTORE PUSH1 0x20 ADD DUP3 PUSH1 0x7 ADD SLOAD DUP2 MSTORE PUSH1 0x20 ADD DUP3 PUSH1 0x8 ADD SLOAD DUP2 MSTORE PUSH1 0x20 ADD DUP3 PUSH1 0x9 ADD SLOAD DUP2 MSTORE POP DUP5 DUP5 DUP2 MLOAD DUP2 LT PUSH2 0x29BA JUMPI PUSH2 0x29B9 PUSH2 0x4F58 JUMP JUMPDEST JUMPDEST PUSH1 0x20 MUL PUSH1 0x20 ADD ADD DUP2 SWAP1 MSTORE POP DUP3 DUP1 PUSH2 0x29D0 SWAP1 PUSH2 0x4FB6 JUMP JUMPDEST SWAP4 POP POP POP DUP1 DUP1 PUSH2 0x29DF SWAP1 PUSH2 0x4FB6 JUMP JUMPDEST SWAP2 POP POP PUSH2 0x2821 JUMP JUMPDEST POP DUP2 SWAP4 POP POP POP POP SWAP2 SWAP1 POP JUMP JUMPDEST PUSH1 0x60 PUSH1 0x0 PUSH1 0x4 SLOAD PUSH8 0xFFFFFFFFFFFFFFFF DUP2 GT ISZERO PUSH2 0x2A13 JUMPI PUSH2 0x2A12 PUSH2 0x4379 JUMP JUMPDEST JUMPDEST PUSH1 0x40 MLOAD SWAP1 DUP1 DUP3 MSTORE DUP1 PUSH1 0x20 MUL PUSH1 0x20 ADD DUP3 ADD PUSH1 0x40 MSTORE DUP1 ISZERO PUSH2 0x2A4C JUMPI DUP2 PUSH1 0x20 ADD JUMPDEST PUSH2 0x2A39 PUSH2 0x3D8C JUMP JUMPDEST DUP2 MSTORE PUSH1 0x20 ADD SWAP1 PUSH1 0x1 SWAP1 SUB SWAP1 DUP2 PUSH2 0x2A31 JUMPI SWAP1 POP JUMPDEST POP SWAP1 POP PUSH1 0x0 JUMPDEST PUSH1 0x4 SLOAD DUP2 LT ISZERO PUSH2 0x2CB7 JUMPI PUSH1 0x0 PUSH1 0x2 PUSH1 0x0 PUSH1 0x1 DUP5 PUSH2 0x2A6F SWAP2 SWAP1 PUSH2 0x50D7 JUMP JUMPDEST DUP2 MSTORE PUSH1 0x20 ADD SWAP1 DUP2 MSTORE PUSH1 0x20 ADD PUSH1 0x0 KECCAK256 SWAP1 POP PUSH1 0x40 MLOAD DUP1 PUSH2 0x140 ADD PUSH1 0x40 MSTORE DUP1 DUP3 PUSH1 0x0 ADD SLOAD DUP2 MSTORE PUSH1 0x20 ADD DUP3 PUSH1 0x1 ADD DUP1 SLOAD PUSH2 0x2AA4 SWAP1 PUSH2 0x4F26 JUMP JUMPDEST DUP1 PUSH1 0x1F ADD PUSH1 0x20 DUP1 SWAP2 DIV MUL PUSH1 0x20 ADD PUSH1 0x40 MLOAD SWAP1 DUP2 ADD PUSH1 0x40 MSTORE DUP1 SWAP3 SWAP2 SWAP1 DUP2 DUP2 MSTORE PUSH1 0x20 ADD DUP3 DUP1 SLOAD PUSH2 0x2AD0 SWAP1 PUSH2 0x4F26 JUMP JUMPDEST DUP1 ISZERO PUSH2 0x2B1D JUMPI DUP1 PUSH1 0x1F LT PUSH2 0x2AF2 JUMPI PUSH2 0x100 DUP1 DUP4 SLOAD DIV MUL DUP4 MSTORE SWAP2 PUSH1 0x20 ADD SWAP2 PUSH2 0x2B1D JUMP JUMPDEST DUP3 ADD SWAP2 SWAP1 PUSH1 0x0 MSTORE PUSH1 0x20 PUSH1 0x0 KECCAK256 SWAP1 JUMPDEST DUP2 SLOAD DUP2 MSTORE SWAP1 PUSH1 0x1 ADD SWAP1 PUSH1 0x20 ADD DUP1 DUP4 GT PUSH2 0x2B00 JUMPI DUP3 SWAP1 SUB PUSH1 0x1F AND DUP3 ADD SWAP2 JUMPDEST POP POP POP POP POP DUP2 MSTORE PUSH1 0x20 ADD DUP3 PUSH1 0x3 ADD SLOAD DUP2 MSTORE PUSH1 0x20 ADD DUP3 PUSH1 0x5 ADD SLOAD DUP2 MSTORE PUSH1 0x20 ADD DUP3 PUSH1 0x6 ADD SLOAD DUP2 MSTORE PUSH1 0x20 ADD DUP3 PUSH1 0x9 ADD SLOAD DUP2 MSTORE PUSH1 0x20 ADD DUP3 PUSH1 0x4 ADD SLOAD DUP2 MSTORE PUSH1 0x20 ADD DUP3 PUSH1 0xA ADD DUP1 SLOAD PUSH2 0x2B68 SWAP1 PUSH2 0x4F26 JUMP JUMPDEST DUP1 PUSH1 0x1F ADD PUSH1 0x20 DUP1 SWAP2 DIV MUL PUSH1 0x20 ADD PUSH1 0x40 MLOAD SWAP1 DUP2 ADD PUSH1 0x40 MSTORE DUP1 SWAP3 SWAP2 SWAP1 DUP2 DUP2 MSTORE PUSH1 0x20 ADD DUP3 DUP1 SLOAD PUSH2 0x2B94 SWAP1 PUSH2 0x4F26 JUMP JUMPDEST DUP1 ISZERO PUSH2 0x2BE1 JUMPI DUP1 PUSH1 0x1F LT PUSH2 0x2BB6 JUMPI PUSH2 0x100 DUP1 DUP4 SLOAD DIV MUL DUP4 MSTORE SWAP2 PUSH1 0x20 ADD SWAP2 PUSH2 0x2BE1 JUMP JUMPDEST DUP3 ADD SWAP2 SWAP1 PUSH1 0x0 MSTORE PUSH1 0x20 PUSH1 0x0 KECCAK256 SWAP1 JUMPDEST DUP2 SLOAD DUP2 MSTORE SWAP1 PUSH1 0x1 ADD SWAP1 PUSH1 0x20 ADD DUP1 DUP4 GT PUSH2 0x2BC4 JUMPI DUP3 SWAP1 SUB PUSH1 0x1F AND DUP3 ADD SWAP2 JUMPDEST POP POP POP POP POP DUP2 MSTORE PUSH1 0x20 ADD DUP3 PUSH1 0xB ADD DUP1 SLOAD PUSH2 0x2BFA SWAP1 PUSH2 0x4F26 JUMP JUMPDEST DUP1 PUSH1 0x1F ADD PUSH1 0x20 DUP1 SWAP2 DIV MUL PUSH1 0x20 ADD PUSH1 0x40 MLOAD SWAP1 DUP2 ADD PUSH1 0x40 MSTORE DUP1 SWAP3 SWAP2 SWAP1 DUP2 DUP2 MSTORE PUSH1 0x20 ADD DUP3 DUP1 SLOAD PUSH2 0x2C26 SWAP1 PUSH2 0x4F26 JUMP JUMPDEST DUP1 ISZERO PUSH2 0x2C73 JUMPI DUP1 PUSH1 0x1F LT PUSH2 0x2C48 JUMPI PUSH2 0x100 DUP1 DUP4 SLOAD DIV MUL DUP4 MSTORE SWAP2 PUSH1 0x20 ADD SWAP2 PUSH2 0x2C73 JUMP JUMPDEST DUP3 ADD SWAP2 SWAP1 PUSH1 0x0 MSTORE PUSH1 0x20 PUSH1 0x0 KECCAK256 SWAP1 JUMPDEST DUP2 SLOAD DUP2 MSTORE SWAP1 PUSH1 0x1 ADD SWAP1 PUSH1 0x20 ADD DUP1 DUP4 GT PUSH2 0x2C56 JUMPI DUP3 SWAP1 SUB PUSH1 0x1F AND DUP3 ADD SWAP2 JUMPDEST POP POP POP POP POP DUP2 MSTORE PUSH1 0x20 ADD DUP3 PUSH1 0xC ADD SLOAD DUP2 MSTORE POP DUP4 DUP4 DUP2 MLOAD DUP2 LT PUSH2 0x2C98 JUMPI PUSH2 0x2C97 PUSH2 0x4F58 JUMP JUMPDEST JUMPDEST PUSH1 0x20 MUL PUSH1 0x20 ADD ADD DUP2 SWAP1 MSTORE POP POP DUP1 DUP1 PUSH2 0x2CAF SWAP1 PUSH2 0x4FB6 JUMP JUMPDEST SWAP2 POP POP PUSH2 0x2A52 JUMP JUMPDEST POP DUP1 SWAP2 POP POP SWAP1 JUMP JUMPDEST PUSH1 0x0 PUSH1 0x2 PUSH1 0x0 DUP7 DUP2 MSTORE PUSH1 0x20 ADD SWAP1 DUP2 MSTORE PUSH1 0x20 ADD PUSH1 0x0 KECCAK256 PUSH1 0x7 ADD PUSH1 0x0 DUP6 DUP2 MSTORE PUSH1 0x20 ADD SWAP1 DUP2 MSTORE PUSH1 0x20 ADD PUSH1 0x0 KECCAK256 SWAP1 POP DUP3 DUP2 PUSH1 0xB ADD SWAP1 DUP1 MLOAD SWAP1 PUSH1 0x20 ADD SWAP1 PUSH2 0x2D02 SWAP3 SWAP2 SWAP1 PUSH2 0x3C87 JUMP JUMPDEST POP DUP2 DUP2 PUSH1 0xC ADD SWAP1 DUP1 MLOAD SWAP1 PUSH1 0x20 ADD SWAP1 PUSH2 0x2D1B SWAP3 SWAP2 SWAP1 PUSH2 0x3C87 JUMP JUMPDEST POP POP POP POP POP POP JUMP JUMPDEST PUSH1 0x0 DUP1 PUSH1 0x2 PUSH1 0x0 DUP5 DUP2 MSTORE PUSH1 0x20 ADD SWAP1 DUP2 MSTORE PUSH1 0x20 ADD PUSH1 0x0 KECCAK256 PUSH1 0x0 ADD SLOAD EQ ISZERO SWAP1 POP SWAP2 SWAP1 POP JUMP JUMPDEST PUSH2 0x2D4F DUP2 PUSH2 0x2D23 JUMP JUMPDEST PUSH2 0x2D8E JUMPI PUSH1 0x40 MLOAD PUSH32 0x8C379A000000000000000000000000000000000000000000000000000000000 DUP2 MSTORE PUSH1 0x4 ADD PUSH2 0x2D85 SWAP1 PUSH2 0x57F9 JUMP JUMPDEST PUSH1 0x40 MLOAD DUP1 SWAP2 SUB SWAP1 REVERT JUMPDEST PUSH1 0x0 PUSH1 0x2 PUSH1 0x0 DUP4 DUP2 MSTORE PUSH1 0x20 ADD SWAP1 DUP2 MSTORE PUSH1 0x20 ADD PUSH1 0x0 KECCAK256 SWAP1 POP PUSH1 0x40 MLOAD DUP1 PUSH1 0x40 ADD PUSH1 0x40 MSTORE DUP1 PUSH1 0x8 DUP2 MSTORE PUSH1 0x20 ADD PUSH32 0x5665726966696564000000000000000000000000000000000000000000000000 DUP2 MSTORE POP DUP2 PUSH1 0xB ADD SWAP1 DUP1 MLOAD SWAP1 PUSH1 0x20 ADD SWAP1 PUSH2 0x2DF2 SWAP3 SWAP2 SWAP1 PUSH2 0x3C87 JUMP JUMPDEST POP POP POP JUMP JUMPDEST PUSH1 0x0 DUP1 PUSH1 0x2 PUSH1 0x0 DUP5 DUP2 MSTORE PUSH1 0x20 ADD SWAP1 DUP2 MSTORE PUSH1 0x20 ADD PUSH1 0x0 KECCAK256 SWAP1 POP PUSH1 0x0 DUP2 PUSH1 0x2 ADD PUSH1 0x0 DUP7 PUSH20 0xFFFFFFFFFFFFFFFFFFFFFFFFFFFFFFFFFFFFFFFF AND PUSH20 0xFFFFFFFFFFFFFFFFFFFFFFFFFFFFFFFFFFFFFFFF AND DUP2 MSTORE PUSH1 0x20 ADD SWAP1 DUP2 MSTORE PUSH1 0x20 ADD PUSH1 0x0 KECCAK256 SWAP1 POP DUP1 PUSH1 0x1 ADD SLOAD SWAP3 POP POP POP SWAP3 SWAP2 POP POP JUMP JUMPDEST PUSH2 0x2E6C DUP6 PUSH2 0x2D23 JUMP JUMPDEST PUSH2 0x2EAB JUMPI PUSH1 0x40 MLOAD PUSH32 0x8C379A000000000000000000000000000000000000000000000000000000000 DUP2 MSTORE PUSH1 0x4 ADD PUSH2 0x2EA2 SWAP1 PUSH2 0x504B JUMP JUMPDEST PUSH1 0x40 MLOAD DUP1 SWAP2 SUB SWAP1 REVERT JUMPDEST PUSH1 0x0 PUSH1 0x2 PUSH1 0x0 DUP8 DUP2 MSTORE PUSH1 0x20 ADD SWAP1 DUP2 MSTORE PUSH1 0x20 ADD PUSH1 0x0 KECCAK256 SWAP1 POP PUSH2 0x2ECC CALLER DUP8 PUSH2 0x1A7F JUMP JUMPDEST PUSH2 0x2F0B JUMPI PUSH1 0x40 MLOAD PUSH32 0x8C379A000000000000000000000000000000000000000000000000000000000 DUP2 MSTORE PUSH1 0x4 ADD PUSH2 0x2F02 SWAP1 PUSH2 0x50B7 JUMP JUMPDEST PUSH1 0x40 MLOAD DUP1 SWAP2 SUB SWAP1 REVERT JUMPDEST PUSH1 0x0 DUP6 GT PUSH2 0x2F4E JUMPI PUSH1 0x40 MLOAD PUSH32 0x8C379A000000000000000000000000000000000000000000000000000000000 DUP2 MSTORE PUSH1 0x4 ADD PUSH2 0x2F45 SWAP1 PUSH2 0x588B JUMP JUMPDEST PUSH1 0x40 MLOAD DUP1 SWAP2 SUB SWAP1 REVERT JUMPDEST PUSH1 0x0 PUSH1 0x1 DUP3 PUSH1 0x9 ADD SLOAD PUSH2 0x2F61 SWAP2 SWAP1 PUSH2 0x50D7 JUMP JUMPDEST SWAP1 POP PUSH1 0x0 PUSH1 0x2 PUSH1 0x0 DUP10 DUP2 MSTORE PUSH1 0x20 ADD SWAP1 DUP2 MSTORE PUSH1 0x20 ADD PUSH1 0x0 KECCAK256 PUSH1 0x7 ADD PUSH1 0x0 DUP4 DUP2 MSTORE PUSH1 0x20 ADD SWAP1 DUP2 MSTORE PUSH1 0x20 ADD PUSH1 0x0 KECCAK256 SWAP1 POP DUP2 DUP2 PUSH1 0x0 ADD DUP2 SWAP1 SSTORE POP CALLER DUP2 PUSH1 0x1 ADD PUSH1 0x0 PUSH2 0x100 EXP DUP2 SLOAD DUP2 PUSH20 0xFFFFFFFFFFFFFFFFFFFFFFFFFFFFFFFFFFFFFFFF MUL NOT AND SWAP1 DUP4 PUSH20 0xFFFFFFFFFFFFFFFFFFFFFFFFFFFFFFFFFFFFFFFF AND MUL OR SWAP1 SSTORE POP DUP7 DUP2 PUSH1 0x2 ADD DUP2 SWAP1 SSTORE POP DUP6 DUP2 PUSH1 0x3 ADD PUSH1 0x0 PUSH2 0x100 EXP DUP2 SLOAD DUP2 PUSH20 0xFFFFFFFFFFFFFFFFFFFFFFFFFFFFFFFFFFFFFFFF MUL NOT AND SWAP1 DUP4 PUSH20 0xFFFFFFFFFFFFFFFFFFFFFFFFFFFFFFFFFFFFFFFF AND MUL OR SWAP1 SSTORE POP PUSH1 0x40 MLOAD DUP1 PUSH1 0x40 ADD PUSH1 0x40 MSTORE DUP1 PUSH1 0x7 DUP2 MSTORE PUSH1 0x20 ADD PUSH32 0x50656E64696E6700000000000000000000000000000000000000000000000000 DUP2 MSTORE POP DUP2 PUSH1 0x4 ADD SWAP1 DUP1 MLOAD SWAP1 PUSH1 0x20 ADD SWAP1 PUSH2 0x3073 SWAP3 SWAP2 SWAP1 PUSH2 0x3C87 JUMP JUMPDEST POP DUP5 DUP2 PUSH1 0x5 ADD SWAP1 DUP1 MLOAD SWAP1 PUSH1 0x20 ADD SWAP1 PUSH2 0x308C SWAP3 SWAP2 SWAP1 PUSH2 0x3C87 JUMP JUMPDEST POP PUSH1 0x0 DUP2 PUSH1 0x6 ADD DUP2 SWAP1 SSTORE POP PUSH1 0x0 DUP2 PUSH1 0x7 ADD DUP2 SWAP1 SSTORE POP TIMESTAMP DUP2 PUSH1 0x8 ADD DUP2 SWAP1 SSTORE POP PUSH2 0x12C TIMESTAMP PUSH2 0x30B8 SWAP2 SWAP1 PUSH2 0x50D7 JUMP JUMPDEST DUP2 PUSH1 0x9 ADD DUP2 SWAP1 SSTORE POP DUP4 DUP2 PUSH1 0xA ADD SWAP1 DUP1 MLOAD SWAP1 PUSH1 0x20 ADD SWAP1 PUSH2 0x30D8 SWAP3 SWAP2 SWAP1 PUSH2 0x3C87 JUMP JUMPDEST POP PUSH1 0x40 MLOAD DUP1 PUSH1 0x40 ADD PUSH1 0x40 MSTORE DUP1 PUSH1 0xA DUP2 MSTORE PUSH1 0x20 ADD PUSH32 0x494E2050726F6365737300000000000000000000000000000000000000000000 DUP2 MSTORE POP DUP2 PUSH1 0xB ADD SWAP1 DUP1 MLOAD SWAP1 PUSH1 0x20 ADD SWAP1 PUSH2 0x3126 SWAP3 SWAP2 SWAP1 PUSH2 0x3C87 JUMP JUMPDEST POP PUSH1 0x40 MLOAD DUP1 PUSH1 0x40 ADD PUSH1 0x40 MSTORE DUP1 PUSH1 0xA DUP2 MSTORE PUSH1 0x20 ADD PUSH32 0x494E2D50726F6365737300000000000000000000000000000000000000000000 DUP2 MSTORE POP DUP2 PUSH1 0xC ADD SWAP1 DUP1 MLOAD SWAP1 PUSH1 0x20 ADD SWAP1 PUSH2 0x3174 SWAP3 SWAP2 SWAP1 PUSH2 0x3C87 JUMP JUMPDEST POP PUSH1 0x0 DUP2 PUSH1 0xF ADD DUP2 SWAP1 SSTORE POP PUSH1 0x40 MLOAD DUP1 PUSH1 0x40 ADD PUSH1 0x40 MSTORE DUP1 PUSH1 0xA DUP2 MSTORE PUSH1 0x20 ADD PUSH32 0x494E2D50726F6365737300000000000000000000000000000000000000000000 DUP2 MSTORE POP DUP2 PUSH1 0xE ADD SWAP1 DUP1 MLOAD SWAP1 PUSH1 0x20 ADD SWAP1 PUSH2 0x31CC SWAP3 SWAP2 SWAP1 PUSH2 0x3C87 JUMP JUMPDEST POP PUSH1 0x40 MLOAD DUP1 PUSH1 0x40 ADD PUSH1 0x40 MSTORE DUP1 PUSH1 0xB DUP2 MSTORE PUSH1 0x20 ADD PUSH32 0x556E2D5665726966696564000000000000000000000000000000000000000000 DUP2 MSTORE POP DUP2 PUSH1 0xD ADD SWAP1 DUP1 MLOAD SWAP1 PUSH1 0x20 ADD SWAP1 PUSH2 0x321A SWAP3 SWAP2 SWAP1 PUSH2 0x3C87 JUMP JUMPDEST POP DUP2 DUP4 PUSH1 0x9 ADD DUP2 SWAP1 SSTORE POP POP POP POP POP POP POP POP POP JUMP JUMPDEST PUSH1 0x0 PUSH1 0x2 PUSH1 0x0 DUP5 DUP2 MSTORE PUSH1 0x20 ADD SWAP1 DUP2 MSTORE PUSH1 0x20 ADD PUSH1 0x0 KECCAK256 PUSH1 0x7 ADD PUSH1 0x0 DUP4 DUP2 MSTORE PUSH1 0x20 ADD SWAP1 DUP2 MSTORE PUSH1 0x20 ADD PUSH1 0x0 KECCAK256 SWAP1 POP PUSH1 0x40 MLOAD DUP1 PUSH1 0x40 ADD PUSH1 0x40 MSTORE DUP1 PUSH1 0x8 DUP2 MSTORE PUSH1 0x20 ADD PUSH32 0x5665726966696564000000000000000000000000000000000000000000000000 DUP2 MSTORE POP DUP2 PUSH1 0xD ADD SWAP1 DUP1 MLOAD SWAP1 PUSH1 0x20 ADD SWAP1 PUSH2 0x32A6 SWAP3 SWAP2 SWAP1 PUSH2 0x3C87 JUMP JUMPDEST POP POP POP POP JUMP JUMPDEST PUSH1 0x8 SLOAD DUP2 JUMP JUMPDEST PUSH1 0x0 DUP1 PUSH1 0x2 PUSH1 0x0 DUP6 DUP2 MSTORE PUSH1 0x20 ADD SWAP1 DUP2 MSTORE PUSH1 0x20 ADD PUSH1 0x0 KECCAK256 PUSH1 0x8 ADD PUSH1 0x0 DUP5 DUP2 MSTORE PUSH1 0x20 ADD SWAP1 DUP2 MSTORE PUSH1 0x20 ADD PUSH1 0x0 KECCAK256 SWAP1 POP TIMESTAMP DUP2 PUSH1 0x4 ADD SLOAD GT SWAP2 POP POP SWAP3 SWAP2 POP POP JUMP JUMPDEST PUSH1 0x0 PUSH1 0x3 PUSH1 0x0 DUP4 PUSH20 0xFFFFFFFFFFFFFFFFFFFFFFFFFFFFFFFFFFFFFFFF AND PUSH20 0xFFFFFFFFFFFFFFFFFFFFFFFFFFFFFFFFFFFFFFFF AND DUP2 MSTORE PUSH1 0x20 ADD SWAP1 DUP2 MSTORE PUSH1 0x20 ADD PUSH1 0x0 KECCAK256 PUSH1 0x0 SWAP1 SLOAD SWAP1 PUSH2 0x100 EXP SWAP1 DIV PUSH1 0xFF AND SWAP1 POP SWAP2 SWAP1 POP JUMP JUMPDEST PUSH1 0x0 DUP1 PUSH1 0x0 DUP1 SLOAD SWAP1 PUSH2 0x100 EXP SWAP1 DIV PUSH20 0xFFFFFFFFFFFFFFFFFFFFFFFFFFFFFFFFFFFFFFFF AND PUSH20 0xFFFFFFFFFFFFFFFFFFFFFFFFFFFFFFFFFFFFFFFF AND PUSH4 0xFEAF968C PUSH1 0x40 MLOAD DUP2 PUSH4 0xFFFFFFFF AND PUSH1 0xE0 SHL DUP2 MSTORE PUSH1 0x4 ADD PUSH1 0xA0 PUSH1 0x40 MLOAD DUP1 DUP4 SUB DUP2 DUP7 GAS STATICCALL ISZERO DUP1 ISZERO PUSH2 0x33B2 JUMPI RETURNDATASIZE PUSH1 0x0 DUP1 RETURNDATACOPY RETURNDATASIZE PUSH1 0x0 REVERT JUMPDEST POP POP POP POP PUSH1 0x40 MLOAD RETURNDATASIZE PUSH1 0x1F NOT PUSH1 0x1F DUP3 ADD AND DUP3 ADD DUP1 PUSH1 0x40 MSTORE POP DUP2 ADD SWAP1 PUSH2 0x33D6 SWAP2 SWAP1 PUSH2 0x5917 JUMP JUMPDEST POP POP POP SWAP2 POP POP DUP1 SWAP2 POP POP SWAP1 JUMP JUMPDEST PUSH1 0x0 DUP1 PUSH1 0x2 PUSH1 0x0 DUP5 DUP2 MSTORE PUSH1 0x20 ADD SWAP1 DUP2 MSTORE PUSH1 0x20 ADD PUSH1 0x0 KECCAK256 PUSH1 0x8 ADD PUSH1 0x0 DUP6 DUP2 MSTORE PUSH1 0x20 ADD SWAP1 DUP2 MSTORE PUSH1 0x20 ADD PUSH1 0x0 KECCAK256 PUSH1 0x0 ADD SLOAD EQ ISZERO SWAP1 POP SWAP3 SWAP2 POP POP JUMP JUMPDEST PUSH2 0x3423 PUSH2 0x3D8C JUMP JUMPDEST PUSH2 0x342C DUP3 PUSH2 0x2D23 JUMP JUMPDEST PUSH2 0x346B JUMPI PUSH1 0x40 MLOAD PUSH32 0x8C379A000000000000000000000000000000000000000000000000000000000 DUP2 MSTORE PUSH1 0x4 ADD PUSH2 0x3462 SWAP1 PUSH2 0x504B JUMP JUMPDEST PUSH1 0x40 MLOAD DUP1 SWAP2 SUB SWAP1 REVERT JUMPDEST PUSH1 0x0 PUSH1 0x2 PUSH1 0x0 DUP5 DUP2 MSTORE PUSH1 0x20 ADD SWAP1 DUP2 MSTORE PUSH1 0x20 ADD PUSH1 0x0 KECCAK256 SWAP1 POP PUSH1 0x0 PUSH1 0x40 MLOAD DUP1 PUSH2 0x140 ADD PUSH1 0x40 MSTORE DUP1 DUP4 PUSH1 0x0 ADD SLOAD DUP2 MSTORE PUSH1 0x20 ADD DUP4 PUSH1 0x1 ADD DUP1 SLOAD PUSH2 0x34A9 SWAP1 PUSH2 0x4F26 JUMP JUMPDEST DUP1 PUSH1 0x1F ADD PUSH1 0x20 DUP1 SWAP2 DIV MUL PUSH1 0x20 ADD PUSH1 0x40 MLOAD SWAP1 DUP2 ADD PUSH1 0x40 MSTORE DUP1 SWAP3 SWAP2 SWAP1 DUP2 DUP2 MSTORE PUSH1 0x20 ADD DUP3 DUP1 SLOAD PUSH2 0x34D5 SWAP1 PUSH2 0x4F26 JUMP JUMPDEST DUP1 ISZERO PUSH2 0x3522 JUMPI DUP1 PUSH1 0x1F LT PUSH2 0x34F7 JUMPI PUSH2 0x100 DUP1 DUP4 SLOAD DIV MUL DUP4 MSTORE SWAP2 PUSH1 0x20 ADD SWAP2 PUSH2 0x3522 JUMP JUMPDEST DUP3 ADD SWAP2 SWAP1 PUSH1 0x0 MSTORE PUSH1 0x20 PUSH1 0x0 KECCAK256 SWAP1 JUMPDEST DUP2 SLOAD DUP2 MSTORE SWAP1 PUSH1 0x1 ADD SWAP1 PUSH1 0x20 ADD DUP1 DUP4 GT PUSH2 0x3505 JUMPI DUP3 SWAP1 SUB PUSH1 0x1F AND DUP3 ADD SWAP2 JUMPDEST POP POP POP POP POP DUP2 MSTORE PUSH1 0x20 ADD DUP4 PUSH1 0x3 ADD SLOAD DUP2 MSTORE PUSH1 0x20 ADD DUP4 PUSH1 0x9 ADD SLOAD DUP2 MSTORE PUSH1 0x20 ADD DUP4 PUSH1 0x4 ADD SLOAD DUP2 MSTORE PUSH1 0x20 ADD DUP4 PUSH1 0x5 ADD SLOAD DUP2 MSTORE PUSH1 0x20 ADD DUP4 PUSH1 0x6 ADD SLOAD DUP2 MSTORE PUSH1 0x20 ADD DUP4 PUSH1 0xA ADD DUP1 SLOAD PUSH2 0x356D SWAP1 PUSH2 0x4F26 JUMP JUMPDEST DUP1 PUSH1 0x1F ADD PUSH1 0x20 DUP1 SWAP2 DIV MUL PUSH1 0x20 ADD PUSH1 0x40 MLOAD SWAP1 DUP2 ADD PUSH1 0x40 MSTORE DUP1 SWAP3 SWAP2 SWAP1 DUP2 DUP2 MSTORE PUSH1 0x20 ADD DUP3 DUP1 SLOAD PUSH2 0x3599 SWAP1 PUSH2 0x4F26 JUMP JUMPDEST DUP1 ISZERO PUSH2 0x35E6 JUMPI DUP1 PUSH1 0x1F LT PUSH2 0x35BB JUMPI PUSH2 0x100 DUP1 DUP4 SLOAD DIV MUL DUP4 MSTORE SWAP2 PUSH1 0x20 ADD SWAP2 PUSH2 0x35E6 JUMP JUMPDEST DUP3 ADD SWAP2 SWAP1 PUSH1 0x0 MSTORE PUSH1 0x20 PUSH1 0x0 KECCAK256 SWAP1 JUMPDEST DUP2 SLOAD DUP2 MSTORE SWAP1 PUSH1 0x1 ADD SWAP1 PUSH1 0x20 ADD DUP1 DUP4 GT PUSH2 0x35C9 JUMPI DUP3 SWAP1 SUB PUSH1 0x1F AND DUP3 ADD SWAP2 JUMPDEST POP POP POP POP POP DUP2 MSTORE PUSH1 0x20 ADD DUP4 PUSH1 0xB ADD DUP1 SLOAD PUSH2 0x35FF SWAP1 PUSH2 0x4F26 JUMP JUMPDEST DUP1 PUSH1 0x1F ADD PUSH1 0x20 DUP1 SWAP2 DIV MUL PUSH1 0x20 ADD PUSH1 0x40 MLOAD SWAP1 DUP2 ADD PUSH1 0x40 MSTORE DUP1 SWAP3 SWAP2 SWAP1 DUP2 DUP2 MSTORE PUSH1 0x20 ADD DUP3 DUP1 SLOAD PUSH2 0x362B SWAP1 PUSH2 0x4F26 JUMP JUMPDEST DUP1 ISZERO PUSH2 0x3678 JUMPI DUP1 PUSH1 0x1F LT PUSH2 0x364D JUMPI PUSH2 0x100 DUP1 DUP4 SLOAD DIV MUL DUP4 MSTORE SWAP2 PUSH1 0x20 ADD SWAP2 PUSH2 0x3678 JUMP JUMPDEST DUP3 ADD SWAP2 SWAP1 PUSH1 0x0 MSTORE PUSH1 0x20 PUSH1 0x0 KECCAK256 SWAP1 JUMPDEST DUP2 SLOAD DUP2 MSTORE SWAP1 PUSH1 0x1 ADD SWAP1 PUSH1 0x20 ADD DUP1 DUP4 GT PUSH2 0x365B JUMPI DUP3 SWAP1 SUB PUSH1 0x1F AND DUP3 ADD SWAP2 JUMPDEST POP POP POP POP POP DUP2 MSTORE PUSH1 0x20 ADD DUP4 PUSH1 0xC ADD SLOAD DUP2 MSTORE POP SWAP1 POP DUP1 SWAP3 POP POP POP SWAP2 SWAP1 POP JUMP JUMPDEST PUSH1 0x0 PUSH1 0x63 PUSH1 0x2 PUSH1 0x0 DUP5 DUP2 MSTORE PUSH1 0x20 ADD SWAP1 DUP2 MSTORE PUSH1 0x20 ADD PUSH1 0x0 KECCAK256 PUSH1 0x3 ADD SLOAD LT SWAP1 POP SWAP2 SWAP1 POP JUMP JUMPDEST PUSH1 0x0 PUSH1 0x1 SLOAD SWAP1 POP SWAP1 JUMP JUMPDEST PUSH2 0x36CC DUP2 PUSH2 0x2D23 JUMP JUMPDEST PUSH2 0x370B JUMPI PUSH1 0x40 MLOAD PUSH32 0x8C379A000000000000000000000000000000000000000000000000000000000 DUP2 MSTORE PUSH1 0x4 ADD PUSH2 0x3702 SWAP1 PUSH2 0x57F9 JUMP JUMPDEST PUSH1 0x40 MLOAD DUP1 SWAP2 SUB SWAP1 REVERT JUMPDEST PUSH1 0x0 PUSH1 0x2 PUSH1 0x0 DUP4 DUP2 MSTORE PUSH1 0x20 ADD SWAP1 DUP2 MSTORE PUSH1 0x20 ADD PUSH1 0x0 KECCAK256 SWAP1 POP PUSH2 0x372B DUP3 PUSH2 0x3696 JUMP JUMPDEST PUSH2 0x376A JUMPI PUSH1 0x40 MLOAD PUSH32 0x8C379A000000000000000000000000000000000000000000000000000000000 DUP2 MSTORE PUSH1 0x4 ADD PUSH2 0x3761 SWAP1 PUSH2 0x5A04 JUMP JUMPDEST PUSH1 0x40 MLOAD DUP1 SWAP2 SUB SWAP1 REVERT JUMPDEST PUSH2 0x3774 CALLER DUP4 PUSH2 0x1A7F JUMP JUMPDEST ISZERO PUSH2 0x37B4 JUMPI PUSH1 0x40 MLOAD PUSH32 0x8C379A000000000000000000000000000000000000000000000000000000000 DUP2 MSTORE PUSH1 0x4 ADD PUSH2 0x37AB SWAP1 PUSH2 0x5A96 JUMP JUMPDEST PUSH1 0x40 MLOAD DUP1 SWAP2 SUB SWAP1 REVERT JUMPDEST PUSH1 0x0 PUSH1 0x40 MLOAD DUP1 PUSH1 0x40 ADD PUSH1 0x40 MSTORE DUP1 CALLER PUSH20 0xFFFFFFFFFFFFFFFFFFFFFFFFFFFFFFFFFFFFFFFF AND DUP2 MSTORE PUSH1 0x20 ADD PUSH1 0x0 DUP2 MSTORE POP SWAP1 POP DUP1 DUP3 PUSH1 0x2 ADD PUSH1 0x0 CALLER PUSH20 0xFFFFFFFFFFFFFFFFFFFFFFFFFFFFFFFFFFFFFFFF AND PUSH20 0xFFFFFFFFFFFFFFFFFFFFFFFFFFFFFFFFFFFFFFFF AND DUP2 MSTORE PUSH1 0x20 ADD SWAP1 DUP2 MSTORE PUSH1 0x20 ADD PUSH1 0x0 KECCAK256 PUSH1 0x0 DUP3 ADD MLOAD DUP2 PUSH1 0x0 ADD PUSH1 0x0 PUSH2 0x100 EXP DUP2 SLOAD DUP2 PUSH20 0xFFFFFFFFFFFFFFFFFFFFFFFFFFFFFFFFFFFFFFFF MUL NOT AND SWAP1 DUP4 PUSH20 0xFFFFFFFFFFFFFFFFFFFFFFFFFFFFFFFFFFFFFFFF AND MUL OR SWAP1 SSTORE POP PUSH1 0x20 DUP3 ADD MLOAD DUP2 PUSH1 0x1 ADD SSTORE SWAP1 POP POP PUSH1 0x1 DUP3 PUSH1 0x3 ADD PUSH1 0x0 DUP3 DUP3 SLOAD PUSH2 0x388F SWAP2 SWAP1 PUSH2 0x50D7 JUMP JUMPDEST SWAP3 POP POP DUP2 SWAP1 SSTORE POP POP POP POP JUMP JUMPDEST PUSH2 0x38A4 DUP3 PUSH2 0x2D23 JUMP JUMPDEST PUSH2 0x38E3 JUMPI PUSH1 0x40 MLOAD PUSH32 0x8C379A000000000000000000000000000000000000000000000000000000000 DUP2 MSTORE PUSH1 0x4 ADD PUSH2 0x38DA SWAP1 PUSH2 0x504B JUMP JUMPDEST PUSH1 0x40 MLOAD DUP1 SWAP2 SUB SWAP1 REVERT JUMPDEST PUSH2 0x38ED DUP2 DUP4 PUSH2 0x3AEB JUMP JUMPDEST PUSH2 0x392C JUMPI PUSH1 0x40 MLOAD PUSH32 0x8C379A000000000000000000000000000000000000000000000000000000000 DUP2 MSTORE PUSH1 0x4 ADD PUSH2 0x3923 SWAP1 PUSH2 0x51CD JUMP JUMPDEST PUSH1 0x40 MLOAD DUP1 SWAP2 SUB SWAP1 REVERT JUMPDEST PUSH2 0x3936 DUP3 DUP3 PUSH2 0x32B2 JUMP JUMPDEST ISZERO PUSH2 0x3976 JUMPI PUSH1 0x40 MLOAD PUSH32 0x8C379A000000000000000000000000000000000000000000000000000000000 DUP2 MSTORE PUSH1 0x4 ADD PUSH2 0x396D SWAP1 PUSH2 0x5415 JUMP JUMPDEST PUSH1 0x40 MLOAD DUP1 SWAP2 SUB SWAP1 REVERT JUMPDEST PUSH1 0x0 PUSH1 0x2 PUSH1 0x0 DUP5 DUP2 MSTORE PUSH1 0x20 ADD SWAP1 DUP2 MSTORE PUSH1 0x20 ADD PUSH1 0x0 KECCAK256 PUSH1 0x7 ADD PUSH1 0x0 DUP4 DUP2 MSTORE PUSH1 0x20 ADD SWAP1 DUP2 MSTORE PUSH1 0x20 ADD PUSH1 0x0 KECCAK256 SWAP1 POP PUSH1 0x40 MLOAD DUP1 PUSH1 0x40 ADD PUSH1 0x40 MSTORE DUP1 PUSH1 0x7 DUP2 MSTORE PUSH1 0x20 ADD PUSH32 0x50656E64696E6700000000000000000000000000000000000000000000000000 DUP2 MSTORE POP DUP1 MLOAD SWAP1 PUSH1 0x20 ADD KECCAK256 DUP2 PUSH1 0x4 ADD PUSH1 0x40 MLOAD PUSH2 0x39EF SWAP2 SWAP1 PUSH2 0x5704 JUMP JUMPDEST PUSH1 0x40 MLOAD DUP1 SWAP2 SUB SWAP1 KECCAK256 EQ PUSH2 0x3A37 JUMPI PUSH1 0x40 MLOAD PUSH32 0x8C379A000000000000000000000000000000000000000000000000000000000 DUP2 MSTORE PUSH1 0x4 ADD PUSH2 0x3A2E SWAP1 PUSH2 0x5B28 JUMP JUMPDEST PUSH1 0x40 MLOAD DUP1 SWAP2 SUB SWAP1 REVERT JUMPDEST PUSH2 0x3A41 DUP4 DUP4 PUSH2 0x3B50 JUMP JUMPDEST PUSH2 0x3A80 JUMPI PUSH1 0x40 MLOAD PUSH32 0x8C379A000000000000000000000000000000000000000000000000000000000 DUP2 MSTORE PUSH1 0x4 ADD PUSH2 0x3A77 SWAP1 PUSH2 0x5BBA JUMP JUMPDEST PUSH1 0x40 MLOAD DUP1 SWAP2 SUB SWAP1 REVERT JUMPDEST PUSH1 0x40 MLOAD DUP1 PUSH1 0x40 ADD PUSH1 0x40 MSTORE DUP1 PUSH1 0x6 DUP2 MSTORE PUSH1 0x20 ADD PUSH32 0x436C6F7365640000000000000000000000000000000000000000000000000000 DUP2 MSTORE POP DUP2 PUSH1 0x4 ADD SWAP1 DUP1 MLOAD SWAP1 PUSH1 0x20 ADD SWAP1 PUSH2 0x3ACD SWAP3 SWAP2 SWAP1 PUSH2 0x3C87 JUMP JUMPDEST POP POP POP POP JUMP JUMPDEST PUSH1 0x7 PUSH1 0x20 MSTORE DUP1 PUSH1 0x0 MSTORE PUSH1 0x40 PUSH1 0x0 KECCAK256 PUSH1 0x0 SWAP2 POP SWAP1 POP SLOAD DUP2 JUMP JUMPDEST PUSH1 0x0 DUP1 PUSH1 0x2 PUSH1 0x0 DUP5 DUP2 MSTORE PUSH1 0x20 ADD SWAP1 DUP2 MSTORE PUSH1 0x20 ADD PUSH1 0x0 KECCAK256 PUSH1 0x7 ADD PUSH1 0x0 DUP6 DUP2 MSTORE PUSH1 0x20 ADD SWAP1 DUP2 MSTORE PUSH1 0x20 ADD PUSH1 0x0 KECCAK256 PUSH1 0x0 ADD SLOAD EQ ISZERO SWAP1 POP SWAP3 SWAP2 POP POP JUMP JUMPDEST PUSH1 0x0 DUP1 PUSH1 0x2 PUSH1 0x0 DUP5 DUP2 MSTORE PUSH1 0x20 ADD SWAP1 DUP2 MSTORE PUSH1 0x20 ADD PUSH1 0x0 KECCAK256 SWAP1 POP TIMESTAMP DUP2 PUSH1 0x6 ADD SLOAD GT SWAP2 POP POP SWAP2 SWAP1 POP JUMP JUMPDEST PUSH1 0x1 SLOAD DUP2 JUMP JUMPDEST PUSH1 0x0 DUP1 PUSH1 0x2 PUSH1 0x0 DUP6 DUP2 MSTORE PUSH1 0x20 ADD SWAP1 DUP2 MSTORE PUSH1 0x20 ADD PUSH1 0x0 KECCAK256 SWAP1 POP PUSH1 0x0 DUP2 PUSH1 0x7 ADD PUSH1 0x0 DUP6 DUP2 MSTORE PUSH1 0x20 ADD SWAP1 DUP2 MSTORE PUSH1 0x20 ADD PUSH1 0x0 KECCAK256 SWAP1 POP DUP1 PUSH1 0x1 ADD PUSH1 0x0 SWAP1 SLOAD SWAP1 PUSH2 0x100 EXP SWAP1 DIV PUSH20 0xFFFFFFFFFFFFFFFFFFFFFFFFFFFFFFFFFFFFFFFF AND PUSH20 0xFFFFFFFFFFFFFFFFFFFFFFFFFFFFFFFFFFFFFFFF AND CALLER PUSH20 0xFFFFFFFFFFFFFFFFFFFFFFFFFFFFFFFFFFFFFFFF AND EQ SWAP3 POP POP POP SWAP3 SWAP2 POP POP JUMP JUMPDEST PUSH1 0x40 MLOAD DUP1 PUSH2 0x200 ADD PUSH1 0x40 MSTORE DUP1 PUSH1 0x0 DUP2 MSTORE PUSH1 0x20 ADD PUSH1 0x0 PUSH20 0xFFFFFFFFFFFFFFFFFFFFFFFFFFFFFFFFFFFFFFFF AND DUP2 MSTORE PUSH1 0x20 ADD PUSH1 0x0 DUP2 MSTORE PUSH1 0x20 ADD PUSH1 0x0 PUSH20 0xFFFFFFFFFFFFFFFFFFFFFFFFFFFFFFFFFFFFFFFF AND DUP2 MSTORE PUSH1 0x20 ADD PUSH1 0x60 DUP2 MSTORE PUSH1 0x20 ADD PUSH1 0x60 DUP2 MSTORE PUSH1 0x20 ADD PUSH1 0x0 DUP2 MSTORE PUSH1 0x20 ADD PUSH1 0x0 DUP2 MSTORE PUSH1 0x20 ADD PUSH1 0x0 DUP2 MSTORE PUSH1 0x20 ADD PUSH1 0x0 DUP2 MSTORE PUSH1 0x20 ADD PUSH1 0x60 DUP2 MSTORE PUSH1 0x20 ADD PUSH1 0x60 DUP2 MSTORE PUSH1 0x20 ADD PUSH1 0x60 DUP2 MSTORE PUSH1 0x20 ADD PUSH1 0x60 DUP2 MSTORE PUSH1 0x20 ADD PUSH1 0x60 DUP2 MSTORE PUSH1 0x20 ADD PUSH1 0x0 DUP2 MSTORE POP SWAP1 JUMP JUMPDEST DUP3 DUP1 SLOAD PUSH2 0x3C93 SWAP1 PUSH2 0x4F26 JUMP JUMPDEST SWAP1 PUSH1 0x0 MSTORE PUSH1 0x20 PUSH1 0x0 KECCAK256 SWAP1 PUSH1 0x1F ADD PUSH1 0x20 SWAP1 DIV DUP2 ADD SWAP3 DUP3 PUSH2 0x3CB5 JUMPI PUSH1 0x0 DUP6 SSTORE PUSH2 0x3CFC JUMP JUMPDEST DUP3 PUSH1 0x1F LT PUSH2 0x3CCE JUMPI DUP1 MLOAD PUSH1 0xFF NOT AND DUP4 DUP1 ADD OR DUP6 SSTORE PUSH2 0x3CFC JUMP JUMPDEST DUP3 DUP1 ADD PUSH1 0x1 ADD DUP6 SSTORE DUP3 ISZERO PUSH2 0x3CFC JUMPI SWAP2 DUP3 ADD JUMPDEST DUP3 DUP2 GT ISZERO PUSH2 0x3CFB JUMPI DUP3 MLOAD DUP3 SSTORE SWAP2 PUSH1 0x20 ADD SWAP2 SWAP1 PUSH1 0x1 ADD SWAP1 PUSH2 0x3CE0 JUMP JUMPDEST JUMPDEST POP SWAP1 POP PUSH2 0x3D09 SWAP2 SWAP1 PUSH2 0x3DDF JUMP JUMPDEST POP SWAP1 JUMP JUMPDEST PUSH1 0x40 MLOAD DUP1 PUSH2 0x140 ADD PUSH1 0x40 MSTORE DUP1 PUSH1 0x0 DUP2 MSTORE PUSH1 0x20 ADD PUSH1 0x0 PUSH20 0xFFFFFFFFFFFFFFFFFFFFFFFFFFFFFFFFFFFFFFFF AND DUP2 MSTORE PUSH1 0x20 ADD PUSH1 0x0 PUSH20 0xFFFFFFFFFFFFFFFFFFFFFFFFFFFFFFFFFFFFFFFF AND DUP2 MSTORE PUSH1 0x20 ADD PUSH1 0x0 DUP2 MSTORE PUSH1 0x20 ADD PUSH1 0x0 DUP2 MSTORE PUSH1 0x20 ADD PUSH1 0x60 DUP2 MSTORE PUSH1 0x20 ADD PUSH1 0x0 DUP2 MSTORE PUSH1 0x20 ADD PUSH1 0x0 DUP2 MSTORE PUSH1 0x20 ADD PUSH1 0x0 DUP2 MSTORE PUSH1 0x20 ADD PUSH1 0x0 DUP2 MSTORE POP SWAP1 JUMP JUMPDEST PUSH1 0x40 MLOAD DUP1 PUSH2 0x140 ADD PUSH1 0x40 MSTORE DUP1 PUSH1 0x0 DUP2 MSTORE PUSH1 0x20 ADD PUSH1 0x60 DUP2 MSTORE PUSH1 0x20 ADD PUSH1 0x0 DUP2 MSTORE PUSH1 0x20 ADD PUSH1 0x0 DUP2 MSTORE PUSH1 0x20 ADD PUSH1 0x0 DUP2 MSTORE PUSH1 0x20 ADD PUSH1 0x0 DUP2 MSTORE PUSH1 0x20 ADD PUSH1 0x0 DUP2 MSTORE PUSH1 0x20 ADD PUSH1 0x60 DUP2 MSTORE PUSH1 0x20 ADD PUSH1 0x60 DUP2 MSTORE PUSH1 0x20 ADD PUSH1 0x0 DUP2 MSTORE POP SWAP1 JUMP JUMPDEST JUMPDEST DUP1 DUP3 GT ISZERO PUSH2 0x3DF8 JUMPI PUSH1 0x0 DUP2 PUSH1 0x0 SWAP1 SSTORE POP PUSH1 0x1 ADD PUSH2 0x3DE0 JUMP JUMPDEST POP SWAP1 JUMP JUMPDEST PUSH1 0x0 PUSH1 0x40 MLOAD SWAP1 POP SWAP1 JUMP JUMPDEST PUSH1 0x0 DUP1 REVERT JUMPDEST PUSH1 0x0 DUP1 REVERT JUMPDEST PUSH1 0x0 DUP2 SWAP1 POP SWAP2 SWAP1 POP JUMP JUMPDEST PUSH2 0x3E23 DUP2 PUSH2 0x3E10 JUMP JUMPDEST DUP2 EQ PUSH2 0x3E2E JUMPI PUSH1 0x0 DUP1 REVERT JUMPDEST POP JUMP JUMPDEST PUSH1 0x0 DUP2 CALLDATALOAD SWAP1 POP PUSH2 0x3E40 DUP2 PUSH2 0x3E1A JUMP JUMPDEST SWAP3 SWAP2 POP POP JUMP JUMPDEST PUSH1 0x0 PUSH1 0x20 DUP3 DUP5 SUB SLT ISZERO PUSH2 0x3E5C JUMPI PUSH2 0x3E5B PUSH2 0x3E06 JUMP JUMPDEST JUMPDEST PUSH1 0x0 PUSH2 0x3E6A DUP5 DUP3 DUP6 ADD PUSH2 0x3E31 JUMP JUMPDEST SWAP2 POP POP SWAP3 SWAP2 POP POP JUMP JUMPDEST PUSH1 0x0 DUP2 MLOAD SWAP1 POP SWAP2 SWAP1 POP JUMP JUMPDEST PUSH1 0x0 DUP3 DUP3 MSTORE PUSH1 0x20 DUP3 ADD SWAP1 POP SWAP3 SWAP2 POP POP JUMP JUMPDEST PUSH1 0x0 DUP2 SWAP1 POP PUSH1 0x20 DUP3 ADD SWAP1 POP SWAP2 SWAP1 POP JUMP JUMPDEST PUSH2 0x3EA8 DUP2 PUSH2 0x3E10 JUMP JUMPDEST DUP3 MSTORE POP POP JUMP JUMPDEST PUSH1 0x0 PUSH20 0xFFFFFFFFFFFFFFFFFFFFFFFFFFFFFFFFFFFFFFFF DUP3 AND SWAP1 POP SWAP2 SWAP1 POP JUMP JUMPDEST PUSH1 0x0 PUSH2 0x3ED9 DUP3 PUSH2 0x3EAE JUMP JUMPDEST SWAP1 POP SWAP2 SWAP1 POP JUMP JUMPDEST PUSH2 0x3EE9 DUP2 PUSH2 0x3ECE JUMP JUMPDEST DUP3 MSTORE POP POP JUMP JUMPDEST PUSH1 0x0 DUP2 MLOAD SWAP1 POP SWAP2 SWAP1 POP JUMP JUMPDEST PUSH1 0x0 DUP3 DUP3 MSTORE PUSH1 0x20 DUP3 ADD SWAP1 POP SWAP3 SWAP2 POP POP JUMP JUMPDEST PUSH1 0x0 JUMPDEST DUP4 DUP2 LT ISZERO PUSH2 0x3F29 JUMPI DUP1 DUP3 ADD MLOAD DUP2 DUP5 ADD MSTORE PUSH1 0x20 DUP2 ADD SWAP1 POP PUSH2 0x3F0E JUMP JUMPDEST DUP4 DUP2 GT ISZERO PUSH2 0x3F38 JUMPI PUSH1 0x0 DUP5 DUP5 ADD MSTORE JUMPDEST POP POP POP POP JUMP JUMPDEST PUSH1 0x0 PUSH1 0x1F NOT PUSH1 0x1F DUP4 ADD AND SWAP1 POP SWAP2 SWAP1 POP JUMP JUMPDEST PUSH1 0x0 PUSH2 0x3F5A DUP3 PUSH2 0x3EEF JUMP JUMPDEST PUSH2 0x3F64 DUP2 DUP6 PUSH2 0x3EFA JUMP JUMPDEST SWAP4 POP PUSH2 0x3F74 DUP2 DUP6 PUSH1 0x20 DUP7 ADD PUSH2 0x3F0B JUMP JUMPDEST PUSH2 0x3F7D DUP2 PUSH2 0x3F3E JUMP JUMPDEST DUP5 ADD SWAP2 POP POP SWAP3 SWAP2 POP POP JUMP JUMPDEST PUSH1 0x0 PUSH2 0x200 DUP4 ADD PUSH1 0x0 DUP4 ADD MLOAD PUSH2 0x3FA1 PUSH1 0x0 DUP7 ADD DUP3 PUSH2 0x3E9F JUMP JUMPDEST POP PUSH1 0x20 DUP4 ADD MLOAD PUSH2 0x3FB4 PUSH1 0x20 DUP7 ADD DUP3 PUSH2 0x3EE0 JUMP JUMPDEST POP PUSH1 0x40 DUP4 ADD MLOAD PUSH2 0x3FC7 PUSH1 0x40 DUP7 ADD DUP3 PUSH2 0x3E9F JUMP JUMPDEST POP PUSH1 0x60 DUP4 ADD MLOAD PUSH2 0x3FDA PUSH1 0x60 DUP7 ADD DUP3 PUSH2 0x3EE0 JUMP JUMPDEST POP PUSH1 0x80 DUP4 ADD MLOAD DUP5 DUP3 SUB PUSH1 0x80 DUP7 ADD MSTORE PUSH2 0x3FF2 DUP3 DUP3 PUSH2 0x3F4F JUMP JUMPDEST SWAP2 POP POP PUSH1 0xA0 DUP4 ADD MLOAD DUP5 DUP3 SUB PUSH1 0xA0 DUP7 ADD MSTORE PUSH2 0x400C DUP3 DUP3 PUSH2 0x3F4F JUMP JUMPDEST SWAP2 POP POP PUSH1 0xC0 DUP4 ADD MLOAD PUSH2 0x4021 PUSH1 0xC0 DUP7 ADD DUP3 PUSH2 0x3E9F JUMP JUMPDEST POP PUSH1 0xE0 DUP4 ADD MLOAD PUSH2 0x4034 PUSH1 0xE0 DUP7 ADD DUP3 PUSH2 0x3E9F JUMP JUMPDEST POP PUSH2 0x100 DUP4 ADD MLOAD PUSH2 0x4049 PUSH2 0x100 DUP7 ADD DUP3 PUSH2 0x3E9F JUMP JUMPDEST POP PUSH2 0x120 DUP4 ADD MLOAD PUSH2 0x405E PUSH2 0x120 DUP7 ADD DUP3 PUSH2 0x3E9F JUMP JUMPDEST POP PUSH2 0x140 DUP4 ADD MLOAD DUP5 DUP3 SUB PUSH2 0x140 DUP7 ADD MSTORE PUSH2 0x4078 DUP3 DUP3 PUSH2 0x3F4F JUMP JUMPDEST SWAP2 POP POP PUSH2 0x160 DUP4 ADD MLOAD DUP5 DUP3 SUB PUSH2 0x160 DUP7 ADD MSTORE PUSH2 0x4094 DUP3 DUP3 PUSH2 0x3F4F JUMP JUMPDEST SWAP2 POP POP PUSH2 0x180 DUP4 ADD MLOAD DUP5 DUP3 SUB PUSH2 0x180 DUP7 ADD MSTORE PUSH2 0x40B0 DUP3 DUP3 PUSH2 0x3F4F JUMP JUMPDEST SWAP2 POP POP PUSH2 0x1A0 DUP4 ADD MLOAD DUP5 DUP3 SUB PUSH2 0x1A0 DUP7 ADD MSTORE PUSH2 0x40CC DUP3 DUP3 PUSH2 0x3F4F JUMP JUMPDEST SWAP2 POP POP PUSH2 0x1C0 DUP4 ADD MLOAD DUP5 DUP3 SUB PUSH2 0x1C0 DUP7 ADD MSTORE PUSH2 0x40E8 DUP3 DUP3 PUSH2 0x3F4F JUMP JUMPDEST SWAP2 POP POP PUSH2 0x1E0 DUP4 ADD MLOAD PUSH2 0x40FF PUSH2 0x1E0 DUP7 ADD DUP3 PUSH2 0x3E9F JUMP JUMPDEST POP DUP1 SWAP2 POP POP SWAP3 SWAP2 POP POP JUMP JUMPDEST PUSH1 0x0 PUSH2 0x4116 DUP4 DUP4 PUSH2 0x3F88 JUMP JUMPDEST SWAP1 POP SWAP3 SWAP2 POP POP JUMP JUMPDEST PUSH1 0x0 PUSH1 0x20 DUP3 ADD SWAP1 POP SWAP2 SWAP1 POP JUMP JUMPDEST PUSH1 0x0 PUSH2 0x4136 DUP3 PUSH2 0x3E73 JUMP JUMPDEST PUSH2 0x4140 DUP2 DUP6 PUSH2 0x3E7E JUMP JUMPDEST SWAP4 POP DUP4 PUSH1 0x20 DUP3 MUL DUP6 ADD PUSH2 0x4152 DUP6 PUSH2 0x3E8F JUMP JUMPDEST DUP1 PUSH1 0x0 JUMPDEST DUP6 DUP2 LT ISZERO PUSH2 0x418E JUMPI DUP5 DUP5 SUB DUP10 MSTORE DUP2 MLOAD PUSH2 0x416F DUP6 DUP3 PUSH2 0x410A JUMP JUMPDEST SWAP5 POP PUSH2 0x417A DUP4 PUSH2 0x411E JUMP JUMPDEST SWAP3 POP PUSH1 0x20 DUP11 ADD SWAP10 POP POP PUSH1 0x1 DUP2 ADD SWAP1 POP PUSH2 0x4156 JUMP JUMPDEST POP DUP3 SWAP8 POP DUP8 SWAP6 POP POP POP POP POP POP SWAP3 SWAP2 POP POP JUMP JUMPDEST PUSH1 0x0 PUSH1 0x20 DUP3 ADD SWAP1 POP DUP2 DUP2 SUB PUSH1 0x0 DUP4 ADD MSTORE PUSH2 0x41BA DUP2 DUP5 PUSH2 0x412B JUMP JUMPDEST SWAP1 POP SWAP3 SWAP2 POP POP JUMP JUMPDEST PUSH1 0x0 DUP1 PUSH1 0x0 DUP1 PUSH1 0x80 DUP6 DUP8 SUB SLT ISZERO PUSH2 0x41DC JUMPI PUSH2 0x41DB PUSH2 0x3E06 JUMP JUMPDEST JUMPDEST PUSH1 0x0 PUSH2 0x41EA DUP8 DUP3 DUP9 ADD PUSH2 0x3E31 JUMP JUMPDEST SWAP5 POP POP PUSH1 0x20 PUSH2 0x41FB DUP8 DUP3 DUP9 ADD PUSH2 0x3E31 JUMP JUMPDEST SWAP4 POP POP PUSH1 0x40 PUSH2 0x420C DUP8 DUP3 DUP9 ADD PUSH2 0x3E31 JUMP JUMPDEST SWAP3 POP POP PUSH1 0x60 PUSH2 0x421D DUP8 DUP3 DUP9 ADD PUSH2 0x3E31 JUMP JUMPDEST SWAP2 POP POP SWAP3 SWAP6 SWAP2 SWAP5 POP SWAP3 POP JUMP JUMPDEST PUSH2 0x4232 DUP2 PUSH2 0x3ECE JUMP JUMPDEST DUP2 EQ PUSH2 0x423D JUMPI PUSH1 0x0 DUP1 REVERT JUMPDEST POP JUMP JUMPDEST PUSH1 0x0 DUP2 CALLDATALOAD SWAP1 POP PUSH2 0x424F DUP2 PUSH2 0x4229 JUMP JUMPDEST SWAP3 SWAP2 POP POP JUMP JUMPDEST PUSH1 0x0 DUP1 PUSH1 0x0 DUP1 PUSH1 0x80 DUP6 DUP8 SUB SLT ISZERO PUSH2 0x426F JUMPI PUSH2 0x426E PUSH2 0x3E06 JUMP JUMPDEST JUMPDEST PUSH1 0x0 PUSH2 0x427D DUP8 DUP3 DUP9 ADD PUSH2 0x3E31 JUMP JUMPDEST SWAP5 POP POP PUSH1 0x20 PUSH2 0x428E DUP8 DUP3 DUP9 ADD PUSH2 0x3E31 JUMP JUMPDEST SWAP4 POP POP PUSH1 0x40 PUSH2 0x429F DUP8 DUP3 DUP9 ADD PUSH2 0x4240 JUMP JUMPDEST SWAP3 POP POP PUSH1 0x60 PUSH2 0x42B0 DUP8 DUP3 DUP9 ADD PUSH2 0x3E31 JUMP JUMPDEST SWAP2 POP POP SWAP3 SWAP6 SWAP2 SWAP5 POP SWAP3 POP JUMP JUMPDEST PUSH2 0x42C5 DUP2 PUSH2 0x3E10 JUMP JUMPDEST DUP3 MSTORE POP POP JUMP JUMPDEST PUSH1 0x0 PUSH1 0x20 DUP3 ADD SWAP1 POP PUSH2 0x42E0 PUSH1 0x0 DUP4 ADD DUP5 PUSH2 0x42BC JUMP JUMPDEST SWAP3 SWAP2 POP POP JUMP JUMPDEST PUSH1 0x0 DUP1 PUSH1 0x0 PUSH1 0x60 DUP5 DUP7 SUB SLT ISZERO PUSH2 0x42FF JUMPI PUSH2 0x42FE PUSH2 0x3E06 JUMP JUMPDEST JUMPDEST PUSH1 0x0 PUSH2 0x430D DUP7 DUP3 DUP8 ADD PUSH2 0x4240 JUMP JUMPDEST SWAP4 POP POP PUSH1 0x20 PUSH2 0x431E DUP7 DUP3 DUP8 ADD PUSH2 0x3E31 JUMP JUMPDEST SWAP3 POP POP PUSH1 0x40 PUSH2 0x432F DUP7 DUP3 DUP8 ADD PUSH2 0x3E31 JUMP JUMPDEST SWAP2 POP POP SWAP3 POP SWAP3 POP SWAP3 JUMP JUMPDEST PUSH1 0x0 DUP2 ISZERO ISZERO SWAP1 POP SWAP2 SWAP1 POP JUMP JUMPDEST PUSH2 0x434E DUP2 PUSH2 0x4339 JUMP JUMPDEST DUP3 MSTORE POP POP JUMP JUMPDEST PUSH1 0x0 PUSH1 0x20 DUP3 ADD SWAP1 POP PUSH2 0x4369 PUSH1 0x0 DUP4 ADD DUP5 PUSH2 0x4345 JUMP JUMPDEST SWAP3 SWAP2 POP POP JUMP JUMPDEST PUSH1 0x0 DUP1 REVERT JUMPDEST PUSH1 0x0 DUP1 REVERT JUMPDEST PUSH32 0x4E487B7100000000000000000000000000000000000000000000000000000000 PUSH1 0x0 MSTORE PUSH1 0x41 PUSH1 0x4 MSTORE PUSH1 0x24 PUSH1 0x0 REVERT JUMPDEST PUSH2 0x43B1 DUP3 PUSH2 0x3F3E JUMP JUMPDEST DUP2 ADD DUP2 DUP2 LT PUSH8 0xFFFFFFFFFFFFFFFF DUP3 GT OR ISZERO PUSH2 0x43D0 JUMPI PUSH2 0x43CF PUSH2 0x4379 JUMP JUMPDEST JUMPDEST DUP1 PUSH1 0x40 MSTORE POP POP POP JUMP JUMPDEST PUSH1 0x0 PUSH2 0x43E3 PUSH2 0x3DFC JUMP JUMPDEST SWAP1 POP PUSH2 0x43EF DUP3 DUP3 PUSH2 0x43A8 JUMP JUMPDEST SWAP2 SWAP1 POP JUMP JUMPDEST PUSH1 0x0 PUSH8 0xFFFFFFFFFFFFFFFF DUP3 GT ISZERO PUSH2 0x440F JUMPI PUSH2 0x440E PUSH2 0x4379 JUMP JUMPDEST JUMPDEST PUSH2 0x4418 DUP3 PUSH2 0x3F3E JUMP JUMPDEST SWAP1 POP PUSH1 0x20 DUP2 ADD SWAP1 POP SWAP2 SWAP1 POP JUMP JUMPDEST DUP3 DUP2 DUP4 CALLDATACOPY PUSH1 0x0 DUP4 DUP4 ADD MSTORE POP POP POP JUMP JUMPDEST PUSH1 0x0 PUSH2 0x4447 PUSH2 0x4442 DUP5 PUSH2 0x43F4 JUMP JUMPDEST PUSH2 0x43D9 JUMP JUMPDEST SWAP1 POP DUP3 DUP2 MSTORE PUSH1 0x20 DUP2 ADD DUP5 DUP5 DUP5 ADD GT ISZERO PUSH2 0x4463 JUMPI PUSH2 0x4462 PUSH2 0x4374 JUMP JUMPDEST JUMPDEST PUSH2 0x446E DUP5 DUP3 DUP6 PUSH2 0x4425 JUMP JUMPDEST POP SWAP4 SWAP3 POP POP POP JUMP JUMPDEST PUSH1 0x0 DUP3 PUSH1 0x1F DUP4 ADD SLT PUSH2 0x448B JUMPI PUSH2 0x448A PUSH2 0x436F JUMP JUMPDEST JUMPDEST DUP2 CALLDATALOAD PUSH2 0x449B DUP5 DUP3 PUSH1 0x20 DUP7 ADD PUSH2 0x4434 JUMP JUMPDEST SWAP2 POP POP SWAP3 SWAP2 POP POP JUMP JUMPDEST PUSH1 0x0 DUP1 PUSH1 0x0 DUP1 PUSH1 0x80 DUP6 DUP8 SUB SLT ISZERO PUSH2 0x44BE JUMPI PUSH2 0x44BD PUSH2 0x3E06 JUMP JUMPDEST JUMPDEST PUSH1 0x0 PUSH2 0x44CC DUP8 DUP3 DUP9 ADD PUSH2 0x3E31 JUMP JUMPDEST SWAP5 POP POP PUSH1 0x20 PUSH2 0x44DD DUP8 DUP3 DUP9 ADD PUSH2 0x3E31 JUMP JUMPDEST SWAP4 POP POP PUSH1 0x40 PUSH2 0x44EE DUP8 DUP3 DUP9 ADD PUSH2 0x3E31 JUMP JUMPDEST SWAP3 POP POP PUSH1 0x60 DUP6 ADD CALLDATALOAD PUSH8 0xFFFFFFFFFFFFFFFF DUP2 GT ISZERO PUSH2 0x450F JUMPI PUSH2 0x450E PUSH2 0x3E0B JUMP JUMPDEST JUMPDEST PUSH2 0x451B DUP8 DUP3 DUP9 ADD PUSH2 0x4476 JUMP JUMPDEST SWAP2 POP POP SWAP3 SWAP6 SWAP2 SWAP5 POP SWAP3 POP JUMP JUMPDEST PUSH1 0x0 DUP1 PUSH1 0x40 DUP4 DUP6 SUB SLT ISZERO PUSH2 0x453E JUMPI PUSH2 0x453D PUSH2 0x3E06 JUMP JUMPDEST JUMPDEST PUSH1 0x0 PUSH2 0x454C DUP6 DUP3 DUP7 ADD PUSH2 0x3E31 JUMP JUMPDEST SWAP3 POP POP PUSH1 0x20 PUSH2 0x455D DUP6 DUP3 DUP7 ADD PUSH2 0x3E31 JUMP JUMPDEST SWAP2 POP POP SWAP3 POP SWAP3 SWAP1 POP JUMP JUMPDEST PUSH1 0x0 DUP1 PUSH1 0x40 DUP4 DUP6 SUB SLT ISZERO PUSH2 0x457E JUMPI PUSH2 0x457D PUSH2 0x3E06 JUMP JUMPDEST JUMPDEST PUSH1 0x0 PUSH2 0x458C DUP6 DUP3 DUP7 ADD PUSH2 0x3E31 JUMP JUMPDEST SWAP3 POP POP PUSH1 0x20 PUSH2 0x459D DUP6 DUP3 DUP7 ADD PUSH2 0x4240 JUMP JUMPDEST SWAP2 POP POP SWAP3 POP SWAP3 SWAP1 POP JUMP JUMPDEST PUSH1 0x0 DUP1 PUSH1 0x40 DUP4 DUP6 SUB SLT ISZERO PUSH2 0x45BE JUMPI PUSH2 0x45BD PUSH2 0x3E06 JUMP JUMPDEST JUMPDEST PUSH1 0x0 PUSH2 0x45CC DUP6 DUP3 DUP7 ADD PUSH2 0x4240 JUMP JUMPDEST SWAP3 POP POP PUSH1 0x20 PUSH2 0x45DD DUP6 DUP3 DUP7 ADD PUSH2 0x3E31 JUMP JUMPDEST SWAP2 POP POP SWAP3 POP SWAP3 SWAP1 POP JUMP JUMPDEST PUSH1 0x0 DUP1 PUSH1 0x40 DUP4 DUP6 SUB SLT ISZERO PUSH2 0x45FE JUMPI PUSH2 0x45FD PUSH2 0x3E06 JUMP JUMPDEST JUMPDEST PUSH1 0x0 DUP4 ADD CALLDATALOAD PUSH8 0xFFFFFFFFFFFFFFFF DUP2 GT ISZERO PUSH2 0x461C JUMPI PUSH2 0x461B PUSH2 0x3E0B JUMP JUMPDEST JUMPDEST PUSH2 0x4628 DUP6 DUP3 DUP7 ADD PUSH2 0x4476 JUMP JUMPDEST SWAP3 POP POP PUSH1 0x20 DUP4 ADD CALLDATALOAD PUSH8 0xFFFFFFFFFFFFFFFF DUP2 GT ISZERO PUSH2 0x4649 JUMPI PUSH2 0x4648 PUSH2 0x3E0B JUMP JUMPDEST JUMPDEST PUSH2 0x4655 DUP6 DUP3 DUP7 ADD PUSH2 0x4476 JUMP JUMPDEST SWAP2 POP POP SWAP3 POP SWAP3 SWAP1 POP JUMP JUMPDEST PUSH1 0x0 PUSH1 0x20 DUP3 DUP5 SUB SLT ISZERO PUSH2 0x4675 JUMPI PUSH2 0x4674 PUSH2 0x3E06 JUMP JUMPDEST JUMPDEST PUSH1 0x0 PUSH2 0x4683 DUP5 DUP3 DUP6 ADD PUSH2 0x4240 JUMP JUMPDEST SWAP2 POP POP SWAP3 SWAP2 POP POP JUMP JUMPDEST PUSH1 0x0 PUSH2 0x140 DUP4 ADD PUSH1 0x0 DUP4 ADD MLOAD PUSH2 0x46A5 PUSH1 0x0 DUP7 ADD DUP3 PUSH2 0x3E9F JUMP JUMPDEST POP PUSH1 0x20 DUP4 ADD MLOAD PUSH2 0x46B8 PUSH1 0x20 DUP7 ADD DUP3 PUSH2 0x3EE0 JUMP JUMPDEST POP PUSH1 0x40 DUP4 ADD MLOAD PUSH2 0x46CB PUSH1 0x40 DUP7 ADD DUP3 PUSH2 0x3EE0 JUMP JUMPDEST POP PUSH1 0x60 DUP4 ADD MLOAD PUSH2 0x46DE PUSH1 0x60 DUP7 ADD DUP3 PUSH2 0x3E9F JUMP JUMPDEST POP PUSH1 0x80 DUP4 ADD MLOAD PUSH2 0x46F1 PUSH1 0x80 DUP7 ADD DUP3 PUSH2 0x3E9F JUMP JUMPDEST POP PUSH1 0xA0 DUP4 ADD MLOAD DUP5 DUP3 SUB PUSH1 0xA0 DUP7 ADD MSTORE PUSH2 0x4709 DUP3 DUP3 PUSH2 0x3F4F JUMP JUMPDEST SWAP2 POP POP PUSH1 0xC0 DUP4 ADD MLOAD PUSH2 0x471E PUSH1 0xC0 DUP7 ADD DUP3 PUSH2 0x3E9F JUMP JUMPDEST POP PUSH1 0xE0 DUP4 ADD MLOAD PUSH2 0x4731 PUSH1 0xE0 DUP7 ADD DUP3 PUSH2 0x3E9F JUMP JUMPDEST POP PUSH2 0x100 DUP4 ADD MLOAD PUSH2 0x4746 PUSH2 0x100 DUP7 ADD DUP3 PUSH2 0x3E9F JUMP JUMPDEST POP PUSH2 0x120 DUP4 ADD MLOAD PUSH2 0x475B PUSH2 0x120 DUP7 ADD DUP3 PUSH2 0x3E9F JUMP JUMPDEST POP DUP1 SWAP2 POP POP SWAP3 SWAP2 POP POP JUMP JUMPDEST PUSH1 0x0 PUSH1 0x20 DUP3 ADD SWAP1 POP DUP2 DUP2 SUB PUSH1 0x0 DUP4 ADD MSTORE PUSH2 0x4780 DUP2 DUP5 PUSH2 0x468C JUMP JUMPDEST SWAP1 POP SWAP3 SWAP2 POP POP JUMP JUMPDEST PUSH1 0x0 DUP2 MLOAD SWAP1 POP SWAP2 SWAP1 POP JUMP JUMPDEST PUSH1 0x0 DUP3 DUP3 MSTORE PUSH1 0x20 DUP3 ADD SWAP1 POP SWAP3 SWAP2 POP POP JUMP JUMPDEST PUSH1 0x0 DUP2 SWAP1 POP PUSH1 0x20 DUP3 ADD SWAP1 POP SWAP2 SWAP1 POP JUMP JUMPDEST PUSH1 0x0 PUSH2 0x140 DUP4 ADD PUSH1 0x0 DUP4 ADD MLOAD PUSH2 0x47CD PUSH1 0x0 DUP7 ADD DUP3 PUSH2 0x3E9F JUMP JUMPDEST POP PUSH1 0x20 DUP4 ADD MLOAD DUP5 DUP3 SUB PUSH1 0x20 DUP7 ADD MSTORE PUSH2 0x47E5 DUP3 DUP3 PUSH2 0x3F4F JUMP JUMPDEST SWAP2 POP POP PUSH1 0x40 DUP4 ADD MLOAD PUSH2 0x47FA PUSH1 0x40 DUP7 ADD DUP3 PUSH2 0x3E9F JUMP JUMPDEST POP PUSH1 0x60 DUP4 ADD MLOAD PUSH2 0x480D PUSH1 0x60 DUP7 ADD DUP3 PUSH2 0x3E9F JUMP JUMPDEST POP PUSH1 0x80 DUP4 ADD MLOAD PUSH2 0x4820 PUSH1 0x80 DUP7 ADD DUP3 PUSH2 0x3E9F JUMP JUMPDEST POP PUSH1 0xA0 DUP4 ADD MLOAD PUSH2 0x4833 PUSH1 0xA0 DUP7 ADD DUP3 PUSH2 0x3E9F JUMP JUMPDEST POP PUSH1 0xC0 DUP4 ADD MLOAD PUSH2 0x4846 PUSH1 0xC0 DUP7 ADD DUP3 PUSH2 0x3E9F JUMP JUMPDEST POP PUSH1 0xE0 DUP4 ADD MLOAD DUP5 DUP3 SUB PUSH1 0xE0 DUP7 ADD MSTORE PUSH2 0x485E DUP3 DUP3 PUSH2 0x3F4F JUMP JUMPDEST SWAP2 POP POP PUSH2 0x100 DUP4 ADD MLOAD DUP5 DUP3 SUB PUSH2 0x100 DUP7 ADD MSTORE PUSH2 0x487A DUP3 DUP3 PUSH2 0x3F4F JUMP JUMPDEST SWAP2 POP POP PUSH2 0x120 DUP4 ADD MLOAD PUSH2 0x4891 PUSH2 0x120 DUP7 ADD DUP3 PUSH2 0x3E9F JUMP JUMPDEST POP DUP1 SWAP2 POP POP SWAP3 SWAP2 POP POP JUMP JUMPDEST PUSH1 0x0 PUSH2 0x48A8 DUP4 DUP4 PUSH2 0x47B4 JUMP JUMPDEST SWAP1 POP SWAP3 SWAP2 POP POP JUMP JUMPDEST PUSH1 0x0 PUSH1 0x20 DUP3 ADD SWAP1 POP SWAP2 SWAP1 POP JUMP JUMPDEST PUSH1 0x0 PUSH2 0x48C8 DUP3 PUSH2 0x4788 JUMP JUMPDEST PUSH2 0x48D2 DUP2 DUP6 PUSH2 0x4793 JUMP JUMPDEST SWAP4 POP DUP4 PUSH1 0x20 DUP3 MUL DUP6 ADD PUSH2 0x48E4 DUP6 PUSH2 0x47A4 JUMP JUMPDEST DUP1 PUSH1 0x0 JUMPDEST DUP6 DUP2 LT ISZERO PUSH2 0x4920 JUMPI DUP5 DUP5 SUB DUP10 MSTORE DUP2 MLOAD PUSH2 0x4901 DUP6 DUP3 PUSH2 0x489C JUMP JUMPDEST SWAP5 POP PUSH2 0x490C DUP4 PUSH2 0x48B0 JUMP JUMPDEST SWAP3 POP PUSH1 0x20 DUP11 ADD SWAP10 POP POP PUSH1 0x1 DUP2 ADD SWAP1 POP PUSH2 0x48E8 JUMP JUMPDEST POP DUP3 SWAP8 POP DUP8 SWAP6 POP POP POP POP POP POP SWAP3 SWAP2 POP POP JUMP JUMPDEST PUSH1 0x0 PUSH1 0x20 DUP3 ADD SWAP1 POP DUP2 DUP2 SUB PUSH1 0x0 DUP4 ADD MSTORE PUSH2 0x494C DUP2 DUP5 PUSH2 0x48BD JUMP JUMPDEST SWAP1 POP SWAP3 SWAP2 POP POP JUMP JUMPDEST PUSH2 0x495D DUP2 PUSH2 0x4339 JUMP JUMPDEST DUP2 EQ PUSH2 0x4968 JUMPI PUSH1 0x0 DUP1 REVERT JUMPDEST POP JUMP JUMPDEST PUSH1 0x0 DUP2 CALLDATALOAD SWAP1 POP PUSH2 0x497A DUP2 PUSH2 0x4954 JUMP JUMPDEST SWAP3 SWAP2 POP POP JUMP JUMPDEST PUSH1 0x0 DUP1 PUSH1 0x0 PUSH1 0x60 DUP5 DUP7 SUB SLT ISZERO PUSH2 0x4999 JUMPI PUSH2 0x4998 PUSH2 0x3E06 JUMP JUMPDEST JUMPDEST PUSH1 0x0 PUSH2 0x49A7 DUP7 DUP3 DUP8 ADD PUSH2 0x3E31 JUMP JUMPDEST SWAP4 POP POP PUSH1 0x20 PUSH2 0x49B8 DUP7 DUP3 DUP8 ADD PUSH2 0x3E31 JUMP JUMPDEST SWAP3 POP POP PUSH1 0x40 PUSH2 0x49C9 DUP7 DUP3 DUP8 ADD PUSH2 0x496B JUMP JUMPDEST SWAP2 POP POP SWAP3 POP SWAP3 POP SWAP3 JUMP JUMPDEST PUSH1 0x0 DUP2 MLOAD SWAP1 POP SWAP2 SWAP1 POP JUMP JUMPDEST PUSH1 0x0 DUP3 DUP3 MSTORE PUSH1 0x20 DUP3 ADD SWAP1 POP SWAP3 SWAP2 POP POP JUMP JUMPDEST PUSH1 0x0 DUP2 SWAP1 POP PUSH1 0x20 DUP3 ADD SWAP1 POP SWAP2 SWAP1 POP JUMP JUMPDEST PUSH1 0x0 PUSH2 0x140 DUP4 ADD PUSH1 0x0 DUP4 ADD MLOAD PUSH2 0x4A18 PUSH1 0x0 DUP7 ADD DUP3 PUSH2 0x3E9F JUMP JUMPDEST POP PUSH1 0x20 DUP4 ADD MLOAD PUSH2 0x4A2B PUSH1 0x20 DUP7 ADD DUP3 PUSH2 0x3EE0 JUMP JUMPDEST POP PUSH1 0x40 DUP4 ADD MLOAD PUSH2 0x4A3E PUSH1 0x40 DUP7 ADD DUP3 PUSH2 0x3EE0 JUMP JUMPDEST POP PUSH1 0x60 DUP4 ADD MLOAD PUSH2 0x4A51 PUSH1 0x60 DUP7 ADD DUP3 PUSH2 0x3E9F JUMP JUMPDEST POP PUSH1 0x80 DUP4 ADD MLOAD PUSH2 0x4A64 PUSH1 0x80 DUP7 ADD DUP3 PUSH2 0x3E9F JUMP JUMPDEST POP PUSH1 0xA0 DUP4 ADD MLOAD DUP5 DUP3 SUB PUSH1 0xA0 DUP7 ADD MSTORE PUSH2 0x4A7C DUP3 DUP3 PUSH2 0x3F4F JUMP JUMPDEST SWAP2 POP POP PUSH1 0xC0 DUP4 ADD MLOAD PUSH2 0x4A91 PUSH1 0xC0 DUP7 ADD DUP3 PUSH2 0x3E9F JUMP JUMPDEST POP PUSH1 0xE0 DUP4 ADD MLOAD PUSH2 0x4AA4 PUSH1 0xE0 DUP7 ADD DUP3 PUSH2 0x3E9F JUMP JUMPDEST POP PUSH2 0x100 DUP4 ADD MLOAD PUSH2 0x4AB9 PUSH2 0x100 DUP7 ADD DUP3 PUSH2 0x3E9F JUMP JUMPDEST POP PUSH2 0x120 DUP4 ADD MLOAD PUSH2 0x4ACE PUSH2 0x120 DUP7 ADD DUP3 PUSH2 0x3E9F JUMP JUMPDEST POP DUP1 SWAP2 POP POP SWAP3 SWAP2 POP POP JUMP JUMPDEST PUSH1 0x0 PUSH2 0x4AE5 DUP4 DUP4 PUSH2 0x49FF JUMP JUMPDEST SWAP1 POP SWAP3 SWAP2 POP POP JUMP JUMPDEST PUSH1 0x0 PUSH1 0x20 DUP3 ADD SWAP1 POP SWAP2 SWAP1 POP JUMP JUMPDEST PUSH1 0x0 PUSH2 0x4B05 DUP3 PUSH2 0x49D3 JUMP JUMPDEST PUSH2 0x4B0F DUP2 DUP6 PUSH2 0x49DE JUMP JUMPDEST SWAP4 POP DUP4 PUSH1 0x20 DUP3 MUL DUP6 ADD PUSH2 0x4B21 DUP6 PUSH2 0x49EF JUMP JUMPDEST DUP1 PUSH1 0x0 JUMPDEST DUP6 DUP2 LT ISZERO PUSH2 0x4B5D JUMPI DUP5 DUP5 SUB DUP10 MSTORE DUP2 MLOAD PUSH2 0x4B3E DUP6 DUP3 PUSH2 0x4AD9 JUMP JUMPDEST SWAP5 POP PUSH2 0x4B49 DUP4 PUSH2 0x4AED JUMP JUMPDEST SWAP3 POP PUSH1 0x20 DUP11 ADD SWAP10 POP POP PUSH1 0x1 DUP2 ADD SWAP1 POP PUSH2 0x4B25 JUMP JUMPDEST POP DUP3 SWAP8 POP DUP8 SWAP6 POP POP POP POP POP POP SWAP3 SWAP2 POP POP JUMP JUMPDEST PUSH1 0x0 PUSH1 0x20 DUP3 ADD SWAP1 POP DUP2 DUP2 SUB PUSH1 0x0 DUP4 ADD MSTORE PUSH2 0x4B89 DUP2 DUP5 PUSH2 0x4AFA JUMP JUMPDEST SWAP1 POP SWAP3 SWAP2 POP POP JUMP JUMPDEST PUSH1 0x0 DUP1 PUSH1 0x0 DUP1 PUSH1 0x80 DUP6 DUP8 SUB SLT ISZERO PUSH2 0x4BAB JUMPI PUSH2 0x4BAA PUSH2 0x3E06 JUMP JUMPDEST JUMPDEST PUSH1 0x0 PUSH2 0x4BB9 DUP8 DUP3 DUP9 ADD PUSH2 0x3E31 JUMP JUMPDEST SWAP5 POP POP PUSH1 0x20 PUSH2 0x4BCA DUP8 DUP3 DUP9 ADD PUSH2 0x3E31 JUMP JUMPDEST SWAP4 POP POP PUSH1 0x40 DUP6 ADD CALLDATALOAD PUSH8 0xFFFFFFFFFFFFFFFF DUP2 GT ISZERO PUSH2 0x4BEB JUMPI PUSH2 0x4BEA PUSH2 0x3E0B JUMP JUMPDEST JUMPDEST PUSH2 0x4BF7 DUP8 DUP3 DUP9 ADD PUSH2 0x4476 JUMP JUMPDEST SWAP3 POP POP PUSH1 0x60 DUP6 ADD CALLDATALOAD PUSH8 0xFFFFFFFFFFFFFFFF DUP2 GT ISZERO PUSH2 0x4C18 JUMPI PUSH2 0x4C17 PUSH2 0x3E0B JUMP JUMPDEST JUMPDEST PUSH2 0x4C24 DUP8 DUP3 DUP9 ADD PUSH2 0x4476 JUMP JUMPDEST SWAP2 POP POP SWAP3 SWAP6 SWAP2 SWAP5 POP SWAP3 POP JUMP JUMPDEST PUSH1 0x0 DUP1 PUSH1 0x0 DUP1 PUSH1 0x0 PUSH1 0xA0 DUP7 DUP9 SUB SLT ISZERO PUSH2 0x4C4C JUMPI PUSH2 0x4C4B PUSH2 0x3E06 JUMP JUMPDEST JUMPDEST PUSH1 0x0 PUSH2 0x4C5A DUP9 DUP3 DUP10 ADD PUSH2 0x3E31 JUMP JUMPDEST SWAP6 POP POP PUSH1 0x20 PUSH2 0x4C6B DUP9 DUP3 DUP10 ADD PUSH2 0x3E31 JUMP JUMPDEST SWAP5 POP POP PUSH1 0x40 PUSH2 0x4C7C DUP9 DUP3 DUP10 ADD PUSH2 0x4240 JUMP JUMPDEST SWAP4 POP POP PUSH1 0x60 DUP7 ADD CALLDATALOAD PUSH8 0xFFFFFFFFFFFFFFFF DUP2 GT ISZERO PUSH2 0x4C9D JUMPI PUSH2 0x4C9C PUSH2 0x3E0B JUMP JUMPDEST JUMPDEST PUSH2 0x4CA9 DUP9 DUP3 DUP10 ADD PUSH2 0x4476 JUMP JUMPDEST SWAP3 POP POP PUSH1 0x80 DUP7 ADD CALLDATALOAD PUSH8 0xFFFFFFFFFFFFFFFF DUP2 GT ISZERO PUSH2 0x4CCA JUMPI PUSH2 0x4CC9 PUSH2 0x3E0B JUMP JUMPDEST JUMPDEST PUSH2 0x4CD6 DUP9 DUP3 DUP10 ADD PUSH2 0x4476 JUMP JUMPDEST SWAP2 POP POP SWAP3 SWAP6 POP SWAP3 SWAP6 SWAP1 SWAP4 POP JUMP JUMPDEST PUSH1 0x0 DUP2 SWAP1 POP SWAP2 SWAP1 POP JUMP JUMPDEST PUSH2 0x4CF6 DUP2 PUSH2 0x4CE3 JUMP JUMPDEST DUP3 MSTORE POP POP JUMP JUMPDEST PUSH1 0x0 PUSH1 0x20 DUP3 ADD SWAP1 POP PUSH2 0x4D11 PUSH1 0x0 DUP4 ADD DUP5 PUSH2 0x4CED JUMP JUMPDEST SWAP3 SWAP2 POP POP JUMP JUMPDEST PUSH1 0x0 PUSH2 0x140 DUP4 ADD PUSH1 0x0 DUP4 ADD MLOAD PUSH2 0x4D30 PUSH1 0x0 DUP7 ADD DUP3 PUSH2 0x3E9F JUMP JUMPDEST POP PUSH1 0x20 DUP4 ADD MLOAD DUP5 DUP3 SUB PUSH1 0x20 DUP7 ADD MSTORE PUSH2 0x4D48 DUP3 DUP3 PUSH2 0x3F4F JUMP JUMPDEST SWAP2 POP POP PUSH1 0x40 DUP4 ADD MLOAD PUSH2 0x4D5D PUSH1 0x40 DUP7 ADD DUP3 PUSH2 0x3E9F JUMP JUMPDEST POP PUSH1 0x60 DUP4 ADD MLOAD PUSH2 0x4D70 PUSH1 0x60 DUP7 ADD DUP3 PUSH2 0x3E9F JUMP JUMPDEST POP PUSH1 0x80 DUP4 ADD MLOAD PUSH2 0x4D83 PUSH1 0x80 DUP7 ADD DUP3 PUSH2 0x3E9F JUMP JUMPDEST POP PUSH1 0xA0 DUP4 ADD MLOAD PUSH2 0x4D96 PUSH1 0xA0 DUP7 ADD DUP3 PUSH2 0x3E9F JUMP JUMPDEST POP PUSH1 0xC0 DUP4 ADD MLOAD PUSH2 0x4DA9 PUSH1 0xC0 DUP7 ADD DUP3 PUSH2 0x3E9F JUMP JUMPDEST POP PUSH1 0xE0 DUP4 ADD MLOAD DUP5 DUP3 SUB PUSH1 0xE0 DUP7 ADD MSTORE PUSH2 0x4DC1 DUP3 DUP3 PUSH2 0x3F4F JUMP JUMPDEST SWAP2 POP POP PUSH2 0x100 DUP4 ADD MLOAD DUP5 DUP3 SUB PUSH2 0x100 DUP7 ADD MSTORE PUSH2 0x4DDD DUP3 DUP3 PUSH2 0x3F4F JUMP JUMPDEST SWAP2 POP POP PUSH2 0x120 DUP4 ADD MLOAD PUSH2 0x4DF4 PUSH2 0x120 DUP7 ADD DUP3 PUSH2 0x3E9F JUMP JUMPDEST POP DUP1 SWAP2 POP POP SWAP3 SWAP2 POP POP JUMP JUMPDEST PUSH1 0x0 PUSH1 0x20 DUP3 ADD SWAP1 POP DUP2 DUP2 SUB PUSH1 0x0 DUP4 ADD MSTORE PUSH2 0x4E19 DUP2 DUP5 PUSH2 0x4D17 JUMP JUMPDEST SWAP1 POP SWAP3 SWAP2 POP POP JUMP JUMPDEST PUSH2 0x4E2A DUP2 PUSH2 0x4CE3 JUMP JUMPDEST DUP2 EQ PUSH2 0x4E35 JUMPI PUSH1 0x0 DUP1 REVERT JUMPDEST POP JUMP JUMPDEST PUSH1 0x0 DUP2 CALLDATALOAD SWAP1 POP PUSH2 0x4E47 DUP2 PUSH2 0x4E21 JUMP JUMPDEST SWAP3 SWAP2 POP POP JUMP JUMPDEST PUSH1 0x0 PUSH1 0x20 DUP3 DUP5 SUB SLT ISZERO PUSH2 0x4E63 JUMPI PUSH2 0x4E62 PUSH2 0x3E06 JUMP JUMPDEST JUMPDEST PUSH1 0x0 PUSH2 0x4E71 DUP5 DUP3 DUP6 ADD PUSH2 0x4E38 JUMP JUMPDEST SWAP2 POP POP SWAP3 SWAP2 POP POP JUMP JUMPDEST PUSH1 0x0 DUP3 DUP3 MSTORE PUSH1 0x20 DUP3 ADD SWAP1 POP SWAP3 SWAP2 POP POP JUMP JUMPDEST PUSH32 0x436C756220646F6573206E6F7420657869737400000000000000000000000000 PUSH1 0x0 DUP3 ADD MSTORE POP JUMP JUMPDEST PUSH1 0x0 PUSH2 0x4EC1 PUSH1 0x13 DUP4 PUSH2 0x4E7A JUMP JUMPDEST SWAP2 POP PUSH2 0x4ECC DUP3 PUSH2 0x4E8B JUMP JUMPDEST PUSH1 0x20 DUP3 ADD SWAP1 POP SWAP2 SWAP1 POP JUMP JUMPDEST PUSH1 0x0 PUSH1 0x20 DUP3 ADD SWAP1 POP DUP2 DUP2 SUB PUSH1 0x0 DUP4 ADD MSTORE PUSH2 0x4EF0 DUP2 PUSH2 0x4EB4 JUMP JUMPDEST SWAP1 POP SWAP2 SWAP1 POP JUMP JUMPDEST PUSH32 0x4E487B7100000000000000000000000000000000000000000000000000000000 PUSH1 0x0 MSTORE PUSH1 0x22 PUSH1 0x4 MSTORE PUSH1 0x24 PUSH1 0x0 REVERT JUMPDEST PUSH1 0x0 PUSH1 0x2 DUP3 DIV SWAP1 POP PUSH1 0x1 DUP3 AND DUP1 PUSH2 0x4F3E JUMPI PUSH1 0x7F DUP3 AND SWAP2 POP JUMPDEST PUSH1 0x20 DUP3 LT DUP2 EQ ISZERO PUSH2 0x4F52 JUMPI PUSH2 0x4F51 PUSH2 0x4EF7 JUMP JUMPDEST JUMPDEST POP SWAP2 SWAP1 POP JUMP JUMPDEST PUSH32 0x4E487B7100000000000000000000000000000000000000000000000000000000 PUSH1 0x0 MSTORE PUSH1 0x32 PUSH1 0x4 MSTORE PUSH1 0x24 PUSH1 0x0 REVERT JUMPDEST PUSH32 0x4E487B7100000000000000000000000000000000000000000000000000000000 PUSH1 0x0 MSTORE PUSH1 0x11 PUSH1 0x4 MSTORE PUSH1 0x24 PUSH1 0x0 REVERT JUMPDEST PUSH1 0x0 PUSH2 0x4FC1 DUP3 PUSH2 0x3E10 JUMP JUMPDEST SWAP2 POP PUSH32 0xFFFFFFFFFFFFFFFFFFFFFFFFFFFFFFFFFFFFFFFFFFFFFFFFFFFFFFFFFFFFFFFF DUP3 EQ ISZERO PUSH2 0x4FF4 JUMPI PUSH2 0x4FF3 PUSH2 0x4F87 JUMP JUMPDEST JUMPDEST PUSH1 0x1 DUP3 ADD SWAP1 POP SWAP2 SWAP1 POP JUMP JUMPDEST PUSH32 0x74686520636C756220646F6573206E6F74206578697374000000000000000000 PUSH1 0x0 DUP3 ADD MSTORE POP JUMP JUMPDEST PUSH1 0x0 PUSH2 0x5035 PUSH1 0x17 DUP4 PUSH2 0x4E7A JUMP JUMPDEST SWAP2 POP PUSH2 0x5040 DUP3 PUSH2 0x4FFF JUMP JUMPDEST PUSH1 0x20 DUP3 ADD SWAP1 POP SWAP2 SWAP1 POP JUMP JUMPDEST PUSH1 0x0 PUSH1 0x20 DUP3 ADD SWAP1 POP DUP2 DUP2 SUB PUSH1 0x0 DUP4 ADD MSTORE PUSH2 0x5064 DUP2 PUSH2 0x5028 JUMP JUMPDEST SWAP1 POP SWAP2 SWAP1 POP JUMP JUMPDEST PUSH32 0x596F7520617265206E6F742061206D656D626572206F662074686520636C7562 PUSH1 0x0 DUP3 ADD MSTORE POP JUMP JUMPDEST PUSH1 0x0 PUSH2 0x50A1 PUSH1 0x20 DUP4 PUSH2 0x4E7A JUMP JUMPDEST SWAP2 POP PUSH2 0x50AC DUP3 PUSH2 0x506B JUMP JUMPDEST PUSH1 0x20 DUP3 ADD SWAP1 POP SWAP2 SWAP1 POP JUMP JUMPDEST PUSH1 0x0 PUSH1 0x20 DUP3 ADD SWAP1 POP DUP2 DUP2 SUB PUSH1 0x0 DUP4 ADD MSTORE PUSH2 0x50D0 DUP2 PUSH2 0x5094 JUMP JUMPDEST SWAP1 POP SWAP2 SWAP1 POP JUMP JUMPDEST PUSH1 0x0 PUSH2 0x50E2 DUP3 PUSH2 0x3E10 JUMP JUMPDEST SWAP2 POP PUSH2 0x50ED DUP4 PUSH2 0x3E10 JUMP JUMPDEST SWAP3 POP DUP3 PUSH32 0xFFFFFFFFFFFFFFFFFFFFFFFFFFFFFFFFFFFFFFFFFFFFFFFFFFFFFFFFFFFFFFFF SUB DUP3 GT ISZERO PUSH2 0x5122 JUMPI PUSH2 0x5121 PUSH2 0x4F87 JUMP JUMPDEST JUMPDEST DUP3 DUP3 ADD SWAP1 POP SWAP3 SWAP2 POP POP JUMP JUMPDEST PUSH2 0x5136 DUP2 PUSH2 0x3ECE JUMP JUMPDEST DUP3 MSTORE POP POP JUMP JUMPDEST PUSH1 0x0 PUSH1 0x80 DUP3 ADD SWAP1 POP PUSH2 0x5151 PUSH1 0x0 DUP4 ADD DUP8 PUSH2 0x42BC JUMP JUMPDEST PUSH2 0x515E PUSH1 0x20 DUP4 ADD DUP7 PUSH2 0x512D JUMP JUMPDEST PUSH2 0x516B PUSH1 0x40 DUP4 ADD DUP6 PUSH2 0x42BC JUMP JUMPDEST PUSH2 0x5178 PUSH1 0x60 DUP4 ADD DUP5 PUSH2 0x42BC JUMP JUMPDEST SWAP6 SWAP5 POP POP POP POP POP JUMP JUMPDEST PUSH32 0x5468652070726F706F73616C20646F6573206E6F742065786973740000000000 PUSH1 0x0 DUP3 ADD MSTORE POP JUMP JUMPDEST PUSH1 0x0 PUSH2 0x51B7 PUSH1 0x1B DUP4 PUSH2 0x4E7A JUMP JUMPDEST SWAP2 POP PUSH2 0x51C2 DUP3 PUSH2 0x5181 JUMP JUMPDEST PUSH1 0x20 DUP3 ADD SWAP1 POP SWAP2 SWAP1 POP JUMP JUMPDEST PUSH1 0x0 PUSH1 0x20 DUP3 ADD SWAP1 POP DUP2 DUP2 SUB PUSH1 0x0 DUP4 ADD MSTORE PUSH2 0x51E6 DUP2 PUSH2 0x51AA JUMP JUMPDEST SWAP1 POP SWAP2 SWAP1 POP JUMP JUMPDEST PUSH32 0x4F6E6C79207468652063726561746F72206F66207468652070726F706F73616C PUSH1 0x0 DUP3 ADD MSTORE PUSH32 0x2063616E20657865637574652069740000000000000000000000000000000000 PUSH1 0x20 DUP3 ADD MSTORE POP JUMP JUMPDEST PUSH1 0x0 PUSH2 0x5249 PUSH1 0x2F DUP4 PUSH2 0x4E7A JUMP JUMPDEST SWAP2 POP PUSH2 0x5254 DUP3 PUSH2 0x51ED JUMP JUMPDEST PUSH1 0x40 DUP3 ADD SWAP1 POP SWAP2 SWAP1 POP JUMP JUMPDEST PUSH1 0x0 PUSH1 0x20 DUP3 ADD SWAP1 POP DUP2 DUP2 SUB PUSH1 0x0 DUP4 ADD MSTORE PUSH2 0x5278 DUP2 PUSH2 0x523C JUMP JUMPDEST SWAP1 POP SWAP2 SWAP1 POP JUMP JUMPDEST PUSH32 0x54686520616D6F756E7420657863656564732074686520706F6F6C206F662074 PUSH1 0x0 DUP3 ADD MSTORE PUSH32 0x686520636C756200000000000000000000000000000000000000000000000000 PUSH1 0x20 DUP3 ADD MSTORE POP JUMP JUMPDEST PUSH1 0x0 PUSH2 0x52DB PUSH1 0x27 DUP4 PUSH2 0x4E7A JUMP JUMPDEST SWAP2 POP PUSH2 0x52E6 DUP3 PUSH2 0x527F JUMP JUMPDEST PUSH1 0x40 DUP3 ADD SWAP1 POP SWAP2 SWAP1 POP JUMP JUMPDEST PUSH1 0x0 PUSH1 0x20 DUP3 ADD SWAP1 POP DUP2 DUP2 SUB PUSH1 0x0 DUP4 ADD MSTORE PUSH2 0x530A DUP2 PUSH2 0x52CE JUMP JUMPDEST SWAP1 POP SWAP2 SWAP1 POP JUMP JUMPDEST PUSH32 0x5468652070726F706F73616C20686173206E6F74206265656E20617070726F76 PUSH1 0x0 DUP3 ADD MSTORE PUSH32 0x6564000000000000000000000000000000000000000000000000000000000000 PUSH1 0x20 DUP3 ADD MSTORE POP JUMP JUMPDEST PUSH1 0x0 PUSH2 0x536D PUSH1 0x22 DUP4 PUSH2 0x4E7A JUMP JUMPDEST SWAP2 POP PUSH2 0x5378 DUP3 PUSH2 0x5311 JUMP JUMPDEST PUSH1 0x40 DUP3 ADD SWAP1 POP SWAP2 SWAP1 POP JUMP JUMPDEST PUSH1 0x0 PUSH1 0x20 DUP3 ADD SWAP1 POP DUP2 DUP2 SUB PUSH1 0x0 DUP4 ADD MSTORE PUSH2 0x539C DUP2 PUSH2 0x5360 JUMP JUMPDEST SWAP1 POP SWAP2 SWAP1 POP JUMP JUMPDEST PUSH32 0x596F752063616E2774206265666F72652074686520566F74696E672064656164 PUSH1 0x0 DUP3 ADD MSTORE PUSH32 0x6C696E6500000000000000000000000000000000000000000000000000000000 PUSH1 0x20 DUP3 ADD MSTORE POP JUMP JUMPDEST PUSH1 0x0 PUSH2 0x53FF PUSH1 0x24 DUP4 PUSH2 0x4E7A JUMP JUMPDEST SWAP2 POP PUSH2 0x540A DUP3 PUSH2 0x53A3 JUMP JUMPDEST PUSH1 0x40 DUP3 ADD SWAP1 POP SWAP2 SWAP1 POP JUMP JUMPDEST PUSH1 0x0 PUSH1 0x20 DUP3 ADD SWAP1 POP DUP2 DUP2 SUB PUSH1 0x0 DUP4 ADD MSTORE PUSH2 0x542E DUP2 PUSH2 0x53F2 JUMP JUMPDEST SWAP1 POP SWAP2 SWAP1 POP JUMP JUMPDEST PUSH1 0x0 PUSH2 0x5440 DUP3 PUSH2 0x3E10 JUMP JUMPDEST SWAP2 POP PUSH2 0x544B DUP4 PUSH2 0x3E10 JUMP JUMPDEST SWAP3 POP DUP3 DUP3 LT ISZERO PUSH2 0x545E JUMPI PUSH2 0x545D PUSH2 0x4F87 JUMP JUMPDEST JUMPDEST DUP3 DUP3 SUB SWAP1 POP SWAP3 SWAP2 POP POP JUMP JUMPDEST PUSH32 0x596F75206D7573742073656E642045564D4F5320746F20636F6E747269627574 PUSH1 0x0 DUP3 ADD MSTORE PUSH32 0x6500000000000000000000000000000000000000000000000000000000000000 PUSH1 0x20 DUP3 ADD MSTORE POP JUMP JUMPDEST PUSH1 0x0 PUSH2 0x54C5 PUSH1 0x21 DUP4 PUSH2 0x4E7A JUMP JUMPDEST SWAP2 POP PUSH2 0x54D0 DUP3 PUSH2 0x5469 JUMP JUMPDEST PUSH1 0x40 DUP3 ADD SWAP1 POP SWAP2 SWAP1 POP JUMP JUMPDEST PUSH1 0x0 PUSH1 0x20 DUP3 ADD SWAP1 POP DUP2 DUP2 SUB PUSH1 0x0 DUP4 ADD MSTORE PUSH2 0x54F4 DUP2 PUSH2 0x54B8 JUMP JUMPDEST SWAP1 POP SWAP2 SWAP1 POP JUMP JUMPDEST PUSH32 0x436C756220697320636C6F736564000000000000000000000000000000000000 PUSH1 0x0 DUP3 ADD MSTORE POP JUMP JUMPDEST PUSH1 0x0 PUSH2 0x5531 PUSH1 0xE DUP4 PUSH2 0x4E7A JUMP JUMPDEST SWAP2 POP PUSH2 0x553C DUP3 PUSH2 0x54FB JUMP JUMPDEST PUSH1 0x20 DUP3 ADD SWAP1 POP SWAP2 SWAP1 POP JUMP JUMPDEST PUSH1 0x0 PUSH1 0x20 DUP3 ADD SWAP1 POP DUP2 DUP2 SUB PUSH1 0x0 DUP4 ADD MSTORE PUSH2 0x5560 DUP2 PUSH2 0x5524 JUMP JUMPDEST SWAP1 POP SWAP2 SWAP1 POP JUMP JUMPDEST PUSH32 0x566F74696E6720506572696F642046696E697368656400000000000000000000 PUSH1 0x0 DUP3 ADD MSTORE POP JUMP JUMPDEST PUSH1 0x0 PUSH2 0x559D PUSH1 0x16 DUP4 PUSH2 0x4E7A JUMP JUMPDEST SWAP2 POP PUSH2 0x55A8 DUP3 PUSH2 0x5567 JUMP JUMPDEST PUSH1 0x20 DUP3 ADD SWAP1 POP SWAP2 SWAP1 POP JUMP JUMPDEST PUSH1 0x0 PUSH1 0x20 DUP3 ADD SWAP1 POP DUP2 DUP2 SUB PUSH1 0x0 DUP4 ADD MSTORE PUSH2 0x55CC DUP2 PUSH2 0x5590 JUMP JUMPDEST SWAP1 POP SWAP2 SWAP1 POP JUMP JUMPDEST PUSH32 0x596F75206861766520616C726561647920766F746564206F6E20746869732070 PUSH1 0x0 DUP3 ADD MSTORE PUSH32 0x726F706F73616C00000000000000000000000000000000000000000000000000 PUSH1 0x20 DUP3 ADD MSTORE POP JUMP JUMPDEST PUSH1 0x0 PUSH2 0x562F PUSH1 0x27 DUP4 PUSH2 0x4E7A JUMP JUMPDEST SWAP2 POP PUSH2 0x563A DUP3 PUSH2 0x55D3 JUMP JUMPDEST PUSH1 0x40 DUP3 ADD SWAP1 POP SWAP2 SWAP1 POP JUMP JUMPDEST PUSH1 0x0 PUSH1 0x20 DUP3 ADD SWAP1 POP DUP2 DUP2 SUB PUSH1 0x0 DUP4 ADD MSTORE PUSH2 0x565E DUP2 PUSH2 0x5622 JUMP JUMPDEST SWAP1 POP SWAP2 SWAP1 POP JUMP JUMPDEST PUSH1 0x0 DUP2 SWAP1 POP SWAP3 SWAP2 POP POP JUMP JUMPDEST PUSH1 0x0 DUP2 SWAP1 POP DUP2 PUSH1 0x0 MSTORE PUSH1 0x20 PUSH1 0x0 KECCAK256 SWAP1 POP SWAP2 SWAP1 POP JUMP JUMPDEST PUSH1 0x0 DUP2 SLOAD PUSH2 0x5692 DUP2 PUSH2 0x4F26 JUMP JUMPDEST PUSH2 0x569C DUP2 DUP7 PUSH2 0x5665 JUMP JUMPDEST SWAP5 POP PUSH1 0x1 DUP3 AND PUSH1 0x0 DUP2 EQ PUSH2 0x56B7 JUMPI PUSH1 0x1 DUP2 EQ PUSH2 0x56C8 JUMPI PUSH2 0x56FB JUMP JUMPDEST PUSH1 0xFF NOT DUP4 AND DUP7 MSTORE DUP2 DUP7 ADD SWAP4 POP PUSH2 0x56FB JUMP JUMPDEST PUSH2 0x56D1 DUP6 PUSH2 0x5670 JUMP JUMPDEST PUSH1 0x0 JUMPDEST DUP4 DUP2 LT ISZERO PUSH2 0x56F3 JUMPI DUP2 SLOAD DUP2 DUP10 ADD MSTORE PUSH1 0x1 DUP3 ADD SWAP2 POP PUSH1 0x20 DUP2 ADD SWAP1 POP PUSH2 0x56D4 JUMP JUMPDEST DUP4 DUP9 ADD SWAP6 POP POP POP JUMPDEST POP POP POP SWAP3 SWAP2 POP POP JUMP JUMPDEST PUSH1 0x0 PUSH2 0x5710 DUP3 DUP5 PUSH2 0x5685 JUMP JUMPDEST SWAP2 POP DUP2 SWAP1 POP SWAP3 SWAP2 POP POP JUMP JUMPDEST PUSH32 0x5468652070726F706F73616C206973206E6F206C6F6E6765722070656E64696E PUSH1 0x0 DUP3 ADD MSTORE PUSH32 0x6700000000000000000000000000000000000000000000000000000000000000 PUSH1 0x20 DUP3 ADD MSTORE POP JUMP JUMPDEST PUSH1 0x0 PUSH2 0x5777 PUSH1 0x21 DUP4 PUSH2 0x4E7A JUMP JUMPDEST SWAP2 POP PUSH2 0x5782 DUP3 PUSH2 0x571B JUMP JUMPDEST PUSH1 0x40 DUP3 ADD SWAP1 POP SWAP2 SWAP1 POP JUMP JUMPDEST PUSH1 0x0 PUSH1 0x20 DUP3 ADD SWAP1 POP DUP2 DUP2 SUB PUSH1 0x0 DUP4 ADD MSTORE PUSH2 0x57A6 DUP2 PUSH2 0x576A JUMP JUMPDEST SWAP1 POP SWAP2 SWAP1 POP JUMP JUMPDEST PUSH32 0x54686520636C756220646F6573206E6F74206578697374000000000000000000 PUSH1 0x0 DUP3 ADD MSTORE POP JUMP JUMPDEST PUSH1 0x0 PUSH2 0x57E3 PUSH1 0x17 DUP4 PUSH2 0x4E7A JUMP JUMPDEST SWAP2 POP PUSH2 0x57EE DUP3 PUSH2 0x57AD JUMP JUMPDEST PUSH1 0x20 DUP3 ADD SWAP1 POP SWAP2 SWAP1 POP JUMP JUMPDEST PUSH1 0x0 PUSH1 0x20 DUP3 ADD SWAP1 POP DUP2 DUP2 SUB PUSH1 0x0 DUP4 ADD MSTORE PUSH2 0x5812 DUP2 PUSH2 0x57D6 JUMP JUMPDEST SWAP1 POP SWAP2 SWAP1 POP JUMP JUMPDEST PUSH32 0x54686520616D6F756E74206F66207468652070726F706F73616C206D75737420 PUSH1 0x0 DUP3 ADD MSTORE PUSH32 0x62652067726561746572207468616E2030000000000000000000000000000000 PUSH1 0x20 DUP3 ADD MSTORE POP JUMP JUMPDEST PUSH1 0x0 PUSH2 0x5875 PUSH1 0x31 DUP4 PUSH2 0x4E7A JUMP JUMPDEST SWAP2 POP PUSH2 0x5880 DUP3 PUSH2 0x5819 JUMP JUMPDEST PUSH1 0x40 DUP3 ADD SWAP1 POP SWAP2 SWAP1 POP JUMP JUMPDEST PUSH1 0x0 PUSH1 0x20 DUP3 ADD SWAP1 POP DUP2 DUP2 SUB PUSH1 0x0 DUP4 ADD MSTORE PUSH2 0x58A4 DUP2 PUSH2 0x5868 JUMP JUMPDEST SWAP1 POP SWAP2 SWAP1 POP JUMP JUMPDEST PUSH1 0x0 PUSH10 0xFFFFFFFFFFFFFFFFFFFF DUP3 AND SWAP1 POP SWAP2 SWAP1 POP JUMP JUMPDEST PUSH2 0x58CA DUP2 PUSH2 0x58AB JUMP JUMPDEST DUP2 EQ PUSH2 0x58D5 JUMPI PUSH1 0x0 DUP1 REVERT JUMPDEST POP JUMP JUMPDEST PUSH1 0x0 DUP2 MLOAD SWAP1 POP PUSH2 0x58E7 DUP2 PUSH2 0x58C1 JUMP JUMPDEST SWAP3 SWAP2 POP POP JUMP JUMPDEST PUSH1 0x0 DUP2 MLOAD SWAP1 POP PUSH2 0x58FC DUP2 PUSH2 0x4E21 JUMP JUMPDEST SWAP3 SWAP2 POP POP JUMP JUMPDEST PUSH1 0x0 DUP2 MLOAD SWAP1 POP PUSH2 0x5911 DUP2 PUSH2 0x3E1A JUMP JUMPDEST SWAP3 SWAP2 POP POP JUMP JUMPDEST PUSH1 0x0 DUP1 PUSH1 0x0 DUP1 PUSH1 0x0 PUSH1 0xA0 DUP7 DUP9 SUB SLT ISZERO PUSH2 0x5933 JUMPI PUSH2 0x5932 PUSH2 0x3E06 JUMP JUMPDEST JUMPDEST PUSH1 0x0 PUSH2 0x5941 DUP9 DUP3 DUP10 ADD PUSH2 0x58D8 JUMP JUMPDEST SWAP6 POP POP PUSH1 0x20 PUSH2 0x5952 DUP9 DUP3 DUP10 ADD PUSH2 0x58ED JUMP JUMPDEST SWAP5 POP POP PUSH1 0x40 PUSH2 0x5963 DUP9 DUP3 DUP10 ADD PUSH2 0x5902 JUMP JUMPDEST SWAP4 POP POP PUSH1 0x60 PUSH2 0x5974 DUP9 DUP3 DUP10 ADD PUSH2 0x5902 JUMP JUMPDEST SWAP3 POP POP PUSH1 0x80 PUSH2 0x5985 DUP9 DUP3 DUP10 ADD PUSH2 0x58D8 JUMP JUMPDEST SWAP2 POP POP SWAP3 SWAP6 POP SWAP3 SWAP6 SWAP1 SWAP4 POP JUMP JUMPDEST PUSH32 0x54686520636C75622069732066756C6C2C206E6F206D6F7265206D656D626572 PUSH1 0x0 DUP3 ADD MSTORE PUSH32 0x732063616E206265206164646564000000000000000000000000000000000000 PUSH1 0x20 DUP3 ADD MSTORE POP JUMP JUMPDEST PUSH1 0x0 PUSH2 0x59EE PUSH1 0x2E DUP4 PUSH2 0x4E7A JUMP JUMPDEST SWAP2 POP PUSH2 0x59F9 DUP3 PUSH2 0x5992 JUMP JUMPDEST PUSH1 0x40 DUP3 ADD SWAP1 POP SWAP2 SWAP1 POP JUMP JUMPDEST PUSH1 0x0 PUSH1 0x20 DUP3 ADD SWAP1 POP DUP2 DUP2 SUB PUSH1 0x0 DUP4 ADD MSTORE PUSH2 0x5A1D DUP2 PUSH2 0x59E1 JUMP JUMPDEST SWAP1 POP SWAP2 SWAP1 POP JUMP JUMPDEST PUSH32 0x596F752061726520616C72656164792061206D656D626572206F662074686520 PUSH1 0x0 DUP3 ADD MSTORE PUSH32 0x636C756200000000000000000000000000000000000000000000000000000000 PUSH1 0x20 DUP3 ADD MSTORE POP JUMP JUMPDEST PUSH1 0x0 PUSH2 0x5A80 PUSH1 0x24 DUP4 PUSH2 0x4E7A JUMP JUMPDEST SWAP2 POP PUSH2 0x5A8B DUP3 PUSH2 0x5A24 JUMP JUMPDEST PUSH1 0x40 DUP3 ADD SWAP1 POP SWAP2 SWAP1 POP JUMP JUMPDEST PUSH1 0x0 PUSH1 0x20 DUP3 ADD SWAP1 POP DUP2 DUP2 SUB PUSH1 0x0 DUP4 ADD MSTORE PUSH2 0x5AAF DUP2 PUSH2 0x5A73 JUMP JUMPDEST SWAP1 POP SWAP2 SWAP1 POP JUMP JUMPDEST PUSH32 0x5468652070726F706F73616C206973206E6F7420696E2070656E64696E672073 PUSH1 0x0 DUP3 ADD MSTORE PUSH32 0x7461747573000000000000000000000000000000000000000000000000000000 PUSH1 0x20 DUP3 ADD MSTORE POP JUMP JUMPDEST PUSH1 0x0 PUSH2 0x5B12 PUSH1 0x25 DUP4 PUSH2 0x4E7A JUMP JUMPDEST SWAP2 POP PUSH2 0x5B1D DUP3 PUSH2 0x5AB6 JUMP JUMPDEST PUSH1 0x40 DUP3 ADD SWAP1 POP SWAP2 SWAP1 POP JUMP JUMPDEST PUSH1 0x0 PUSH1 0x20 DUP3 ADD SWAP1 POP DUP2 DUP2 SUB PUSH1 0x0 DUP4 ADD MSTORE PUSH2 0x5B41 DUP2 PUSH2 0x5B05 JUMP JUMPDEST SWAP1 POP SWAP2 SWAP1 POP JUMP JUMPDEST PUSH32 0x4F6E6C79207468652070726F706F73616C2063726561746F722063616E20636C PUSH1 0x0 DUP3 ADD MSTORE PUSH32 0x6F7365207468652070726F706F73616C00000000000000000000000000000000 PUSH1 0x20 DUP3 ADD MSTORE POP JUMP JUMPDEST PUSH1 0x0 PUSH2 0x5BA4 PUSH1 0x30 DUP4 PUSH2 0x4E7A JUMP JUMPDEST SWAP2 POP PUSH2 0x5BAF DUP3 PUSH2 0x5B48 JUMP JUMPDEST PUSH1 0x40 DUP3 ADD SWAP1 POP SWAP2 SWAP1 POP JUMP JUMPDEST PUSH1 0x0 PUSH1 0x20 DUP3 ADD SWAP1 POP DUP2 DUP2 SUB PUSH1 0x0 DUP4 ADD MSTORE PUSH2 0x5BD3 DUP2 PUSH2 0x5B97 JUMP JUMPDEST SWAP1 POP SWAP2 SWAP1 POP JUMP INVALID LOG2 PUSH5 0x6970667358 0x22 SLT KECCAK256 0x2F 0x4B PUSH21 0x64D24AD70227FB04915B4B76DEFA01B8C62980308A CALLVALUE 0xB0 0xBB 0x2F SGT RETURNDATACOPY SDIV PUSH29 0x64736F6C634300080A0033000000000000000000000000000000000000 "},"methodIdentifiers":{"EntryTime()":"a4c22943","FillGameMember(uint256,uint256,address,uint256)":"0e46d214","LPrice()":"fb0e2776","LatestPrice(int256)":"e7ddd0de","StoredDatafeed(uint256)":"27449315","UpdateRandom(uint256,uint256,uint256,uint256)":"05f0ef7c","checkContri(address)":"b4723d44","checkContri(uint256,address)":"2443c344","claimprize(uint256,uint256)":"47f83c8f","closeProposal(uint256,uint256)":"e7613ea8","contri(address)":"3f7a6a82","contributeToClub(uint256)":"288509b4","createClub(string,string)":"35a1930f","createProposal(uint256,uint256,address,string,string)":"89972a32","executeProposal(uint256,uint256)":"1ab76712","getBalanceByClub(address,uint256)":"890e2456","getCarpiece(uint256,uint256,string,string)":"647e598b","getChainlinkDataFeedLatestAnswer()":"bea4dfb5","getClubById(uint256)":"c3741fed","getGameMemberByClub(uint256)":"5b2ade7c","getGamememberById(uint256,uint256)":"487598ca","getMyClubs()":"549710be","getProposalsByClub(uint256)":"058694a9","getdelandstorgae(uint256,uint256,uint256,string)":"1063fd19","hasVoted(address,uint256,uint256)":"0ee29404","isClubFull(uint256)":"c4670878","isClubIdExist(uint256)":"6764fd48","isGamememberIdExist(uint256,uint256)":"c2ba2756","isMemberOfClub(address,uint256)":"34fa3d83","isProposalIdExist(uint256,uint256)":"eec8e0db","isVotingOn(uint256,uint256)":"ab7ca348","isVotingOn1(uint256,uint256)":"1155bdfd","isclubopen(uint256)":"f9f2bb3c","joinClub(uint256)":"e1542742","leaveClub(uint256)":"4d7f75c3","listClubs()":"5ff847fb","proverifiydocs(uint256,uint256)":"9d9087b9","show()":"cc80f6f3","verifiydocs(uint256)":"82b7661b","voteOnProposal(uint256,uint256,bool)":"54a2e233"}}}}}