{
  "_format": "hh-sol-artifact-1",
  "contractName": "InvestmentClub",
  "sourceName": "contracts/InvestmentClub.sol",
  "abi": [
    {
      "inputs": [],
      "stateMutability": "nonpayable",
      "type": "constructor"
    },
    {
      "anonymous": false,
      "inputs": [
        {
          "indexed": false,
          "internalType": "uint256",
          "name": "clubId",
          "type": "uint256"
        },
        {
          "indexed": false,
          "internalType": "address",
          "name": "creator",
          "type": "address"
        },
        {
          "indexed": false,
          "internalType": "uint256",
          "name": "priceFeed",
          "type": "uint256"
        },
        {
          "indexed": false,
          "internalType": "uint256",
          "name": "predictedPrice",
          "type": "uint256"
        }
      ],
      "name": "Gamemember",
      "type": "event"
    },
    {
      "inputs": [],
      "name": "EntryTime",
      "outputs": [
        {
          "internalType": "uint256",
          "name": "",
          "type": "uint256"
        }
      ],
      "stateMutability": "view",
      "type": "function"
    },
    {
      "inputs": [
        {
          "internalType": "uint256",
          "name": "clubId",
          "type": "uint256"
        },
        {
          "internalType": "uint256",
          "name": "Price",
          "type": "uint256"
        },
        {
          "internalType": "address",
          "name": "destination",
          "type": "address"
        },
        {
          "internalType": "uint256",
          "name": "PredictedPrice",
          "type": "uint256"
        }
      ],
      "name": "FillGameMember",
      "outputs": [
        {
          "internalType": "uint256",
          "name": "",
          "type": "uint256"
        }
      ],
      "stateMutability": "nonpayable",
      "type": "function"
    },
    {
      "inputs": [],
      "name": "LPrice",
      "outputs": [
        {
          "internalType": "uint256",
          "name": "",
          "type": "uint256"
        }
      ],
      "stateMutability": "view",
      "type": "function"
    },
    {
      "inputs": [
        {
          "internalType": "int256",
          "name": "",
          "type": "int256"
        }
      ],
      "name": "LatestPrice",
      "outputs": [
        {
          "internalType": "int256",
          "name": "",
          "type": "int256"
        }
      ],
      "stateMutability": "view",
      "type": "function"
    },
    {
      "inputs": [
        {
          "internalType": "uint256",
          "name": "_price",
          "type": "uint256"
        }
      ],
      "name": "StoredDatafeed",
      "outputs": [],
      "stateMutability": "nonpayable",
      "type": "function"
    },
    {
      "inputs": [
        {
          "internalType": "uint256",
          "name": "clubId",
          "type": "uint256"
        },
        {
          "internalType": "uint256",
          "name": "proposalId",
          "type": "uint256"
        },
        {
          "internalType": "uint256",
          "name": "newfeed",
          "type": "uint256"
        },
        {
          "internalType": "uint256",
          "name": "random",
          "type": "uint256"
        }
      ],
      "name": "UpdateRandom",
      "outputs": [],
      "stateMutability": "nonpayable",
      "type": "function"
    },
    {
      "inputs": [
        {
          "internalType": "uint256",
          "name": "clubId",
          "type": "uint256"
        },
        {
          "internalType": "address",
          "name": "_address",
          "type": "address"
        }
      ],
      "name": "checkContri",
      "outputs": [
        {
          "internalType": "bool",
          "name": "",
          "type": "bool"
        }
      ],
      "stateMutability": "view",
      "type": "function"
    },
    {
      "inputs": [
        {
          "internalType": "address",
          "name": "_address",
          "type": "address"
        }
      ],
      "name": "checkContri",
      "outputs": [
        {
          "internalType": "bool",
          "name": "",
          "type": "bool"
        }
      ],
      "stateMutability": "view",
      "type": "function"
    },
    {
      "inputs": [
        {
          "internalType": "uint256",
          "name": "clubId",
          "type": "uint256"
        },
        {
          "internalType": "uint256",
          "name": "proposalId",
          "type": "uint256"
        }
      ],
      "name": "claimprize",
      "outputs": [],
      "stateMutability": "payable",
      "type": "function"
    },
    {
      "inputs": [
        {
          "internalType": "uint256",
          "name": "clubId",
          "type": "uint256"
        },
        {
          "internalType": "uint256",
          "name": "proposalId",
          "type": "uint256"
        }
      ],
      "name": "closeProposal",
      "outputs": [],
      "stateMutability": "nonpayable",
      "type": "function"
    },
    {
      "inputs": [
        {
          "internalType": "address",
          "name": "",
          "type": "address"
        }
      ],
      "name": "contri",
      "outputs": [
        {
          "internalType": "bool",
          "name": "",
          "type": "bool"
        }
      ],
      "stateMutability": "view",
      "type": "function"
    },
    {
      "inputs": [
        {
          "internalType": "uint256",
          "name": "clubId",
          "type": "uint256"
        }
      ],
      "name": "contributeToClub",
      "outputs": [],
      "stateMutability": "payable",
      "type": "function"
    },
    {
      "inputs": [
        {
          "internalType": "string",
          "name": "name",
          "type": "string"
        },
        {
          "internalType": "string",
          "name": "Cid",
          "type": "string"
        }
      ],
      "name": "createClub",
      "outputs": [
        {
          "internalType": "uint256",
          "name": "",
          "type": "uint256"
        }
      ],
      "stateMutability": "nonpayable",
      "type": "function"
    },
    {
      "inputs": [
        {
          "internalType": "uint256",
          "name": "clubId",
          "type": "uint256"
        },
        {
          "internalType": "uint256",
          "name": "amount",
          "type": "uint256"
        },
        {
          "internalType": "address",
          "name": "destination",
          "type": "address"
        },
        {
          "internalType": "string",
          "name": "description",
          "type": "string"
        },
        {
          "internalType": "string",
          "name": "Cid",
          "type": "string"
        }
      ],
      "name": "createProposal",
      "outputs": [],
      "stateMutability": "nonpayable",
      "type": "function"
    },
    {
      "inputs": [
        {
          "internalType": "uint256",
          "name": "clubId",
          "type": "uint256"
        },
        {
          "internalType": "uint256",
          "name": "proposalId",
          "type": "uint256"
        }
      ],
      "name": "executeProposal",
      "outputs": [],
      "stateMutability": "payable",
      "type": "function"
    },
    {
      "inputs": [
        {
          "internalType": "address",
          "name": "userAddress",
          "type": "address"
        },
        {
          "internalType": "uint256",
          "name": "clubId",
          "type": "uint256"
        }
      ],
      "name": "getBalanceByClub",
      "outputs": [
        {
          "internalType": "uint256",
          "name": "",
          "type": "uint256"
        }
      ],
      "stateMutability": "view",
      "type": "function"
    },
    {
      "inputs": [
        {
          "internalType": "uint256",
          "name": "clubId",
          "type": "uint256"
        },
        {
          "internalType": "uint256",
          "name": "proposalId",
          "type": "uint256"
        },
        {
          "internalType": "string",
          "name": "_Piece",
          "type": "string"
        },
        {
          "internalType": "string",
          "name": "_carsize",
          "type": "string"
        }
      ],
      "name": "getCarpiece",
      "outputs": [],
      "stateMutability": "nonpayable",
      "type": "function"
    },
    {
      "inputs": [],
      "name": "getChainlinkDataFeedLatestAnswer",
      "outputs": [
        {
          "internalType": "int256",
          "name": "",
          "type": "int256"
        }
      ],
      "stateMutability": "view",
      "type": "function"
    },
    {
      "inputs": [
        {
          "internalType": "uint256",
          "name": "clubId",
          "type": "uint256"
        }
      ],
      "name": "getClubById",
      "outputs": [
        {
          "components": [
            {
              "internalType": "uint256",
              "name": "clubId",
              "type": "uint256"
            },
            {
              "internalType": "string",
              "name": "name",
              "type": "string"
            },
            {
              "internalType": "uint256",
              "name": "memberCount",
              "type": "uint256"
            },
            {
              "internalType": "uint256",
              "name": "proposalCount",
              "type": "uint256"
            },
            {
              "internalType": "uint256",
              "name": "pool",
              "type": "uint256"
            },
            {
              "internalType": "uint256",
              "name": "clubcreatedAt",
              "type": "uint256"
            },
            {
              "internalType": "uint256",
              "name": "clubexpireAt",
              "type": "uint256"
            },
            {
              "internalType": "string",
              "name": "CID",
              "type": "string"
            },
            {
              "internalType": "string",
              "name": "posdiverification",
              "type": "string"
            },
            {
              "internalType": "uint256",
              "name": "DealId",
              "type": "uint256"
            }
          ],
          "internalType": "struct InvestmentClub.ClubInfo",
          "name": "",
          "type": "tuple"
        }
      ],
      "stateMutability": "view",
      "type": "function"
    },
    {
      "inputs": [
        {
          "internalType": "uint256",
          "name": "clubId",
          "type": "uint256"
        }
      ],
      "name": "getGameMemberByClub",
      "outputs": [
        {
          "components": [
            {
              "internalType": "uint256",
              "name": "clubId",
              "type": "uint256"
            },
            {
              "internalType": "address",
              "name": "creator",
              "type": "address"
            },
            {
              "internalType": "address",
              "name": "destination",
              "type": "address"
            },
            {
              "internalType": "uint256",
              "name": "proposedAt",
              "type": "uint256"
            },
            {
              "internalType": "uint256",
              "name": "proposalExpireAt",
              "type": "uint256"
            },
            {
              "internalType": "string",
              "name": "status",
              "type": "string"
            },
            {
              "internalType": "uint256",
              "name": "priceFeed",
              "type": "uint256"
            },
            {
              "internalType": "uint256",
              "name": "predictedPrice",
              "type": "uint256"
            },
            {
              "internalType": "uint256",
              "name": "FinalPrice",
              "type": "uint256"
            },
            {
              "internalType": "uint256",
              "name": "RandomNumber",
              "type": "uint256"
            }
          ],
          "internalType": "struct InvestmentClub.GameMemberInfo[]",
          "name": "",
          "type": "tuple[]"
        }
      ],
      "stateMutability": "view",
      "type": "function"
    },
    {
      "inputs": [
        {
          "internalType": "uint256",
          "name": "clubId",
          "type": "uint256"
        },
        {
          "internalType": "uint256",
          "name": "proposalId",
          "type": "uint256"
        }
      ],
      "name": "getGamememberById",
      "outputs": [
        {
          "components": [
            {
              "internalType": "uint256",
              "name": "clubId",
              "type": "uint256"
            },
            {
              "internalType": "address",
              "name": "creator",
              "type": "address"
            },
            {
              "internalType": "address",
              "name": "destination",
              "type": "address"
            },
            {
              "internalType": "uint256",
              "name": "proposedAt",
              "type": "uint256"
            },
            {
              "internalType": "uint256",
              "name": "proposalExpireAt",
              "type": "uint256"
            },
            {
              "internalType": "string",
              "name": "status",
              "type": "string"
            },
            {
              "internalType": "uint256",
              "name": "priceFeed",
              "type": "uint256"
            },
            {
              "internalType": "uint256",
              "name": "predictedPrice",
              "type": "uint256"
            },
            {
              "internalType": "uint256",
              "name": "FinalPrice",
              "type": "uint256"
            },
            {
              "internalType": "uint256",
              "name": "RandomNumber",
              "type": "uint256"
            }
          ],
          "internalType": "struct InvestmentClub.GameMemberInfo",
          "name": "",
          "type": "tuple"
        }
      ],
      "stateMutability": "view",
      "type": "function"
    },
    {
      "inputs": [],
      "name": "getMyClubs",
      "outputs": [
        {
          "components": [
            {
              "internalType": "uint256",
              "name": "clubId",
              "type": "uint256"
            },
            {
              "internalType": "string",
              "name": "name",
              "type": "string"
            },
            {
              "internalType": "uint256",
              "name": "memberCount",
              "type": "uint256"
            },
            {
              "internalType": "uint256",
              "name": "proposalCount",
              "type": "uint256"
            },
            {
              "internalType": "uint256",
              "name": "pool",
              "type": "uint256"
            },
            {
              "internalType": "uint256",
              "name": "clubcreatedAt",
              "type": "uint256"
            },
            {
              "internalType": "uint256",
              "name": "clubexpireAt",
              "type": "uint256"
            },
            {
              "internalType": "string",
              "name": "CID",
              "type": "string"
            },
            {
              "internalType": "string",
              "name": "posdiverification",
              "type": "string"
            },
            {
              "internalType": "uint256",
              "name": "DealId",
              "type": "uint256"
            }
          ],
          "internalType": "struct InvestmentClub.ClubInfo[]",
          "name": "",
          "type": "tuple[]"
        }
      ],
      "stateMutability": "view",
      "type": "function"
    },
    {
      "inputs": [
        {
          "internalType": "uint256",
          "name": "clubId",
          "type": "uint256"
        }
      ],
      "name": "getProposalsByClub",
      "outputs": [
        {
          "components": [
            {
              "internalType": "uint256",
              "name": "id",
              "type": "uint256"
            },
            {
              "internalType": "address",
              "name": "creator",
              "type": "address"
            },
            {
              "internalType": "uint256",
              "name": "amount",
              "type": "uint256"
            },
            {
              "internalType": "address",
              "name": "destination",
              "type": "address"
            },
            {
              "internalType": "string",
              "name": "status",
              "type": "string"
            },
            {
              "internalType": "string",
              "name": "description",
              "type": "string"
            },
            {
              "internalType": "uint256",
              "name": "votesFor",
              "type": "uint256"
            },
            {
              "internalType": "uint256",
              "name": "votesAgainst",
              "type": "uint256"
            },
            {
              "internalType": "uint256",
              "name": "proposedAt",
              "type": "uint256"
            },
            {
              "internalType": "uint256",
              "name": "proposalExpireAt",
              "type": "uint256"
            },
            {
              "internalType": "string",
              "name": "Cid",
              "type": "string"
            },
            {
              "internalType": "string",
              "name": "PieceCid",
              "type": "string"
            },
            {
              "internalType": "string",
              "name": "carsize",
              "type": "string"
            },
            {
              "internalType": "string",
              "name": "posdiverification",
              "type": "string"
            },
            {
              "internalType": "string",
              "name": "storageProvider",
              "type": "string"
            },
            {
              "internalType": "uint256",
              "name": "DealId",
              "type": "uint256"
            }
          ],
          "internalType": "struct InvestmentClub.ProposalInfo[]",
          "name": "",
          "type": "tuple[]"
        }
      ],
      "stateMutability": "view",
      "type": "function"
    },
    {
      "inputs": [
        {
          "internalType": "uint256",
          "name": "clubId",
          "type": "uint256"
        },
        {
          "internalType": "uint256",
          "name": "proposalId",
          "type": "uint256"
        },
        {
          "internalType": "uint256",
          "name": "_dealId",
          "type": "uint256"
        },
        {
          "internalType": "string",
          "name": "_storage",
          "type": "string"
        }
      ],
      "name": "getdelandstorgae",
      "outputs": [],
      "stateMutability": "nonpayable",
      "type": "function"
    },
    {
      "inputs": [
        {
          "internalType": "address",
          "name": "sender",
          "type": "address"
        },
        {
          "internalType": "uint256",
          "name": "proposalId",
          "type": "uint256"
        },
        {
          "internalType": "uint256",
          "name": "clubId",
          "type": "uint256"
        }
      ],
      "name": "hasVoted",
      "outputs": [
        {
          "internalType": "bool",
          "name": "",
          "type": "bool"
        }
      ],
      "stateMutability": "view",
      "type": "function"
    },
    {
      "inputs": [
        {
          "internalType": "uint256",
          "name": "clubId",
          "type": "uint256"
        }
      ],
      "name": "isClubFull",
      "outputs": [
        {
          "internalType": "bool",
          "name": "",
          "type": "bool"
        }
      ],
      "stateMutability": "view",
      "type": "function"
    },
    {
      "inputs": [
        {
          "internalType": "uint256",
          "name": "clubId",
          "type": "uint256"
        }
      ],
      "name": "isClubIdExist",
      "outputs": [
        {
          "internalType": "bool",
          "name": "",
          "type": "bool"
        }
      ],
      "stateMutability": "view",
      "type": "function"
    },
    {
      "inputs": [
        {
          "internalType": "uint256",
          "name": "proposalId",
          "type": "uint256"
        },
        {
          "internalType": "uint256",
          "name": "clubId",
          "type": "uint256"
        }
      ],
      "name": "isGamememberIdExist",
      "outputs": [
        {
          "internalType": "bool",
          "name": "",
          "type": "bool"
        }
      ],
      "stateMutability": "view",
      "type": "function"
    },
    {
      "inputs": [
        {
          "internalType": "address",
          "name": "memberAddress",
          "type": "address"
        },
        {
          "internalType": "uint256",
          "name": "clubId",
          "type": "uint256"
        }
      ],
      "name": "isMemberOfClub",
      "outputs": [
        {
          "internalType": "bool",
          "name": "",
          "type": "bool"
        }
      ],
      "stateMutability": "view",
      "type": "function"
    },
    {
      "inputs": [
        {
          "internalType": "uint256",
          "name": "proposalId",
          "type": "uint256"
        },
        {
          "internalType": "uint256",
          "name": "clubId",
          "type": "uint256"
        }
      ],
      "name": "isProposalIdExist",
      "outputs": [
        {
          "internalType": "bool",
          "name": "",
          "type": "bool"
        }
      ],
      "stateMutability": "view",
      "type": "function"
    },
    {
      "inputs": [
        {
          "internalType": "uint256",
          "name": "clubId",
          "type": "uint256"
        },
        {
          "internalType": "uint256",
          "name": "proposalId",
          "type": "uint256"
        }
      ],
      "name": "isVotingOn",
      "outputs": [
        {
          "internalType": "bool",
          "name": "",
          "type": "bool"
        }
      ],
      "stateMutability": "view",
      "type": "function"
    },
    {
      "inputs": [
        {
          "internalType": "uint256",
          "name": "clubId",
          "type": "uint256"
        },
        {
          "internalType": "uint256",
          "name": "proposalId",
          "type": "uint256"
        }
      ],
      "name": "isVotingOn1",
      "outputs": [
        {
          "internalType": "bool",
          "name": "",
          "type": "bool"
        }
      ],
      "stateMutability": "view",
      "type": "function"
    },
    {
      "inputs": [
        {
          "internalType": "uint256",
          "name": "clubId",
          "type": "uint256"
        }
      ],
      "name": "isclubopen",
      "outputs": [
        {
          "internalType": "bool",
          "name": "",
          "type": "bool"
        }
      ],
      "stateMutability": "view",
      "type": "function"
    },
    {
      "inputs": [
        {
          "internalType": "uint256",
          "name": "clubId",
          "type": "uint256"
        }
      ],
      "name": "joinClub",
      "outputs": [],
      "stateMutability": "nonpayable",
      "type": "function"
    },
    {
      "inputs": [
        {
          "internalType": "uint256",
          "name": "clubId",
          "type": "uint256"
        }
      ],
      "name": "leaveClub",
      "outputs": [],
      "stateMutability": "nonpayable",
      "type": "function"
    },
    {
      "inputs": [],
      "name": "listClubs",
      "outputs": [
        {
          "components": [
            {
              "internalType": "uint256",
              "name": "clubId",
              "type": "uint256"
            },
            {
              "internalType": "string",
              "name": "name",
              "type": "string"
            },
            {
              "internalType": "uint256",
              "name": "memberCount",
              "type": "uint256"
            },
            {
              "internalType": "uint256",
              "name": "proposalCount",
              "type": "uint256"
            },
            {
              "internalType": "uint256",
              "name": "pool",
              "type": "uint256"
            },
            {
              "internalType": "uint256",
              "name": "clubcreatedAt",
              "type": "uint256"
            },
            {
              "internalType": "uint256",
              "name": "clubexpireAt",
              "type": "uint256"
            },
            {
              "internalType": "string",
              "name": "CID",
              "type": "string"
            },
            {
              "internalType": "string",
              "name": "posdiverification",
              "type": "string"
            },
            {
              "internalType": "uint256",
              "name": "DealId",
              "type": "uint256"
            }
          ],
          "internalType": "struct InvestmentClub.ClubInfo[]",
          "name": "",
          "type": "tuple[]"
        }
      ],
      "stateMutability": "view",
      "type": "function"
    },
    {
      "inputs": [
        {
          "internalType": "uint256",
          "name": "clubId",
          "type": "uint256"
        },
        {
          "internalType": "uint256",
          "name": "proposalId",
          "type": "uint256"
        }
      ],
      "name": "proverifiydocs",
      "outputs": [],
      "stateMutability": "nonpayable",
      "type": "function"
    },
    {
      "inputs": [],
      "name": "show",
      "outputs": [
        {
          "internalType": "uint256",
          "name": "",
          "type": "uint256"
        }
      ],
      "stateMutability": "view",
      "type": "function"
    },
    {
      "inputs": [
        {
          "internalType": "uint256",
          "name": "clubId",
          "type": "uint256"
        }
      ],
      "name": "verifiydocs",
      "outputs": [],
      "stateMutability": "nonpayable",
      "type": "function"
    },
    {
      "inputs": [
        {
          "internalType": "uint256",
          "name": "clubId",
          "type": "uint256"
        },
        {
          "internalType": "uint256",
          "name": "proposalId",
          "type": "uint256"
        },
        {
          "internalType": "bool",
          "name": "vote",
          "type": "bool"
        }
      ],
      "name": "voteOnProposal",
      "outputs": [],
      "stateMutability": "nonpayable",
      "type": "function"
    }
  ],
  "bytecode": "0x608060405234801561001057600080fd5b5073ac3e04999aefe44d508cb3f9b972b0ecd07c1efb6000806101000a81548173ffffffffffffffffffffffffffffffffffffffff021916908373ffffffffffffffffffffffffffffffffffffffff16021790555060006004819055506000600581905550615c1080620000856000396000f3fe60806040526004361061023b5760003560e01c8063647e598b1161012e578063c2ba2756116100ab578063e7613ea81161006f578063e7613ea814610912578063e7ddd0de1461093b578063eec8e0db14610978578063f9f2bb3c146109b5578063fb0e2776146109f25761023b565b8063c2ba275614610807578063c3741fed14610844578063c467087814610881578063cc80f6f3146108be578063e1542742146108e95761023b565b80639d9087b9116100f25780639d9087b91461070e578063a4c2294314610737578063ab7ca34814610762578063b4723d441461079f578063bea4dfb5146107dc5761023b565b8063647e598b146106195780636764fd481461064257806382b7661b1461067f578063890e2456146106a857806389972a32146106e55761023b565b806334fa3d83116101bc5780634d7f75c3116101805780634d7f75c314610534578063549710be1461055d57806354a2e233146105885780635b2ade7c146105b15780635ff847fb146105ee5761023b565b806334fa3d831461042457806335a1930f146104615780633f7a6a821461049e57806347f83c8f146104db578063487598ca146104f75761023b565b80631155bdfd116102035780631155bdfd146103495780631ab76712146103865780632443c344146103a257806327449315146103df578063288509b4146104085761023b565b8063058694a91461024057806305f0ef7c1461027d5780630e46d214146102a65780630ee29404146102e35780631063fd1914610320575b600080fd5b34801561024c57600080fd5b5061026760048036038101906102629190613e46565b610a1d565b60405161027491906141a0565b60405180910390f35b34801561028957600080fd5b506102a4600480360381019061029f91906141c2565b611020565b005b3480156102b257600080fd5b506102cd60048036038101906102c89190614255565b611064565b6040516102da91906142cb565b60405180910390f35b3480156102ef57600080fd5b5061030a600480360381019061030591906142e6565b6112f6565b6040516103179190614354565b60405180910390f35b34801561032c57600080fd5b50610347600480360381019061034291906144a4565b611376565b005b34801561035557600080fd5b50610370600480360381019061036b9190614527565b6113ca565b60405161037d9190614354565b60405180910390f35b6103a0600480360381019061039b9190614527565b611406565b005b3480156103ae57600080fd5b506103c960048036038101906103c49190614567565b61171a565b6040516103d69190614354565b60405180910390f35b3480156103eb57600080fd5b5061040660048036038101906104019190613e46565b611785565b005b610422600480360381019061041d9190613e46565b61178f565b005b34801561043057600080fd5b5061044b600480360381019061044691906145a7565b611a7f565b6040516104589190614354565b60405180910390f35b34801561046d57600080fd5b50610488600480360381019061048391906145e7565b611b2f565b60405161049591906142cb565b60405180910390f35b3480156104aa57600080fd5b506104c560048036038101906104c0919061465f565b611cff565b6040516104d29190614354565b60405180910390f35b6104f560048036038101906104f09190614527565b611d1f565b005b34801561050357600080fd5b5061051e60048036038101906105199190614527565b611e86565b60405161052b9190614766565b60405180910390f35b34801561054057600080fd5b5061055b60048036038101906105569190613e46565b6120bb565b005b34801561056957600080fd5b506105726121f6565b60405161057f9190614932565b60405180910390f35b34801561059457600080fd5b506105af60048036038101906105aa9190614980565b6124dd565b005b3480156105bd57600080fd5b506105d860048036038101906105d39190613e46565b61275c565b6040516105e59190614b6f565b60405180910390f35b3480156105fa57600080fd5b506106036129f3565b6040516106109190614932565b60405180910390f35b34801561062557600080fd5b50610640600480360381019061063b9190614b91565b612cbf565b005b34801561064e57600080fd5b5061066960048036038101906106649190613e46565b612d23565b6040516106769190614354565b60405180910390f35b34801561068b57600080fd5b506106a660048036038101906106a19190613e46565b612d46565b005b3480156106b457600080fd5b506106cf60048036038101906106ca91906145a7565b612df7565b6040516106dc91906142cb565b60405180910390f35b3480156106f157600080fd5b5061070c60048036038101906107079190614c30565b612e63565b005b34801561071a57600080fd5b5061073560048036038101906107309190614527565b61322e565b005b34801561074357600080fd5b5061074c6132ac565b60405161075991906142cb565b60405180910390f35b34801561076e57600080fd5b5061078960048036038101906107849190614527565b6132b2565b6040516107969190614354565b60405180910390f35b3480156107ab57600080fd5b506107c660048036038101906107c1919061465f565b6132ee565b6040516107d39190614354565b60405180910390f35b3480156107e857600080fd5b506107f1613344565b6040516107fe9190614cfc565b60405180910390f35b34801561081357600080fd5b5061082e60048036038101906108299190614527565b6133e3565b60405161083b9190614354565b60405180910390f35b34801561085057600080fd5b5061086b60048036038101906108669190613e46565b61341b565b6040516108789190614dff565b60405180910390f35b34801561088d57600080fd5b506108a860048036038101906108a39190613e46565b613696565b6040516108b59190614354565b60405180910390f35b3480156108ca57600080fd5b506108d36136b9565b6040516108e091906142cb565b60405180910390f35b3480156108f557600080fd5b50610910600480360381019061090b9190613e46565b6136c3565b005b34801561091e57600080fd5b5061093960048036038101906109349190614527565b61389b565b005b34801561094757600080fd5b50610962600480360381019061095d9190614e4d565b613ad3565b60405161096f9190614cfc565b60405180910390f35b34801561098457600080fd5b5061099f600480360381019061099a9190614527565b613aeb565b6040516109ac9190614354565b60405180910390f35b3480156109c157600080fd5b506109dc60048036038101906109d79190613e46565b613b23565b6040516109e99190614354565b60405180910390f35b3480156109fe57600080fd5b50610a07613b4a565b604051610a1491906142cb565b60405180910390f35b6060610a2882612d23565b610a67576040517f08c379a0000000000000000000000000000000000000000000000000000000008152600401610a5e90614ed7565b60405180910390fd5b60006002600084815260200190815260200160002090506000816009015467ffffffffffffffff811115610a9e57610a9d614379565b5b604051908082528060200260200182016040528015610ad757816020015b610ac4613bde565b815260200190600190039081610abc5790505b509050600080600190505b836009015481116110145760008460070160008381526020019081526020016000209050604051806102000160405280826000015481526020018260010160009054906101000a900473ffffffffffffffffffffffffffffffffffffffff1673ffffffffffffffffffffffffffffffffffffffff168152602001826002015481526020018260030160009054906101000a900473ffffffffffffffffffffffffffffffffffffffff1673ffffffffffffffffffffffffffffffffffffffff168152602001826004018054610bb590614f26565b80601f0160208091040260200160405190810160405280929190818152602001828054610be190614f26565b8015610c2e5780601f10610c0357610100808354040283529160200191610c2e565b820191906000526020600020905b815481529060010190602001808311610c1157829003601f168201915b50505050508152602001826005018054610c4790614f26565b80601f0160208091040260200160405190810160405280929190818152602001828054610c7390614f26565b8015610cc05780601f10610c9557610100808354040283529160200191610cc0565b820191906000526020600020905b815481529060010190602001808311610ca357829003601f168201915b505050505081526020018260060154815260200182600701548152602001826008015481526020018260090154815260200182600a018054610d0190614f26565b80601f0160208091040260200160405190810160405280929190818152602001828054610d2d90614f26565b8015610d7a5780601f10610d4f57610100808354040283529160200191610d7a565b820191906000526020600020905b815481529060010190602001808311610d5d57829003601f168201915b5050505050815260200182600b018054610d9390614f26565b80601f0160208091040260200160405190810160405280929190818152602001828054610dbf90614f26565b8015610e0c5780601f10610de157610100808354040283529160200191610e0c565b820191906000526020600020905b815481529060010190602001808311610def57829003601f168201915b5050505050815260200182600c018054610e2590614f26565b80601f0160208091040260200160405190810160405280929190818152602001828054610e5190614f26565b8015610e9e5780601f10610e7357610100808354040283529160200191610e9e565b820191906000526020600020905b815481529060010190602001808311610e8157829003601f168201915b5050505050815260200182600d018054610eb790614f26565b80601f0160208091040260200160405190810160405280929190818152602001828054610ee390614f26565b8015610f305780601f10610f0557610100808354040283529160200191610f30565b820191906000526020600020905b815481529060010190602001808311610f1357829003601f168201915b5050505050815260200182600e018054610f4990614f26565b80601f0160208091040260200160405190810160405280929190818152602001828054610f7590614f26565b8015610fc25780601f10610f9757610100808354040283529160200191610fc2565b820191906000526020600020905b815481529060010190602001808311610fa557829003601f168201915b5050505050815260200182600f0154815250848481518110610fe757610fe6614f58565b5b60200260200101819052508280610ffd90614fb6565b93505050808061100c90614fb6565b915050610ae2565b50819350505050919050565b600060026000868152602001908152602001600020600801600085815260200190815260200160002090508281600801819055508181600901819055505050505050565b600061106f85612d23565b6110ae576040517f08c379a00000000000000000000000000000000000000000000000000000000081526004016110a59061504b565b60405180910390fd5b60006002600087815260200190815260200160002090506110cf3387611a7f565b61110e576040517f08c379a0000000000000000000000000000000000000000000000000000000008152600401611105906150b7565b60405180910390fd5b60006001826009015461112191906150d7565b905060006002600089815260200190815260200160002060080160008381526020019081526020016000209050818160000181905550338160010160006101000a81548173ffffffffffffffffffffffffffffffffffffffff021916908373ffffffffffffffffffffffffffffffffffffffff160217905550858160020160006101000a81548173ffffffffffffffffffffffffffffffffffffffff021916908373ffffffffffffffffffffffffffffffffffffffff1602179055504281600301819055506101686008546111f691906150d7565b81600401819055506040518060400160405280600781526020017f50656e64696e670000000000000000000000000000000000000000000000000081525081600501908051906020019061124b929190613c87565b5086816006018190555084816007018190555060008160080181905550600081600901819055507f228e740011c0eca4806871633863164d54cfe348716c44ca34f3cbac63e7bf6681600001548260010160009054906101000a900473ffffffffffffffffffffffffffffffffffffffff16836006015484600701546040516112d7949392919061513c565b60405180910390a1818360090181905550879350505050949350505050565b600060026000838152602001908152602001600020600701600084815260200190815260200160002060100160008573ffffffffffffffffffffffffffffffffffffffff1673ffffffffffffffffffffffffffffffffffffffff16815260200190815260200160002060009054906101000a900460ff1690509392505050565b600060026000868152602001908152602001600020600701600085815260200190815260200160002090508281600f01819055508181600e0190805190602001906113c2929190613c87565b505050505050565b60008060026000858152602001908152602001600020600701600084815260200190815260200160002090504281600901541191505092915050565b60006002600084815260200190815260200160002090506000816007016000848152602001908152602001600020905061143f84612d23565b61147e576040517f08c379a00000000000000000000000000000000000000000000000000000000081526004016114759061504b565b60405180910390fd5b6114883385611a7f565b6114c7576040517f08c379a00000000000000000000000000000000000000000000000000000000081526004016114be906150b7565b60405180910390fd5b6114d18385613aeb565b611510576040517f08c379a0000000000000000000000000000000000000000000000000000000008152600401611507906151cd565b60405180910390fd5b61151a8484613b50565b611559576040517f08c379a00000000000000000000000000000000000000000000000000000000081526004016115509061525f565b60405180910390fd5b8060020154826004015410156115a4576040517f08c379a000000000000000000000000000000000000000000000000000000000815260040161159b906152f1565b60405180910390fd5b80600701548160060154116115ee576040517f08c379a00000000000000000000000000000000000000000000000000000000081526004016115e590615383565b60405180910390fd5b6115f884846132b2565b15611638576040517f08c379a000000000000000000000000000000000000000000000000000000000815260040161162f90615415565b60405180910390fd5b6040518060400160405280600881526020017f4578656375746564000000000000000000000000000000000000000000000000815250816004019080519060200190611685929190613c87565b50806002015482600401600082825461169e9190615435565b925050819055508060030160009054906101000a900473ffffffffffffffffffffffffffffffffffffffff1673ffffffffffffffffffffffffffffffffffffffff166108fc82600201549081150290604051600060405180830381858888f19350505050158015611713573d6000803e3d6000fd5b5050505050565b600060026000848152602001908152602001600020600d0160008373ffffffffffffffffffffffffffffffffffffffff1673ffffffffffffffffffffffffffffffffffffffff16815260200190815260200160002060009054906101000a900460ff16905092915050565b8060018190555050565b61179881612d23565b6117d7576040517f08c379a00000000000000000000000000000000000000000000000000000000081526004016117ce9061504b565b60405180910390fd5b60006002600083815260200190815260200160002090506117f83383611a7f565b611837576040517f08c379a000000000000000000000000000000000000000000000000000000000815260040161182e906150b7565b60405180910390fd5b6000341161187a576040517f08c379a0000000000000000000000000000000000000000000000000000000008152600401611871906154db565b60405180910390fd5b61188382613b23565b6118c2576040517f08c379a00000000000000000000000000000000000000000000000000000000081526004016118b990615547565b60405180910390fd5b60008160020160003373ffffffffffffffffffffffffffffffffffffffff1673ffffffffffffffffffffffffffffffffffffffff16815260200190815260200160002090503481600101600082825461191b91906150d7565b92505081905550600060405180604001604052803373ffffffffffffffffffffffffffffffffffffffff16815260200160008152509050600183600d0160003373ffffffffffffffffffffffffffffffffffffffff1673ffffffffffffffffffffffffffffffffffffffff16815260200190815260200160002060006101000a81548160ff021916908315150217905550808360020160003373ffffffffffffffffffffffffffffffffffffffff1673ffffffffffffffffffffffffffffffffffffffff16815260200190815260200160002060008201518160000160006101000a81548173ffffffffffffffffffffffffffffffffffffffff021916908373ffffffffffffffffffffffffffffffffffffffff160217905550602082015181600101559050506001836003016000828254611a5791906150d7565b9250508190555034836004016000828254611a7291906150d7565b9250508190555050505050565b60008073ffffffffffffffffffffffffffffffffffffffff166002600084815260200190815260200160002060020160008573ffffffffffffffffffffffffffffffffffffffff1673ffffffffffffffffffffffffffffffffffffffff16815260200190815260200160002060000160009054906101000a900473ffffffffffffffffffffffffffffffffffffffff1673ffffffffffffffffffffffffffffffffffffffff161415905092915050565b6000806001600454611b4191906150d7565b9050600060026000838152602001908152602001600020905081816000018190555084816001019080519060200190611b7b929190613c87565b506000816004018190555060008160090181905550600181600301819055504281600501819055504260088190555060b442611bb791906150d7565b81600601819055508381600a019080519060200190611bd7929190613c87565b506040518060400160405280600781526020017f50656e64696e670000000000000000000000000000000000000000000000000081525081600b019080519060200190611c25929190613c87565b50600060405180604001604052803373ffffffffffffffffffffffffffffffffffffffff16815260200160008152509050808260020160003373ffffffffffffffffffffffffffffffffffffffff1673ffffffffffffffffffffffffffffffffffffffff16815260200190815260200160002060008201518160000160006101000a81548173ffffffffffffffffffffffffffffffffffffffff021916908373ffffffffffffffffffffffffffffffffffffffff160217905550602082015181600101559050508260048190555082935050505092915050565b60036020528060005260406000206000915054906101000a900460ff1681565b600060026000848152602001908152602001600020905060006002600085815260200190815260200160002060080160008481526020019081526020016000209050611d6a84612d23565b611da9576040517f08c379a0000000000000000000000000000000000000000000000000000000008152600401611da09061504b565b60405180910390fd5b611db33385611a7f565b611df2576040517f08c379a0000000000000000000000000000000000000000000000000000000008152600401611de9906150b7565b60405180910390fd5b8160040154826004016000828254611e0a9190615435565b925050819055508060020160009054906101000a900473ffffffffffffffffffffffffffffffffffffffff1673ffffffffffffffffffffffffffffffffffffffff166108fc83600401549081150290604051600060405180830381858888f19350505050158015611e7f573d6000803e3d6000fd5b5050505050565b611e8e613d0d565b611e9783612d23565b611ed6576040517f08c379a0000000000000000000000000000000000000000000000000000000008152600401611ecd9061504b565b60405180910390fd5b611ee082846133e3565b611f1f576040517f08c379a0000000000000000000000000000000000000000000000000000000008152600401611f16906151cd565b60405180910390fd5b600060026000858152602001908152602001600020600801600084815260200190815260200160002090506000604051806101400160405280836000015481526020018360010160009054906101000a900473ffffffffffffffffffffffffffffffffffffffff1673ffffffffffffffffffffffffffffffffffffffff1681526020018360020160009054906101000a900473ffffffffffffffffffffffffffffffffffffffff1673ffffffffffffffffffffffffffffffffffffffff168152602001836003015481526020018360040154815260200183600501805461200590614f26565b80601f016020809104026020016040519081016040528092919081815260200182805461203190614f26565b801561207e5780601f106120535761010080835404028352916020019161207e565b820191906000526020600020905b81548152906001019060200180831161206157829003601f168201915b5050505050815260200183600601548152602001836007015481526020018360080154815260200183600901548152509050809250505092915050565b6120c481612d23565b612103576040517f08c379a00000000000000000000000000000000000000000000000000000000081526004016120fa9061504b565b60405180910390fd5b60006002600083815260200190815260200160002090506121243383611a7f565b612163576040517f08c379a000000000000000000000000000000000000000000000000000000000815260040161215a906150b7565b60405180910390fd5b60018160030160008282546121789190615435565b925050819055508060020160003373ffffffffffffffffffffffffffffffffffffffff1673ffffffffffffffffffffffffffffffffffffffff168152602001908152602001600020600080820160006101000a81549073ffffffffffffffffffffffffffffffffffffffff0219169055600182016000905550505050565b6060600060045467ffffffffffffffff81111561221657612215614379565b5b60405190808252806020026020018201604052801561224f57816020015b61223c613d8c565b8152602001906001900390816122345790505b509050600080600190505b60045481116124d4576000600260008381526020019081526020016000209050612288338260000154611a7f565b156124c057604051806101400160405280826000015481526020018260010180546122b290614f26565b80601f01602080910402602001604051908101604052809291908181526020018280546122de90614f26565b801561232b5780601f106123005761010080835404028352916020019161232b565b820191906000526020600020905b81548152906001019060200180831161230e57829003601f168201915b50505050508152602001826003015481526020018260090154815260200182600401548152602001826005015481526020018260060154815260200182600a01805461237690614f26565b80601f01602080910402602001604051908101604052809291908181526020018280546123a290614f26565b80156123ef5780601f106123c4576101008083540402835291602001916123ef565b820191906000526020600020905b8154815290600101906020018083116123d257829003601f168201915b5050505050815260200182600b01805461240890614f26565b80601f016020809104026020016040519081016040528092919081815260200182805461243490614f26565b80156124815780601f1061245657610100808354040283529160200191612481565b820191906000526020600020905b81548152906001019060200180831161246457829003601f168201915b5050505050815260200182600c01548152508484815181106124a6576124a5614f58565b5b602002602001018190525082806124bc90614fb6565b9350505b5080806124cc90614fb6565b91505061225a565b50819250505090565b6124e683612d23565b612525576040517f08c379a000000000000000000000000000000000000000000000000000000000815260040161251c9061504b565b60405180910390fd5b61252f83836132b2565b61256e576040517f08c379a0000000000000000000000000000000000000000000000000000000008152600401612565906155b3565b60405180910390fd5b600060026000858152602001908152602001600020905061258f3385611a7f565b6125ce576040517f08c379a00000000000000000000000000000000000000000000000000000000081526004016125c5906150b7565b60405180910390fd5b6125d88385613aeb565b612617576040517f08c379a000000000000000000000000000000000000000000000000000000000815260040161260e906151cd565b60405180910390fd5b6000816007016000858152602001908152602001600020905061263b3385876112f6565b1561267b576040517f08c379a000000000000000000000000000000000000000000000000000000000815260040161267290615645565b60405180910390fd5b6040518060400160405280600781526020017f50656e64696e670000000000000000000000000000000000000000000000000081525080519060200120816004016040516126c99190615704565b604051809103902014612711576040517f08c379a00000000000000000000000000000000000000000000000000000000081526004016127089061578d565b60405180910390fd5b821561273857600181600601600082825461272c91906150d7565b92505081905550612755565b600181600701600082825461274d91906150d7565b925050819055505b5050505050565b606061276782612d23565b6127a6576040517f08c379a000000000000000000000000000000000000000000000000000000000815260040161279d90614ed7565b60405180910390fd5b60006002600084815260200190815260200160002090506000816009015467ffffffffffffffff8111156127dd576127dc614379565b5b60405190808252806020026020018201604052801561281657816020015b612803613d0d565b8152602001906001900390816127fb5790505b509050600080600190505b836009015481116129e75760008460080160008381526020019081526020016000209050604051806101400160405280826000015481526020018260010160009054906101000a900473ffffffffffffffffffffffffffffffffffffffff1673ffffffffffffffffffffffffffffffffffffffff1681526020018260020160009054906101000a900473ffffffffffffffffffffffffffffffffffffffff1673ffffffffffffffffffffffffffffffffffffffff16815260200182600301548152602001826004015481526020018260050180546128fe90614f26565b80601f016020809104026020016040519081016040528092919081815260200182805461292a90614f26565b80156129775780601f1061294c57610100808354040283529160200191612977565b820191906000526020600020905b81548152906001019060200180831161295a57829003601f168201915b5050505050815260200182600601548152602001826007015481526020018260080154815260200182600901548152508484815181106129ba576129b9614f58565b5b602002602001018190525082806129d090614fb6565b9350505080806129df90614fb6565b915050612821565b50819350505050919050565b6060600060045467ffffffffffffffff811115612a1357612a12614379565b5b604051908082528060200260200182016040528015612a4c57816020015b612a39613d8c565b815260200190600190039081612a315790505b50905060005b600454811015612cb757600060026000600184612a6f91906150d7565b8152602001908152602001600020905060405180610140016040528082600001548152602001826001018054612aa490614f26565b80601f0160208091040260200160405190810160405280929190818152602001828054612ad090614f26565b8015612b1d5780601f10612af257610100808354040283529160200191612b1d565b820191906000526020600020905b815481529060010190602001808311612b0057829003601f168201915b50505050508152602001826003015481526020018260050154815260200182600601548152602001826009015481526020018260040154815260200182600a018054612b6890614f26565b80601f0160208091040260200160405190810160405280929190818152602001828054612b9490614f26565b8015612be15780601f10612bb657610100808354040283529160200191612be1565b820191906000526020600020905b815481529060010190602001808311612bc457829003601f168201915b5050505050815260200182600b018054612bfa90614f26565b80601f0160208091040260200160405190810160405280929190818152602001828054612c2690614f26565b8015612c735780601f10612c4857610100808354040283529160200191612c73565b820191906000526020600020905b815481529060010190602001808311612c5657829003601f168201915b5050505050815260200182600c0154815250838381518110612c9857612c97614f58565b5b6020026020010181905250508080612caf90614fb6565b915050612a52565b508091505090565b600060026000868152602001908152602001600020600701600085815260200190815260200160002090508281600b019080519060200190612d02929190613c87565b508181600c019080519060200190612d1b929190613c87565b505050505050565b600080600260008481526020019081526020016000206000015414159050919050565b612d4f81612d23565b612d8e576040517f08c379a0000000000000000000000000000000000000000000000000000000008152600401612d85906157f9565b60405180910390fd5b60006002600083815260200190815260200160002090506040518060400160405280600881526020017f566572696669656400000000000000000000000000000000000000000000000081525081600b019080519060200190612df2929190613c87565b505050565b60008060026000848152602001908152602001600020905060008160020160008673ffffffffffffffffffffffffffffffffffffffff1673ffffffffffffffffffffffffffffffffffffffff168152602001908152602001600020905080600101549250505092915050565b612e6c85612d23565b612eab576040517f08c379a0000000000000000000000000000000000000000000000000000000008152600401612ea29061504b565b60405180910390fd5b6000600260008781526020019081526020016000209050612ecc3387611a7f565b612f0b576040517f08c379a0000000000000000000000000000000000000000000000000000000008152600401612f02906150b7565b60405180910390fd5b60008511612f4e576040517f08c379a0000000000000000000000000000000000000000000000000000000008152600401612f459061588b565b60405180910390fd5b600060018260090154612f6191906150d7565b905060006002600089815260200190815260200160002060070160008381526020019081526020016000209050818160000181905550338160010160006101000a81548173ffffffffffffffffffffffffffffffffffffffff021916908373ffffffffffffffffffffffffffffffffffffffff160217905550868160020181905550858160030160006101000a81548173ffffffffffffffffffffffffffffffffffffffff021916908373ffffffffffffffffffffffffffffffffffffffff1602179055506040518060400160405280600781526020017f50656e64696e6700000000000000000000000000000000000000000000000000815250816004019080519060200190613073929190613c87565b508481600501908051906020019061308c929190613c87565b50600081600601819055506000816007018190555042816008018190555061012c426130b891906150d7565b81600901819055508381600a0190805190602001906130d8929190613c87565b506040518060400160405280600a81526020017f494e2050726f636573730000000000000000000000000000000000000000000081525081600b019080519060200190613126929190613c87565b506040518060400160405280600a81526020017f494e2d50726f636573730000000000000000000000000000000000000000000081525081600c019080519060200190613174929190613c87565b50600081600f01819055506040518060400160405280600a81526020017f494e2d50726f636573730000000000000000000000000000000000000000000081525081600e0190805190602001906131cc929190613c87565b506040518060400160405280600b81526020017f556e2d566572696669656400000000000000000000000000000000000000000081525081600d01908051906020019061321a929190613c87565b508183600901819055505050505050505050565b600060026000848152602001908152602001600020600701600083815260200190815260200160002090506040518060400160405280600881526020017f566572696669656400000000000000000000000000000000000000000000000081525081600d0190805190602001906132a6929190613c87565b50505050565b60085481565b60008060026000858152602001908152602001600020600801600084815260200190815260200160002090504281600401541191505092915050565b6000600360008373ffffffffffffffffffffffffffffffffffffffff1673ffffffffffffffffffffffffffffffffffffffff16815260200190815260200160002060009054906101000a900460ff169050919050565b60008060008054906101000a900473ffffffffffffffffffffffffffffffffffffffff1673ffffffffffffffffffffffffffffffffffffffff1663feaf968c6040518163ffffffff1660e01b815260040160a060405180830381865afa1580156133b2573d6000803e3d6000fd5b505050506040513d601f19601f820116820180604052508101906133d69190615917565b5050509150508091505090565b600080600260008481526020019081526020016000206008016000858152602001908152602001600020600001541415905092915050565b613423613d8c565b61342c82612d23565b61346b576040517f08c379a00000000000000000000000000000000000000000000000000000000081526004016134629061504b565b60405180910390fd5b60006002600084815260200190815260200160002090506000604051806101400160405280836000015481526020018360010180546134a990614f26565b80601f01602080910402602001604051908101604052809291908181526020018280546134d590614f26565b80156135225780601f106134f757610100808354040283529160200191613522565b820191906000526020600020905b81548152906001019060200180831161350557829003601f168201915b50505050508152602001836003015481526020018360090154815260200183600401548152602001836005015481526020018360060154815260200183600a01805461356d90614f26565b80601f016020809104026020016040519081016040528092919081815260200182805461359990614f26565b80156135e65780601f106135bb576101008083540402835291602001916135e6565b820191906000526020600020905b8154815290600101906020018083116135c957829003601f168201915b5050505050815260200183600b0180546135ff90614f26565b80601f016020809104026020016040519081016040528092919081815260200182805461362b90614f26565b80156136785780601f1061364d57610100808354040283529160200191613678565b820191906000526020600020905b81548152906001019060200180831161365b57829003601f168201915b5050505050815260200183600c015481525090508092505050919050565b600060636002600084815260200190815260200160002060030154109050919050565b6000600154905090565b6136cc81612d23565b61370b576040517f08c379a0000000000000000000000000000000000000000000000000000000008152600401613702906157f9565b60405180910390fd5b600060026000838152602001908152602001600020905061372b82613696565b61376a576040517f08c379a000000000000000000000000000000000000000000000000000000000815260040161376190615a04565b60405180910390fd5b6137743383611a7f565b156137b4576040517f08c379a00000000000000000000000000000000000000000000000000000000081526004016137ab90615a96565b60405180910390fd5b600060405180604001604052803373ffffffffffffffffffffffffffffffffffffffff16815260200160008152509050808260020160003373ffffffffffffffffffffffffffffffffffffffff1673ffffffffffffffffffffffffffffffffffffffff16815260200190815260200160002060008201518160000160006101000a81548173ffffffffffffffffffffffffffffffffffffffff021916908373ffffffffffffffffffffffffffffffffffffffff16021790555060208201518160010155905050600182600301600082825461388f91906150d7565b92505081905550505050565b6138a482612d23565b6138e3576040517f08c379a00000000000000000000000000000000000000000000000000000000081526004016138da9061504b565b60405180910390fd5b6138ed8183613aeb565b61392c576040517f08c379a0000000000000000000000000000000000000000000000000000000008152600401613923906151cd565b60405180910390fd5b61393682826132b2565b15613976576040517f08c379a000000000000000000000000000000000000000000000000000000000815260040161396d90615415565b60405180910390fd5b600060026000848152602001908152602001600020600701600083815260200190815260200160002090506040518060400160405280600781526020017f50656e64696e670000000000000000000000000000000000000000000000000081525080519060200120816004016040516139ef9190615704565b604051809103902014613a37576040517f08c379a0000000000000000000000000000000000000000000000000000000008152600401613a2e90615b28565b60405180910390fd5b613a418383613b50565b613a80576040517f08c379a0000000000000000000000000000000000000000000000000000000008152600401613a7790615bba565b60405180910390fd5b6040518060400160405280600681526020017f436c6f7365640000000000000000000000000000000000000000000000000000815250816004019080519060200190613acd929190613c87565b50505050565b60076020528060005260406000206000915090505481565b600080600260008481526020019081526020016000206007016000858152602001908152602001600020600001541415905092915050565b60008060026000848152602001908152602001600020905042816006015411915050919050565b60015481565b600080600260008581526020019081526020016000209050600081600701600085815260200190815260200160002090508060010160009054906101000a900473ffffffffffffffffffffffffffffffffffffffff1673ffffffffffffffffffffffffffffffffffffffff163373ffffffffffffffffffffffffffffffffffffffff16149250505092915050565b60405180610200016040528060008152602001600073ffffffffffffffffffffffffffffffffffffffff16815260200160008152602001600073ffffffffffffffffffffffffffffffffffffffff1681526020016060815260200160608152602001600081526020016000815260200160008152602001600081526020016060815260200160608152602001606081526020016060815260200160608152602001600081525090565b828054613c9390614f26565b90600052602060002090601f016020900481019282613cb55760008555613cfc565b82601f10613cce57805160ff1916838001178555613cfc565b82800160010185558215613cfc579182015b82811115613cfb578251825591602001919060010190613ce0565b5b509050613d099190613ddf565b5090565b60405180610140016040528060008152602001600073ffffffffffffffffffffffffffffffffffffffff168152602001600073ffffffffffffffffffffffffffffffffffffffff168152602001600081526020016000815260200160608152602001600081526020016000815260200160008152602001600081525090565b604051806101400160405280600081526020016060815260200160008152602001600081526020016000815260200160008152602001600081526020016060815260200160608152602001600081525090565b5b80821115613df8576000816000905550600101613de0565b5090565b6000604051905090565b600080fd5b600080fd5b6000819050919050565b613e2381613e10565b8114613e2e57600080fd5b50565b600081359050613e4081613e1a565b92915050565b600060208284031215613e5c57613e5b613e06565b5b6000613e6a84828501613e31565b91505092915050565b600081519050919050565b600082825260208201905092915050565b6000819050602082019050919050565b613ea881613e10565b82525050565b600073ffffffffffffffffffffffffffffffffffffffff82169050919050565b6000613ed982613eae565b9050919050565b613ee981613ece565b82525050565b600081519050919050565b600082825260208201905092915050565b60005b83811015613f29578082015181840152602081019050613f0e565b83811115613f38576000848401525b50505050565b6000601f19601f8301169050919050565b6000613f5a82613eef565b613f648185613efa565b9350613f74818560208601613f0b565b613f7d81613f3e565b840191505092915050565b600061020083016000830151613fa16000860182613e9f565b506020830151613fb46020860182613ee0565b506040830151613fc76040860182613e9f565b506060830151613fda6060860182613ee0565b5060808301518482036080860152613ff28282613f4f565b91505060a083015184820360a086015261400c8282613f4f565b91505060c083015161402160c0860182613e9f565b5060e083015161403460e0860182613e9f565b50610100830151614049610100860182613e9f565b5061012083015161405e610120860182613e9f565b506101408301518482036101408601526140788282613f4f565b9150506101608301518482036101608601526140948282613f4f565b9150506101808301518482036101808601526140b08282613f4f565b9150506101a08301518482036101a08601526140cc8282613f4f565b9150506101c08301518482036101c08601526140e88282613f4f565b9150506101e08301516140ff6101e0860182613e9f565b508091505092915050565b60006141168383613f88565b905092915050565b6000602082019050919050565b600061413682613e73565b6141408185613e7e565b93508360208202850161415285613e8f565b8060005b8581101561418e578484038952815161416f858261410a565b945061417a8361411e565b925060208a01995050600181019050614156565b50829750879550505050505092915050565b600060208201905081810360008301526141ba818461412b565b905092915050565b600080600080608085870312156141dc576141db613e06565b5b60006141ea87828801613e31565b94505060206141fb87828801613e31565b935050604061420c87828801613e31565b925050606061421d87828801613e31565b91505092959194509250565b61423281613ece565b811461423d57600080fd5b50565b60008135905061424f81614229565b92915050565b6000806000806080858703121561426f5761426e613e06565b5b600061427d87828801613e31565b945050602061428e87828801613e31565b935050604061429f87828801614240565b92505060606142b087828801613e31565b91505092959194509250565b6142c581613e10565b82525050565b60006020820190506142e060008301846142bc565b92915050565b6000806000606084860312156142ff576142fe613e06565b5b600061430d86828701614240565b935050602061431e86828701613e31565b925050604061432f86828701613e31565b9150509250925092565b60008115159050919050565b61434e81614339565b82525050565b60006020820190506143696000830184614345565b92915050565b600080fd5b600080fd5b7f4e487b7100000000000000000000000000000000000000000000000000000000600052604160045260246000fd5b6143b182613f3e565b810181811067ffffffffffffffff821117156143d0576143cf614379565b5b80604052505050565b60006143e3613dfc565b90506143ef82826143a8565b919050565b600067ffffffffffffffff82111561440f5761440e614379565b5b61441882613f3e565b9050602081019050919050565b82818337600083830152505050565b6000614447614442846143f4565b6143d9565b90508281526020810184848401111561446357614462614374565b5b61446e848285614425565b509392505050565b600082601f83011261448b5761448a61436f565b5b813561449b848260208601614434565b91505092915050565b600080600080608085870312156144be576144bd613e06565b5b60006144cc87828801613e31565b94505060206144dd87828801613e31565b93505060406144ee87828801613e31565b925050606085013567ffffffffffffffff81111561450f5761450e613e0b565b5b61451b87828801614476565b91505092959194509250565b6000806040838503121561453e5761453d613e06565b5b600061454c85828601613e31565b925050602061455d85828601613e31565b9150509250929050565b6000806040838503121561457e5761457d613e06565b5b600061458c85828601613e31565b925050602061459d85828601614240565b9150509250929050565b600080604083850312156145be576145bd613e06565b5b60006145cc85828601614240565b92505060206145dd85828601613e31565b9150509250929050565b600080604083850312156145fe576145fd613e06565b5b600083013567ffffffffffffffff81111561461c5761461b613e0b565b5b61462885828601614476565b925050602083013567ffffffffffffffff81111561464957614648613e0b565b5b61465585828601614476565b9150509250929050565b60006020828403121561467557614674613e06565b5b600061468384828501614240565b91505092915050565b6000610140830160008301516146a56000860182613e9f565b5060208301516146b86020860182613ee0565b5060408301516146cb6040860182613ee0565b5060608301516146de6060860182613e9f565b5060808301516146f16080860182613e9f565b5060a083015184820360a08601526147098282613f4f565b91505060c083015161471e60c0860182613e9f565b5060e083015161473160e0860182613e9f565b50610100830151614746610100860182613e9f565b5061012083015161475b610120860182613e9f565b508091505092915050565b60006020820190508181036000830152614780818461468c565b905092915050565b600081519050919050565b600082825260208201905092915050565b6000819050602082019050919050565b6000610140830160008301516147cd6000860182613e9f565b50602083015184820360208601526147e58282613f4f565b91505060408301516147fa6040860182613e9f565b50606083015161480d6060860182613e9f565b5060808301516148206080860182613e9f565b5060a083015161483360a0860182613e9f565b5060c083015161484660c0860182613e9f565b5060e083015184820360e086015261485e8282613f4f565b91505061010083015184820361010086015261487a8282613f4f565b915050610120830151614891610120860182613e9f565b508091505092915050565b60006148a883836147b4565b905092915050565b6000602082019050919050565b60006148c882614788565b6148d28185614793565b9350836020820285016148e4856147a4565b8060005b858110156149205784840389528151614901858261489c565b945061490c836148b0565b925060208a019950506001810190506148e8565b50829750879550505050505092915050565b6000602082019050818103600083015261494c81846148bd565b905092915050565b61495d81614339565b811461496857600080fd5b50565b60008135905061497a81614954565b92915050565b60008060006060848603121561499957614998613e06565b5b60006149a786828701613e31565b93505060206149b886828701613e31565b92505060406149c98682870161496b565b9150509250925092565b600081519050919050565b600082825260208201905092915050565b6000819050602082019050919050565b600061014083016000830151614a186000860182613e9f565b506020830151614a2b6020860182613ee0565b506040830151614a3e6040860182613ee0565b506060830151614a516060860182613e9f565b506080830151614a646080860182613e9f565b5060a083015184820360a0860152614a7c8282613f4f565b91505060c0830151614a9160c0860182613e9f565b5060e0830151614aa460e0860182613e9f565b50610100830151614ab9610100860182613e9f565b50610120830151614ace610120860182613e9f565b508091505092915050565b6000614ae583836149ff565b905092915050565b6000602082019050919050565b6000614b05826149d3565b614b0f81856149de565b935083602082028501614b21856149ef565b8060005b85811015614b5d5784840389528151614b3e8582614ad9565b9450614b4983614aed565b925060208a01995050600181019050614b25565b50829750879550505050505092915050565b60006020820190508181036000830152614b898184614afa565b905092915050565b60008060008060808587031215614bab57614baa613e06565b5b6000614bb987828801613e31565b9450506020614bca87828801613e31565b935050604085013567ffffffffffffffff811115614beb57614bea613e0b565b5b614bf787828801614476565b925050606085013567ffffffffffffffff811115614c1857614c17613e0b565b5b614c2487828801614476565b91505092959194509250565b600080600080600060a08688031215614c4c57614c4b613e06565b5b6000614c5a88828901613e31565b9550506020614c6b88828901613e31565b9450506040614c7c88828901614240565b935050606086013567ffffffffffffffff811115614c9d57614c9c613e0b565b5b614ca988828901614476565b925050608086013567ffffffffffffffff811115614cca57614cc9613e0b565b5b614cd688828901614476565b9150509295509295909350565b6000819050919050565b614cf681614ce3565b82525050565b6000602082019050614d116000830184614ced565b92915050565b600061014083016000830151614d306000860182613e9f565b5060208301518482036020860152614d488282613f4f565b9150506040830151614d5d6040860182613e9f565b506060830151614d706060860182613e9f565b506080830151614d836080860182613e9f565b5060a0830151614d9660a0860182613e9f565b5060c0830151614da960c0860182613e9f565b5060e083015184820360e0860152614dc18282613f4f565b915050610100830151848203610100860152614ddd8282613f4f565b915050610120830151614df4610120860182613e9f565b508091505092915050565b60006020820190508181036000830152614e198184614d17565b905092915050565b614e2a81614ce3565b8114614e3557600080fd5b50565b600081359050614e4781614e21565b92915050565b600060208284031215614e6357614e62613e06565b5b6000614e7184828501614e38565b91505092915050565b600082825260208201905092915050565b7f436c756220646f6573206e6f7420657869737400000000000000000000000000600082015250565b6000614ec1601383614e7a565b9150614ecc82614e8b565b602082019050919050565b60006020820190508181036000830152614ef081614eb4565b9050919050565b7f4e487b7100000000000000000000000000000000000000000000000000000000600052602260045260246000fd5b60006002820490506001821680614f3e57607f821691505b60208210811415614f5257614f51614ef7565b5b50919050565b7f4e487b7100000000000000000000000000000000000000000000000000000000600052603260045260246000fd5b7f4e487b7100000000000000000000000000000000000000000000000000000000600052601160045260246000fd5b6000614fc182613e10565b91507fffffffffffffffffffffffffffffffffffffffffffffffffffffffffffffffff821415614ff457614ff3614f87565b5b600182019050919050565b7f74686520636c756220646f6573206e6f74206578697374000000000000000000600082015250565b6000615035601783614e7a565b915061504082614fff565b602082019050919050565b6000602082019050818103600083015261506481615028565b9050919050565b7f596f7520617265206e6f742061206d656d626572206f662074686520636c7562600082015250565b60006150a1602083614e7a565b91506150ac8261506b565b602082019050919050565b600060208201905081810360008301526150d081615094565b9050919050565b60006150e282613e10565b91506150ed83613e10565b9250827fffffffffffffffffffffffffffffffffffffffffffffffffffffffffffffffff0382111561512257615121614f87565b5b828201905092915050565b61513681613ece565b82525050565b600060808201905061515160008301876142bc565b61515e602083018661512d565b61516b60408301856142bc565b61517860608301846142bc565b95945050505050565b7f5468652070726f706f73616c20646f6573206e6f742065786973740000000000600082015250565b60006151b7601b83614e7a565b91506151c282615181565b602082019050919050565b600060208201905081810360008301526151e6816151aa565b9050919050565b7f4f6e6c79207468652063726561746f72206f66207468652070726f706f73616c60008201527f2063616e20657865637574652069740000000000000000000000000000000000602082015250565b6000615249602f83614e7a565b9150615254826151ed565b604082019050919050565b600060208201905081810360008301526152788161523c565b9050919050565b7f54686520616d6f756e7420657863656564732074686520706f6f6c206f66207460008201527f686520636c756200000000000000000000000000000000000000000000000000602082015250565b60006152db602783614e7a565b91506152e68261527f565b604082019050919050565b6000602082019050818103600083015261530a816152ce565b9050919050565b7f5468652070726f706f73616c20686173206e6f74206265656e20617070726f7660008201527f6564000000000000000000000000000000000000000000000000000000000000602082015250565b600061536d602283614e7a565b915061537882615311565b604082019050919050565b6000602082019050818103600083015261539c81615360565b9050919050565b7f596f752063616e2774206265666f72652074686520566f74696e67206465616460008201527f6c696e6500000000000000000000000000000000000000000000000000000000602082015250565b60006153ff602483614e7a565b915061540a826153a3565b604082019050919050565b6000602082019050818103600083015261542e816153f2565b9050919050565b600061544082613e10565b915061544b83613e10565b92508282101561545e5761545d614f87565b5b828203905092915050565b7f596f75206d7573742073656e642045564d4f5320746f20636f6e74726962757460008201527f6500000000000000000000000000000000000000000000000000000000000000602082015250565b60006154c5602183614e7a565b91506154d082615469565b604082019050919050565b600060208201905081810360008301526154f4816154b8565b9050919050565b7f436c756220697320636c6f736564000000000000000000000000000000000000600082015250565b6000615531600e83614e7a565b915061553c826154fb565b602082019050919050565b6000602082019050818103600083015261556081615524565b9050919050565b7f566f74696e6720506572696f642046696e697368656400000000000000000000600082015250565b600061559d601683614e7a565b91506155a882615567565b602082019050919050565b600060208201905081810360008301526155cc81615590565b9050919050565b7f596f75206861766520616c726561647920766f746564206f6e2074686973207060008201527f726f706f73616c00000000000000000000000000000000000000000000000000602082015250565b600061562f602783614e7a565b915061563a826155d3565b604082019050919050565b6000602082019050818103600083015261565e81615622565b9050919050565b600081905092915050565b60008190508160005260206000209050919050565b6000815461569281614f26565b61569c8186615665565b945060018216600081146156b757600181146156c8576156fb565b60ff198316865281860193506156fb565b6156d185615670565b60005b838110156156f3578154818901526001820191506020810190506156d4565b838801955050505b50505092915050565b60006157108284615685565b915081905092915050565b7f5468652070726f706f73616c206973206e6f206c6f6e6765722070656e64696e60008201527f6700000000000000000000000000000000000000000000000000000000000000602082015250565b6000615777602183614e7a565b91506157828261571b565b604082019050919050565b600060208201905081810360008301526157a68161576a565b9050919050565b7f54686520636c756220646f6573206e6f74206578697374000000000000000000600082015250565b60006157e3601783614e7a565b91506157ee826157ad565b602082019050919050565b60006020820190508181036000830152615812816157d6565b9050919050565b7f54686520616d6f756e74206f66207468652070726f706f73616c206d7573742060008201527f62652067726561746572207468616e2030000000000000000000000000000000602082015250565b6000615875603183614e7a565b915061588082615819565b604082019050919050565b600060208201905081810360008301526158a481615868565b9050919050565b600069ffffffffffffffffffff82169050919050565b6158ca816158ab565b81146158d557600080fd5b50565b6000815190506158e7816158c1565b92915050565b6000815190506158fc81614e21565b92915050565b60008151905061591181613e1a565b92915050565b600080600080600060a0868803121561593357615932613e06565b5b6000615941888289016158d8565b9550506020615952888289016158ed565b945050604061596388828901615902565b935050606061597488828901615902565b9250506080615985888289016158d8565b9150509295509295909350565b7f54686520636c75622069732066756c6c2c206e6f206d6f7265206d656d62657260008201527f732063616e206265206164646564000000000000000000000000000000000000602082015250565b60006159ee602e83614e7a565b91506159f982615992565b604082019050919050565b60006020820190508181036000830152615a1d816159e1565b9050919050565b7f596f752061726520616c72656164792061206d656d626572206f66207468652060008201527f636c756200000000000000000000000000000000000000000000000000000000602082015250565b6000615a80602483614e7a565b9150615a8b82615a24565b604082019050919050565b60006020820190508181036000830152615aaf81615a73565b9050919050565b7f5468652070726f706f73616c206973206e6f7420696e2070656e64696e67207360008201527f7461747573000000000000000000000000000000000000000000000000000000602082015250565b6000615b12602583614e7a565b9150615b1d82615ab6565b604082019050919050565b60006020820190508181036000830152615b4181615b05565b9050919050565b7f4f6e6c79207468652070726f706f73616c2063726561746f722063616e20636c60008201527f6f7365207468652070726f706f73616c00000000000000000000000000000000602082015250565b6000615ba4603083614e7a565b9150615baf82615b48565b604082019050919050565b60006020820190508181036000830152615bd381615b97565b905091905056fea26469706673582212202f4b7464d24ad70227fb04915b4b76defa01b8c62980308a34b0bb2f133e057c64736f6c634300080a0033",
  "linkReferences": {},
  "deployedLinkReferences": {}
}